{"abi":[{"inputs":[{"internalType":"string","name":"campaignName","type":"string"},{"internalType":"string","name":"campaignDescription","type":"string"},{"internalType":"string","name":"campaignImg","type":"string"},{"internalType":"uint256","name":"minimum","type":"uint256"},{"internalType":"address","name":"creator","type":"address"}],"stateMutability":"nonpayable","type":"constructor"},{"inputs":[{"internalType":"uint256","name":"index","type":"uint256"}],"name":"approveRequest","outputs":[],"stateMutability":"nonpayable","type":"function"},{"inputs":[{"internalType":"address","name":"","type":"address"}],"name":"approvers","outputs":[{"internalType":"bool","name":"","type":"bool"}],"stateMutability":"view","type":"function"},{"inputs":[],"name":"approversCount","outputs":[{"internalType":"uint256","name":"","type":"uint256"}],"stateMutability":"view","type":"function"},{"inputs":[],"name":"contribute","outputs":[],"stateMutability":"payable","type":"function"},{"inputs":[{"internalType":"string","name":"requestDescription","type":"string"},{"internalType":"uint256","name":"value","type":"uint256"},{"internalType":"address","name":"recipient","type":"address"}],"name":"createRequest","outputs":[],"stateMutability":"nonpayable","type":"function"},{"inputs":[],"name":"description","outputs":[{"internalType":"string","name":"","type":"string"}],"stateMutability":"view","type":"function"},{"inputs":[{"internalType":"uint256","name":"index","type":"uint256"}],"name":"finalizeRequest","outputs":[],"stateMutability":"nonpayable","type":"function"},{"inputs":[],"name":"getDetails","outputs":[{"internalType":"string","name":"","type":"string"},{"internalType":"string","name":"","type":"string"},{"internalType":"string","name":"","type":"string"},{"internalType":"uint256","name":"","type":"uint256"},{"internalType":"uint256","name":"","type":"uint256"},{"internalType":"uint256","name":"","type":"uint256"},{"internalType":"uint256","name":"","type":"uint256"},{"internalType":"address","name":"","type":"address"}],"stateMutability":"view","type":"function"},{"inputs":[],"name":"getRequestsCount","outputs":[{"internalType":"uint256","name":"","type":"uint256"}],"stateMutability":"view","type":"function"},{"inputs":[],"name":"img","outputs":[{"internalType":"string","name":"","type":"string"}],"stateMutability":"view","type":"function"},{"inputs":[],"name":"manager","outputs":[{"internalType":"address","name":"","type":"address"}],"stateMutability":"view","type":"function"},{"inputs":[],"name":"minimumContribution","outputs":[{"internalType":"uint256","name":"","type":"uint256"}],"stateMutability":"view","type":"function"},{"inputs":[],"name":"name","outputs":[{"internalType":"string","name":"","type":"string"}],"stateMutability":"view","type":"function"},{"inputs":[{"internalType":"uint256","name":"","type":"uint256"}],"name":"requests","outputs":[{"internalType":"string","name":"description","type":"string"},{"internalType":"uint256","name":"value","type":"uint256"},{"internalType":"address","name":"recipient","type":"address"},{"internalType":"bool","name":"complete","type":"bool"},{"internalType":"uint256","name":"approvalCount","type":"uint256"}],"stateMutability":"view","type":"function"}],"devdoc":{"kind":"dev","methods":{},"version":1},"evm":{"assembly":"    /* \"Campaign.sol\":675:3664  contract Campaign {... */\n  mstore(0x40, 0x80)\n    /* \"Campaign.sol\":1276:1627  constructor(... */\n  callvalue\n  dup1\n  iszero\n  tag_1\n  jumpi\n  0x00\n  dup1\n  revert\ntag_1:\n  pop\n  mload(0x40)\n  sub(codesize, bytecodeSize)\n  dup1\n  bytecodeSize\n  dup4\n  codecopy\n  dup2\n  dup2\n  add\n  0x40\n  mstore\n  dup2\n  add\n  swap1\n  tag_2\n  swap2\n  swap1\n  tag_3\n  jump\t// in\ntag_2:\n    /* \"Campaign.sol\":1475:1482  creator */\n  dup1\n    /* \"Campaign.sol\":1465:1472  manager */\n  0x04\n  0x00\n    /* \"Campaign.sol\":1465:1482  manager = creator */\n  0x0100\n  exp\n  dup2\n  sload\n  dup2\n  0xffffffffffffffffffffffffffffffffffffffff\n  mul\n  not\n  and\n  swap1\n  dup4\n  0xffffffffffffffffffffffffffffffffffffffff\n  and\n  mul\n  or\n  swap1\n  sstore\n  pop\n    /* \"Campaign.sol\":1499:1511  campaignName */\n  dup5\n    /* \"Campaign.sol\":1492:1496  name */\n  0x00\n    /* \"Campaign.sol\":1492:1511  name = campaignName */\n  swap1\n  dup1\n  mload\n  swap1\n  0x20\n  add\n  swap1\n  tag_6\n  swap3\n  swap2\n  swap1\n  tag_7\n  jump\t// in\ntag_6:\n  pop\n    /* \"Campaign.sol\":1535:1554  campaignDescription */\n  dup4\n    /* \"Campaign.sol\":1521:1532  description */\n  0x01\n    /* \"Campaign.sol\":1521:1554  description = campaignDescription */\n  swap1\n  dup1\n  mload\n  swap1\n  0x20\n  add\n  swap1\n  tag_8\n  swap3\n  swap2\n  swap1\n  tag_7\n  jump\t// in\ntag_8:\n  pop\n    /* \"Campaign.sol\":1570:1581  campaignImg */\n  dup3\n    /* \"Campaign.sol\":1564:1567  img */\n  0x02\n    /* \"Campaign.sol\":1564:1581  img = campaignImg */\n  swap1\n  dup1\n  mload\n  swap1\n  0x20\n  add\n  swap1\n  tag_9\n  swap3\n  swap2\n  swap1\n  tag_7\n  jump\t// in\ntag_9:\n  pop\n    /* \"Campaign.sol\":1613:1620  minimum */\n  dup2\n    /* \"Campaign.sol\":1591:1610  minimumContribution */\n  0x05\n    /* \"Campaign.sol\":1591:1620  minimumContribution = minimum */\n  dup2\n  swap1\n  sstore\n  pop\n    /* \"Campaign.sol\":1276:1627  constructor(... */\n  pop\n  pop\n  pop\n  pop\n  pop\n    /* \"Campaign.sol\":675:3664  contract Campaign {... */\n  jump(tag_10)\ntag_7:\n  dup3\n  dup1\n  sload\n  tag_11\n  swap1\n  tag_12\n  jump\t// in\ntag_11:\n  swap1\n  0x00\n  mstore\n  keccak256(0x00, 0x20)\n  swap1\n  0x1f\n  add\n  0x20\n  swap1\n  div\n  dup2\n  add\n  swap3\n  dup3\n  tag_14\n  jumpi\n  0x00\n  dup6\n  sstore\n  jump(tag_13)\ntag_14:\n  dup3\n  0x1f\n  lt\n  tag_15\n  jumpi\n  dup1\n  mload\n  not(0xff)\n  and\n  dup4\n  dup1\n  add\n  or\n  dup6\n  sstore\n  jump(tag_13)\ntag_15:\n  dup3\n  dup1\n  add\n  0x01\n  add\n  dup6\n  sstore\n  dup3\n  iszero\n  tag_13\n  jumpi\n  swap2\n  dup3\n  add\ntag_16:\n  dup3\n  dup2\n  gt\n  iszero\n  tag_17\n  jumpi\n  dup3\n  mload\n  dup3\n  sstore\n  swap2\n  0x20\n  add\n  swap2\n  swap1\n  0x01\n  add\n  swap1\n  jump(tag_16)\ntag_17:\ntag_13:\n  pop\n  swap1\n  pop\n  tag_18\n  swap2\n  swap1\n  tag_19\n  jump\t// in\ntag_18:\n  pop\n  swap1\n  jump\t// out\ntag_19:\ntag_20:\n  dup1\n  dup3\n  gt\n  iszero\n  tag_21\n  jumpi\n  0x00\n  dup2\n  0x00\n  swap1\n  sstore\n  pop\n  0x01\n  add\n  jump(tag_20)\ntag_21:\n  pop\n  swap1\n  jump\t// out\n    /* \"#utility.yul\":7:82   */\ntag_22:\n    /* \"#utility.yul\":40:46   */\n  0x00\n    /* \"#utility.yul\":73:75   */\n  0x40\n    /* \"#utility.yul\":67:76   */\n  mload\n    /* \"#utility.yul\":57:76   */\n  swap1\n  pop\n    /* \"#utility.yul\":7:82   */\n  swap1\n  jump\t// out\n    /* \"#utility.yul\":88:205   */\ntag_23:\n    /* \"#utility.yul\":197:198   */\n  0x00\n    /* \"#utility.yul\":194:195   */\n  dup1\n    /* \"#utility.yul\":187:199   */\n  revert\n    /* \"#utility.yul\":211:328   */\ntag_24:\n    /* \"#utility.yul\":320:321   */\n  0x00\n    /* \"#utility.yul\":317:318   */\n  dup1\n    /* \"#utility.yul\":310:322   */\n  revert\n    /* \"#utility.yul\":334:451   */\ntag_25:\n    /* \"#utility.yul\":443:444   */\n  0x00\n    /* \"#utility.yul\":440:441   */\n  dup1\n    /* \"#utility.yul\":433:445   */\n  revert\n    /* \"#utility.yul\":457:574   */\ntag_26:\n    /* \"#utility.yul\":566:567   */\n  0x00\n    /* \"#utility.yul\":563:564   */\n  dup1\n    /* \"#utility.yul\":556:568   */\n  revert\n    /* \"#utility.yul\":580:682   */\ntag_27:\n    /* \"#utility.yul\":621:627   */\n  0x00\n    /* \"#utility.yul\":672:674   */\n  0x1f\n    /* \"#utility.yul\":668:675   */\n  not\n    /* \"#utility.yul\":663:665   */\n  0x1f\n    /* \"#utility.yul\":656:661   */\n  dup4\n    /* \"#utility.yul\":652:666   */\n  add\n    /* \"#utility.yul\":648:676   */\n  and\n    /* \"#utility.yul\":638:676   */\n  swap1\n  pop\n    /* \"#utility.yul\":580:682   */\n  swap2\n  swap1\n  pop\n  jump\t// out\n    /* \"#utility.yul\":688:868   */\ntag_28:\n    /* \"#utility.yul\":736:813   */\n  0x4e487b7100000000000000000000000000000000000000000000000000000000\n    /* \"#utility.yul\":733:734   */\n  0x00\n    /* \"#utility.yul\":726:814   */\n  mstore\n    /* \"#utility.yul\":833:837   */\n  0x41\n    /* \"#utility.yul\":830:831   */\n  0x04\n    /* \"#utility.yul\":823:838   */\n  mstore\n    /* \"#utility.yul\":857:861   */\n  0x24\n    /* \"#utility.yul\":854:855   */\n  0x00\n    /* \"#utility.yul\":847:862   */\n  revert\n    /* \"#utility.yul\":874:1155   */\ntag_29:\n    /* \"#utility.yul\":957:984   */\n  tag_52\n    /* \"#utility.yul\":979:983   */\n  dup3\n    /* \"#utility.yul\":957:984   */\n  tag_27\n  jump\t// in\ntag_52:\n    /* \"#utility.yul\":949:955   */\n  dup2\n    /* \"#utility.yul\":945:985   */\n  add\n    /* \"#utility.yul\":1087:1093   */\n  dup2\n    /* \"#utility.yul\":1075:1085   */\n  dup2\n    /* \"#utility.yul\":1072:1094   */\n  lt\n    /* \"#utility.yul\":1051:1069   */\n  0xffffffffffffffff\n    /* \"#utility.yul\":1039:1049   */\n  dup3\n    /* \"#utility.yul\":1036:1070   */\n  gt\n    /* \"#utility.yul\":1033:1095   */\n  or\n    /* \"#utility.yul\":1030:1118   */\n  iszero\n  tag_53\n  jumpi\n    /* \"#utility.yul\":1098:1116   */\n  tag_54\n  tag_28\n  jump\t// in\ntag_54:\n    /* \"#utility.yul\":1030:1118   */\ntag_53:\n    /* \"#utility.yul\":1138:1148   */\n  dup1\n    /* \"#utility.yul\":1134:1136   */\n  0x40\n    /* \"#utility.yul\":1127:1149   */\n  mstore\n    /* \"#utility.yul\":917:1155   */\n  pop\n    /* \"#utility.yul\":874:1155   */\n  pop\n  pop\n  jump\t// out\n    /* \"#utility.yul\":1161:1290   */\ntag_30:\n    /* \"#utility.yul\":1195:1201   */\n  0x00\n    /* \"#utility.yul\":1222:1242   */\n  tag_56\n  tag_22\n  jump\t// in\ntag_56:\n    /* \"#utility.yul\":1212:1242   */\n  swap1\n  pop\n    /* \"#utility.yul\":1251:1284   */\n  tag_57\n    /* \"#utility.yul\":1279:1283   */\n  dup3\n    /* \"#utility.yul\":1271:1277   */\n  dup3\n    /* \"#utility.yul\":1251:1284   */\n  tag_29\n  jump\t// in\ntag_57:\n    /* \"#utility.yul\":1161:1290   */\n  swap2\n  swap1\n  pop\n  jump\t// out\n    /* \"#utility.yul\":1296:1604   */\ntag_31:\n    /* \"#utility.yul\":1358:1362   */\n  0x00\n    /* \"#utility.yul\":1448:1466   */\n  0xffffffffffffffff\n    /* \"#utility.yul\":1440:1446   */\n  dup3\n    /* \"#utility.yul\":1437:1467   */\n  gt\n    /* \"#utility.yul\":1434:1490   */\n  iszero\n  tag_59\n  jumpi\n    /* \"#utility.yul\":1470:1488   */\n  tag_60\n  tag_28\n  jump\t// in\ntag_60:\n    /* \"#utility.yul\":1434:1490   */\ntag_59:\n    /* \"#utility.yul\":1508:1537   */\n  tag_61\n    /* \"#utility.yul\":1530:1536   */\n  dup3\n    /* \"#utility.yul\":1508:1537   */\n  tag_27\n  jump\t// in\ntag_61:\n    /* \"#utility.yul\":1500:1537   */\n  swap1\n  pop\n    /* \"#utility.yul\":1592:1596   */\n  0x20\n    /* \"#utility.yul\":1586:1590   */\n  dup2\n    /* \"#utility.yul\":1582:1597   */\n  add\n    /* \"#utility.yul\":1574:1597   */\n  swap1\n  pop\n    /* \"#utility.yul\":1296:1604   */\n  swap2\n  swap1\n  pop\n  jump\t// out\n    /* \"#utility.yul\":1610:1917   */\ntag_32:\n    /* \"#utility.yul\":1678:1679   */\n  0x00\n    /* \"#utility.yul\":1688:1801   */\ntag_63:\n    /* \"#utility.yul\":1702:1708   */\n  dup4\n    /* \"#utility.yul\":1699:1700   */\n  dup2\n    /* \"#utility.yul\":1696:1709   */\n  lt\n    /* \"#utility.yul\":1688:1801   */\n  iszero\n  tag_65\n  jumpi\n    /* \"#utility.yul\":1787:1788   */\n  dup1\n    /* \"#utility.yul\":1782:1785   */\n  dup3\n    /* \"#utility.yul\":1778:1789   */\n  add\n    /* \"#utility.yul\":1772:1790   */\n  mload\n    /* \"#utility.yul\":1768:1769   */\n  dup2\n    /* \"#utility.yul\":1763:1766   */\n  dup5\n    /* \"#utility.yul\":1759:1770   */\n  add\n    /* \"#utility.yul\":1752:1791   */\n  mstore\n    /* \"#utility.yul\":1724:1726   */\n  0x20\n    /* \"#utility.yul\":1721:1722   */\n  dup2\n    /* \"#utility.yul\":1717:1727   */\n  add\n    /* \"#utility.yul\":1712:1727   */\n  swap1\n  pop\n    /* \"#utility.yul\":1688:1801   */\n  jump(tag_63)\ntag_65:\n    /* \"#utility.yul\":1819:1825   */\n  dup4\n    /* \"#utility.yul\":1816:1817   */\n  dup2\n    /* \"#utility.yul\":1813:1826   */\n  gt\n    /* \"#utility.yul\":1810:1911   */\n  iszero\n  tag_66\n  jumpi\n    /* \"#utility.yul\":1899:1900   */\n  0x00\n    /* \"#utility.yul\":1890:1896   */\n  dup5\n    /* \"#utility.yul\":1885:1888   */\n  dup5\n    /* \"#utility.yul\":1881:1897   */\n  add\n    /* \"#utility.yul\":1874:1901   */\n  mstore\n    /* \"#utility.yul\":1810:1911   */\ntag_66:\n    /* \"#utility.yul\":1659:1917   */\n  pop\n    /* \"#utility.yul\":1610:1917   */\n  pop\n  pop\n  pop\n  jump\t// out\n    /* \"#utility.yul\":1923:2344   */\ntag_33:\n    /* \"#utility.yul\":2012:2017   */\n  0x00\n    /* \"#utility.yul\":2037:2103   */\n  tag_68\n    /* \"#utility.yul\":2053:2102   */\n  tag_69\n    /* \"#utility.yul\":2095:2101   */\n  dup5\n    /* \"#utility.yul\":2053:2102   */\n  tag_31\n  jump\t// in\ntag_69:\n    /* \"#utility.yul\":2037:2103   */\n  tag_30\n  jump\t// in\ntag_68:\n    /* \"#utility.yul\":2028:2103   */\n  swap1\n  pop\n    /* \"#utility.yul\":2126:2132   */\n  dup3\n    /* \"#utility.yul\":2119:2124   */\n  dup2\n    /* \"#utility.yul\":2112:2133   */\n  mstore\n    /* \"#utility.yul\":2164:2168   */\n  0x20\n    /* \"#utility.yul\":2157:2162   */\n  dup2\n    /* \"#utility.yul\":2153:2169   */\n  add\n    /* \"#utility.yul\":2202:2205   */\n  dup5\n    /* \"#utility.yul\":2193:2199   */\n  dup5\n    /* \"#utility.yul\":2188:2191   */\n  dup5\n    /* \"#utility.yul\":2184:2200   */\n  add\n    /* \"#utility.yul\":2181:2206   */\n  gt\n    /* \"#utility.yul\":2178:2290   */\n  iszero\n  tag_70\n  jumpi\n    /* \"#utility.yul\":2209:2288   */\n  tag_71\n  tag_26\n  jump\t// in\ntag_71:\n    /* \"#utility.yul\":2178:2290   */\ntag_70:\n    /* \"#utility.yul\":2299:2338   */\n  tag_72\n    /* \"#utility.yul\":2331:2337   */\n  dup5\n    /* \"#utility.yul\":2326:2329   */\n  dup3\n    /* \"#utility.yul\":2321:2324   */\n  dup6\n    /* \"#utility.yul\":2299:2338   */\n  tag_32\n  jump\t// in\ntag_72:\n    /* \"#utility.yul\":2018:2344   */\n  pop\n    /* \"#utility.yul\":1923:2344   */\n  swap4\n  swap3\n  pop\n  pop\n  pop\n  jump\t// out\n    /* \"#utility.yul\":2364:2719   */\ntag_34:\n    /* \"#utility.yul\":2431:2436   */\n  0x00\n    /* \"#utility.yul\":2480:2483   */\n  dup3\n    /* \"#utility.yul\":2473:2477   */\n  0x1f\n    /* \"#utility.yul\":2465:2471   */\n  dup4\n    /* \"#utility.yul\":2461:2478   */\n  add\n    /* \"#utility.yul\":2457:2484   */\n  slt\n    /* \"#utility.yul\":2447:2569   */\n  tag_74\n  jumpi\n    /* \"#utility.yul\":2488:2567   */\n  tag_75\n  tag_25\n  jump\t// in\ntag_75:\n    /* \"#utility.yul\":2447:2569   */\ntag_74:\n    /* \"#utility.yul\":2598:2604   */\n  dup2\n    /* \"#utility.yul\":2592:2605   */\n  mload\n    /* \"#utility.yul\":2623:2713   */\n  tag_76\n    /* \"#utility.yul\":2709:2712   */\n  dup5\n    /* \"#utility.yul\":2701:2707   */\n  dup3\n    /* \"#utility.yul\":2694:2698   */\n  0x20\n    /* \"#utility.yul\":2686:2692   */\n  dup7\n    /* \"#utility.yul\":2682:2699   */\n  add\n    /* \"#utility.yul\":2623:2713   */\n  tag_33\n  jump\t// in\ntag_76:\n    /* \"#utility.yul\":2614:2713   */\n  swap2\n  pop\n    /* \"#utility.yul\":2437:2719   */\n  pop\n    /* \"#utility.yul\":2364:2719   */\n  swap3\n  swap2\n  pop\n  pop\n  jump\t// out\n    /* \"#utility.yul\":2725:2802   */\ntag_35:\n    /* \"#utility.yul\":2762:2769   */\n  0x00\n    /* \"#utility.yul\":2791:2796   */\n  dup2\n    /* \"#utility.yul\":2780:2796   */\n  swap1\n  pop\n    /* \"#utility.yul\":2725:2802   */\n  swap2\n  swap1\n  pop\n  jump\t// out\n    /* \"#utility.yul\":2808:2930   */\ntag_36:\n    /* \"#utility.yul\":2881:2905   */\n  tag_79\n    /* \"#utility.yul\":2899:2904   */\n  dup2\n    /* \"#utility.yul\":2881:2905   */\n  tag_35\n  jump\t// in\ntag_79:\n    /* \"#utility.yul\":2874:2879   */\n  dup2\n    /* \"#utility.yul\":2871:2906   */\n  eq\n    /* \"#utility.yul\":2861:2924   */\n  tag_80\n  jumpi\n    /* \"#utility.yul\":2920:2921   */\n  0x00\n    /* \"#utility.yul\":2917:2918   */\n  dup1\n    /* \"#utility.yul\":2910:2922   */\n  revert\n    /* \"#utility.yul\":2861:2924   */\ntag_80:\n    /* \"#utility.yul\":2808:2930   */\n  pop\n  jump\t// out\n    /* \"#utility.yul\":2936:3079   */\ntag_37:\n    /* \"#utility.yul\":2993:2998   */\n  0x00\n    /* \"#utility.yul\":3024:3030   */\n  dup2\n    /* \"#utility.yul\":3018:3031   */\n  mload\n    /* \"#utility.yul\":3009:3031   */\n  swap1\n  pop\n    /* \"#utility.yul\":3040:3073   */\n  tag_82\n    /* \"#utility.yul\":3067:3072   */\n  dup2\n    /* \"#utility.yul\":3040:3073   */\n  tag_36\n  jump\t// in\ntag_82:\n    /* \"#utility.yul\":2936:3079   */\n  swap3\n  swap2\n  pop\n  pop\n  jump\t// out\n    /* \"#utility.yul\":3085:3211   */\ntag_38:\n    /* \"#utility.yul\":3122:3129   */\n  0x00\n    /* \"#utility.yul\":3162:3204   */\n  0xffffffffffffffffffffffffffffffffffffffff\n    /* \"#utility.yul\":3155:3160   */\n  dup3\n    /* \"#utility.yul\":3151:3205   */\n  and\n    /* \"#utility.yul\":3140:3205   */\n  swap1\n  pop\n    /* \"#utility.yul\":3085:3211   */\n  swap2\n  swap1\n  pop\n  jump\t// out\n    /* \"#utility.yul\":3217:3313   */\ntag_39:\n    /* \"#utility.yul\":3254:3261   */\n  0x00\n    /* \"#utility.yul\":3283:3307   */\n  tag_85\n    /* \"#utility.yul\":3301:3306   */\n  dup3\n    /* \"#utility.yul\":3283:3307   */\n  tag_38\n  jump\t// in\ntag_85:\n    /* \"#utility.yul\":3272:3307   */\n  swap1\n  pop\n    /* \"#utility.yul\":3217:3313   */\n  swap2\n  swap1\n  pop\n  jump\t// out\n    /* \"#utility.yul\":3319:3441   */\ntag_40:\n    /* \"#utility.yul\":3392:3416   */\n  tag_87\n    /* \"#utility.yul\":3410:3415   */\n  dup2\n    /* \"#utility.yul\":3392:3416   */\n  tag_39\n  jump\t// in\ntag_87:\n    /* \"#utility.yul\":3385:3390   */\n  dup2\n    /* \"#utility.yul\":3382:3417   */\n  eq\n    /* \"#utility.yul\":3372:3435   */\n  tag_88\n  jumpi\n    /* \"#utility.yul\":3431:3432   */\n  0x00\n    /* \"#utility.yul\":3428:3429   */\n  dup1\n    /* \"#utility.yul\":3421:3433   */\n  revert\n    /* \"#utility.yul\":3372:3435   */\ntag_88:\n    /* \"#utility.yul\":3319:3441   */\n  pop\n  jump\t// out\n    /* \"#utility.yul\":3447:3590   */\ntag_41:\n    /* \"#utility.yul\":3504:3509   */\n  0x00\n    /* \"#utility.yul\":3535:3541   */\n  dup2\n    /* \"#utility.yul\":3529:3542   */\n  mload\n    /* \"#utility.yul\":3520:3542   */\n  swap1\n  pop\n    /* \"#utility.yul\":3551:3584   */\n  tag_90\n    /* \"#utility.yul\":3578:3583   */\n  dup2\n    /* \"#utility.yul\":3551:3584   */\n  tag_40\n  jump\t// in\ntag_90:\n    /* \"#utility.yul\":3447:3590   */\n  swap3\n  swap2\n  pop\n  pop\n  jump\t// out\n    /* \"#utility.yul\":3596:5092   */\ntag_3:\n    /* \"#utility.yul\":3732:3738   */\n  0x00\n    /* \"#utility.yul\":3740:3746   */\n  dup1\n    /* \"#utility.yul\":3748:3754   */\n  0x00\n    /* \"#utility.yul\":3756:3762   */\n  dup1\n    /* \"#utility.yul\":3764:3770   */\n  0x00\n    /* \"#utility.yul\":3813:3816   */\n  0xa0\n    /* \"#utility.yul\":3801:3810   */\n  dup7\n    /* \"#utility.yul\":3792:3799   */\n  dup9\n    /* \"#utility.yul\":3788:3811   */\n  sub\n    /* \"#utility.yul\":3784:3817   */\n  slt\n    /* \"#utility.yul\":3781:3901   */\n  iszero\n  tag_92\n  jumpi\n    /* \"#utility.yul\":3820:3899   */\n  tag_93\n  tag_23\n  jump\t// in\ntag_93:\n    /* \"#utility.yul\":3781:3901   */\ntag_92:\n    /* \"#utility.yul\":3961:3962   */\n  0x00\n    /* \"#utility.yul\":3950:3959   */\n  dup7\n    /* \"#utility.yul\":3946:3963   */\n  add\n    /* \"#utility.yul\":3940:3964   */\n  mload\n    /* \"#utility.yul\":3991:4009   */\n  0xffffffffffffffff\n    /* \"#utility.yul\":3983:3989   */\n  dup2\n    /* \"#utility.yul\":3980:4010   */\n  gt\n    /* \"#utility.yul\":3977:4094   */\n  iszero\n  tag_94\n  jumpi\n    /* \"#utility.yul\":4013:4092   */\n  tag_95\n  tag_24\n  jump\t// in\ntag_95:\n    /* \"#utility.yul\":3977:4094   */\ntag_94:\n    /* \"#utility.yul\":4118:4192   */\n  tag_96\n    /* \"#utility.yul\":4184:4191   */\n  dup9\n    /* \"#utility.yul\":4175:4181   */\n  dup3\n    /* \"#utility.yul\":4164:4173   */\n  dup10\n    /* \"#utility.yul\":4160:4182   */\n  add\n    /* \"#utility.yul\":4118:4192   */\n  tag_34\n  jump\t// in\ntag_96:\n    /* \"#utility.yul\":4108:4192   */\n  swap6\n  pop\n    /* \"#utility.yul\":3911:4202   */\n  pop\n    /* \"#utility.yul\":4262:4264   */\n  0x20\n    /* \"#utility.yul\":4251:4260   */\n  dup7\n    /* \"#utility.yul\":4247:4265   */\n  add\n    /* \"#utility.yul\":4241:4266   */\n  mload\n    /* \"#utility.yul\":4293:4311   */\n  0xffffffffffffffff\n    /* \"#utility.yul\":4285:4291   */\n  dup2\n    /* \"#utility.yul\":4282:4312   */\n  gt\n    /* \"#utility.yul\":4279:4396   */\n  iszero\n  tag_97\n  jumpi\n    /* \"#utility.yul\":4315:4394   */\n  tag_98\n  tag_24\n  jump\t// in\ntag_98:\n    /* \"#utility.yul\":4279:4396   */\ntag_97:\n    /* \"#utility.yul\":4420:4494   */\n  tag_99\n    /* \"#utility.yul\":4486:4493   */\n  dup9\n    /* \"#utility.yul\":4477:4483   */\n  dup3\n    /* \"#utility.yul\":4466:4475   */\n  dup10\n    /* \"#utility.yul\":4462:4484   */\n  add\n    /* \"#utility.yul\":4420:4494   */\n  tag_34\n  jump\t// in\ntag_99:\n    /* \"#utility.yul\":4410:4494   */\n  swap5\n  pop\n    /* \"#utility.yul\":4212:4504   */\n  pop\n    /* \"#utility.yul\":4564:4566   */\n  0x40\n    /* \"#utility.yul\":4553:4562   */\n  dup7\n    /* \"#utility.yul\":4549:4567   */\n  add\n    /* \"#utility.yul\":4543:4568   */\n  mload\n    /* \"#utility.yul\":4595:4613   */\n  0xffffffffffffffff\n    /* \"#utility.yul\":4587:4593   */\n  dup2\n    /* \"#utility.yul\":4584:4614   */\n  gt\n    /* \"#utility.yul\":4581:4698   */\n  iszero\n  tag_100\n  jumpi\n    /* \"#utility.yul\":4617:4696   */\n  tag_101\n  tag_24\n  jump\t// in\ntag_101:\n    /* \"#utility.yul\":4581:4698   */\ntag_100:\n    /* \"#utility.yul\":4722:4796   */\n  tag_102\n    /* \"#utility.yul\":4788:4795   */\n  dup9\n    /* \"#utility.yul\":4779:4785   */\n  dup3\n    /* \"#utility.yul\":4768:4777   */\n  dup10\n    /* \"#utility.yul\":4764:4786   */\n  add\n    /* \"#utility.yul\":4722:4796   */\n  tag_34\n  jump\t// in\ntag_102:\n    /* \"#utility.yul\":4712:4796   */\n  swap4\n  pop\n    /* \"#utility.yul\":4514:4806   */\n  pop\n    /* \"#utility.yul\":4845:4847   */\n  0x60\n    /* \"#utility.yul\":4871:4935   */\n  tag_103\n    /* \"#utility.yul\":4927:4934   */\n  dup9\n    /* \"#utility.yul\":4918:4924   */\n  dup3\n    /* \"#utility.yul\":4907:4916   */\n  dup10\n    /* \"#utility.yul\":4903:4925   */\n  add\n    /* \"#utility.yul\":4871:4935   */\n  tag_37\n  jump\t// in\ntag_103:\n    /* \"#utility.yul\":4861:4935   */\n  swap3\n  pop\n    /* \"#utility.yul\":4816:4945   */\n  pop\n    /* \"#utility.yul\":4984:4987   */\n  0x80\n    /* \"#utility.yul\":5011:5075   */\n  tag_104\n    /* \"#utility.yul\":5067:5074   */\n  dup9\n    /* \"#utility.yul\":5058:5064   */\n  dup3\n    /* \"#utility.yul\":5047:5056   */\n  dup10\n    /* \"#utility.yul\":5043:5065   */\n  add\n    /* \"#utility.yul\":5011:5075   */\n  tag_41\n  jump\t// in\ntag_104:\n    /* \"#utility.yul\":5001:5075   */\n  swap2\n  pop\n    /* \"#utility.yul\":4955:5085   */\n  pop\n    /* \"#utility.yul\":3596:5092   */\n  swap3\n  swap6\n  pop\n  swap3\n  swap6\n  swap1\n  swap4\n  pop\n  jump\t// out\n    /* \"#utility.yul\":5098:5278   */\ntag_42:\n    /* \"#utility.yul\":5146:5223   */\n  0x4e487b7100000000000000000000000000000000000000000000000000000000\n    /* \"#utility.yul\":5143:5144   */\n  0x00\n    /* \"#utility.yul\":5136:5224   */\n  mstore\n    /* \"#utility.yul\":5243:5247   */\n  0x22\n    /* \"#utility.yul\":5240:5241   */\n  0x04\n    /* \"#utility.yul\":5233:5248   */\n  mstore\n    /* \"#utility.yul\":5267:5271   */\n  0x24\n    /* \"#utility.yul\":5264:5265   */\n  0x00\n    /* \"#utility.yul\":5257:5272   */\n  revert\n    /* \"#utility.yul\":5284:5604   */\ntag_12:\n    /* \"#utility.yul\":5328:5334   */\n  0x00\n    /* \"#utility.yul\":5365:5366   */\n  0x02\n    /* \"#utility.yul\":5359:5363   */\n  dup3\n    /* \"#utility.yul\":5355:5367   */\n  div\n    /* \"#utility.yul\":5345:5367   */\n  swap1\n  pop\n    /* \"#utility.yul\":5412:5413   */\n  0x01\n    /* \"#utility.yul\":5406:5410   */\n  dup3\n    /* \"#utility.yul\":5402:5414   */\n  and\n    /* \"#utility.yul\":5433:5451   */\n  dup1\n    /* \"#utility.yul\":5423:5504   */\n  tag_107\n  jumpi\n    /* \"#utility.yul\":5489:5493   */\n  0x7f\n    /* \"#utility.yul\":5481:5487   */\n  dup3\n    /* \"#utility.yul\":5477:5494   */\n  and\n    /* \"#utility.yul\":5467:5494   */\n  swap2\n  pop\n    /* \"#utility.yul\":5423:5504   */\ntag_107:\n    /* \"#utility.yul\":5551:5553   */\n  0x20\n    /* \"#utility.yul\":5543:5549   */\n  dup3\n    /* \"#utility.yul\":5540:5554   */\n  lt\n    /* \"#utility.yul\":5520:5538   */\n  dup2\n    /* \"#utility.yul\":5517:5555   */\n  eq\n    /* \"#utility.yul\":5514:5598   */\n  iszero\n  tag_108\n  jumpi\n    /* \"#utility.yul\":5570:5588   */\n  tag_109\n  tag_42\n  jump\t// in\ntag_109:\n    /* \"#utility.yul\":5514:5598   */\ntag_108:\n    /* \"#utility.yul\":5335:5604   */\n  pop\n    /* \"#utility.yul\":5284:5604   */\n  swap2\n  swap1\n  pop\n  jump\t// out\n    /* \"Campaign.sol\":675:3664  contract Campaign {... */\ntag_10:\n  dataSize(sub_0)\n  dup1\n  dataOffset(sub_0)\n  0x00\n  codecopy\n  0x00\n  return\nstop\n\nsub_0: assembly {\n        /* \"Campaign.sol\":675:3664  contract Campaign {... */\n      mstore(0x40, 0x80)\n      jumpi(tag_1, lt(calldatasize, 0x04))\n      shr(0xe0, calldataload(0x00))\n      dup1\n      0x81d12c58\n      gt\n      tag_16\n      jumpi\n      dup1\n      0x937e09b1\n      gt\n      tag_17\n      jumpi\n      dup1\n      0x937e09b1\n      eq\n      tag_12\n      jumpi\n      dup1\n      0xd7bb99ba\n      eq\n      tag_13\n      jumpi\n      dup1\n      0xd7d1bbdb\n      eq\n      tag_14\n      jumpi\n      dup1\n      0xfbbf93a0\n      eq\n      tag_15\n      jumpi\n      jump(tag_1)\n    tag_17:\n      dup1\n      0x81d12c58\n      eq\n      tag_9\n      jumpi\n      dup1\n      0x82fde093\n      eq\n      tag_10\n      jumpi\n      dup1\n      0x8a9cfd55\n      eq\n      tag_11\n      jumpi\n      jump(tag_1)\n    tag_16:\n      dup1\n      0x3410452a\n      gt\n      tag_18\n      jumpi\n      dup1\n      0x3410452a\n      eq\n      tag_5\n      jumpi\n      dup1\n      0x426bfd00\n      eq\n      tag_6\n      jumpi\n      dup1\n      0x481c6a75\n      eq\n      tag_7\n      jumpi\n      dup1\n      0x7284e416\n      eq\n      tag_8\n      jumpi\n      jump(tag_1)\n    tag_18:\n      dup1\n      0x03441006\n      eq\n      tag_2\n      jumpi\n      dup1\n      0x06fdde03\n      eq\n      tag_3\n      jumpi\n      dup1\n      0x0a144391\n      eq\n      tag_4\n      jumpi\n    tag_1:\n      0x00\n      dup1\n      revert\n        /* \"Campaign.sol\":2667:3061  function finalizeRequest(uint index) public restricted {... */\n    tag_2:\n      callvalue\n      dup1\n      iszero\n      tag_19\n      jumpi\n      0x00\n      dup1\n      revert\n    tag_19:\n      pop\n      tag_20\n      0x04\n      dup1\n      calldatasize\n      sub\n      dup2\n      add\n      swap1\n      tag_21\n      swap2\n      swap1\n      tag_22\n      jump\t// in\n    tag_21:\n      tag_23\n      jump\t// in\n    tag_20:\n      stop\n        /* \"Campaign.sol\":897:915  string public name */\n    tag_3:\n      callvalue\n      dup1\n      iszero\n      tag_24\n      jumpi\n      0x00\n      dup1\n      revert\n    tag_24:\n      pop\n      tag_25\n      tag_26\n      jump\t// in\n    tag_25:\n      mload(0x40)\n      tag_27\n      swap2\n      swap1\n      tag_28\n      jump\t// in\n    tag_27:\n      mload(0x40)\n      dup1\n      swap2\n      sub\n      swap1\n      return\n        /* \"Campaign.sol\":1071:1112  mapping(address => bool) public approvers */\n    tag_4:\n      callvalue\n      dup1\n      iszero\n      tag_29\n      jumpi\n      0x00\n      dup1\n      revert\n    tag_29:\n      pop\n      tag_30\n      0x04\n      dup1\n      calldatasize\n      sub\n      dup2\n      add\n      swap1\n      tag_31\n      swap2\n      swap1\n      tag_32\n      jump\t// in\n    tag_31:\n      tag_33\n      jump\t// in\n    tag_30:\n      mload(0x40)\n      tag_34\n      swap2\n      swap1\n      tag_35\n      jump\t// in\n    tag_34:\n      mload(0x40)\n      dup1\n      swap2\n      sub\n      swap1\n      return\n        /* \"Campaign.sol\":3568:3662  function getRequestsCount() public view returns (uint) {... */\n    tag_5:\n      callvalue\n      dup1\n      iszero\n      tag_36\n      jumpi\n      0x00\n      dup1\n      revert\n    tag_36:\n      pop\n      tag_37\n      tag_38\n      jump\t// in\n    tag_37:\n      mload(0x40)\n      tag_39\n      swap2\n      swap1\n      tag_40\n      jump\t// in\n    tag_39:\n      mload(0x40)\n      dup1\n      swap2\n      sub\n      swap1\n      return\n        /* \"Campaign.sol\":952:969  string public img */\n    tag_6:\n      callvalue\n      dup1\n      iszero\n      tag_41\n      jumpi\n      0x00\n      dup1\n      revert\n    tag_41:\n      pop\n      tag_42\n      tag_43\n      jump\t// in\n    tag_42:\n      mload(0x40)\n      tag_44\n      swap2\n      swap1\n      tag_28\n      jump\t// in\n    tag_44:\n      mload(0x40)\n      dup1\n      swap2\n      sub\n      swap1\n      return\n        /* \"Campaign.sol\":1006:1028  address public manager */\n    tag_7:\n      callvalue\n      dup1\n      iszero\n      tag_45\n      jumpi\n      0x00\n      dup1\n      revert\n    tag_45:\n      pop\n      tag_46\n      tag_47\n      jump\t// in\n    tag_46:\n      mload(0x40)\n      tag_48\n      swap2\n      swap1\n      tag_49\n      jump\t// in\n    tag_48:\n      mload(0x40)\n      dup1\n      swap2\n      sub\n      swap1\n      return\n        /* \"Campaign.sol\":921:946  string public description */\n    tag_8:\n      callvalue\n      dup1\n      iszero\n      tag_50\n      jumpi\n      0x00\n      dup1\n      revert\n    tag_50:\n      pop\n      tag_51\n      tag_52\n      jump\t// in\n    tag_51:\n      mload(0x40)\n      tag_53\n      swap2\n      swap1\n      tag_28\n      jump\t// in\n    tag_53:\n      mload(0x40)\n      dup1\n      swap2\n      sub\n      swap1\n      return\n        /* \"Campaign.sol\":975:1000  Request[] public requests */\n    tag_9:\n      callvalue\n      dup1\n      iszero\n      tag_54\n      jumpi\n      0x00\n      dup1\n      revert\n    tag_54:\n      pop\n      tag_55\n      0x04\n      dup1\n      calldatasize\n      sub\n      dup2\n      add\n      swap1\n      tag_56\n      swap2\n      swap1\n      tag_22\n      jump\t// in\n    tag_56:\n      tag_57\n      jump\t// in\n    tag_55:\n      mload(0x40)\n      tag_58\n      swap6\n      swap5\n      swap4\n      swap3\n      swap2\n      swap1\n      tag_59\n      jump\t// in\n    tag_58:\n      mload(0x40)\n      dup1\n      swap2\n      sub\n      swap1\n      return\n        /* \"Campaign.sol\":1118:1144  uint public approversCount */\n    tag_10:\n      callvalue\n      dup1\n      iszero\n      tag_60\n      jumpi\n      0x00\n      dup1\n      revert\n    tag_60:\n      pop\n      tag_61\n      tag_62\n      jump\t// in\n    tag_61:\n      mload(0x40)\n      tag_63\n      swap2\n      swap1\n      tag_40\n      jump\t// in\n    tag_63:\n      mload(0x40)\n      dup1\n      swap2\n      sub\n      swap1\n      return\n        /* \"Campaign.sol\":1925:2326  function createRequest(... */\n    tag_11:\n      callvalue\n      dup1\n      iszero\n      tag_64\n      jumpi\n      0x00\n      dup1\n      revert\n    tag_64:\n      pop\n      tag_65\n      0x04\n      dup1\n      calldatasize\n      sub\n      dup2\n      add\n      swap1\n      tag_66\n      swap2\n      swap1\n      tag_67\n      jump\t// in\n    tag_66:\n      tag_68\n      jump\t// in\n    tag_65:\n      stop\n        /* \"Campaign.sol\":1034:1065  uint public minimumContribution */\n    tag_12:\n      callvalue\n      dup1\n      iszero\n      tag_69\n      jumpi\n      0x00\n      dup1\n      revert\n    tag_69:\n      pop\n      tag_70\n      tag_71\n      jump\t// in\n    tag_70:\n      mload(0x40)\n      tag_72\n      swap2\n      swap1\n      tag_40\n      jump\t// in\n    tag_72:\n      mload(0x40)\n      dup1\n      swap2\n      sub\n      swap1\n      return\n        /* \"Campaign.sol\":1633:1919  function contribute() public payable {... */\n    tag_13:\n      tag_73\n      tag_74\n      jump\t// in\n    tag_73:\n      stop\n        /* \"Campaign.sol\":2332:2661  function approveRequest(uint index) public {... */\n    tag_14:\n      callvalue\n      dup1\n      iszero\n      tag_75\n      jumpi\n      0x00\n      dup1\n      revert\n    tag_75:\n      pop\n      tag_76\n      0x04\n      dup1\n      calldatasize\n      sub\n      dup2\n      add\n      swap1\n      tag_77\n      swap2\n      swap1\n      tag_22\n      jump\t// in\n    tag_77:\n      tag_78\n      jump\t// in\n    tag_76:\n      stop\n        /* \"Campaign.sol\":3067:3562  function getDetails()... */\n    tag_15:\n      callvalue\n      dup1\n      iszero\n      tag_79\n      jumpi\n      0x00\n      dup1\n      revert\n    tag_79:\n      pop\n      tag_80\n      tag_81\n      jump\t// in\n    tag_80:\n      mload(0x40)\n      tag_82\n      swap9\n      swap8\n      swap7\n      swap6\n      swap5\n      swap4\n      swap3\n      swap2\n      swap1\n      tag_83\n      jump\t// in\n    tag_82:\n      mload(0x40)\n      dup1\n      swap2\n      sub\n      swap1\n      return\n        /* \"Campaign.sol\":2667:3061  function finalizeRequest(uint index) public restricted {... */\n    tag_23:\n        /* \"Campaign.sol\":1205:1212  manager */\n      0x04\n      0x00\n      swap1\n      sload\n      swap1\n      0x0100\n      exp\n      swap1\n      div\n      0xffffffffffffffffffffffffffffffffffffffff\n      and\n        /* \"Campaign.sol\":1191:1212  msg.sender == manager */\n      0xffffffffffffffffffffffffffffffffffffffff\n      and\n        /* \"Campaign.sol\":1191:1201  msg.sender */\n      caller\n        /* \"Campaign.sol\":1191:1212  msg.sender == manager */\n      0xffffffffffffffffffffffffffffffffffffffff\n      and\n      eq\n        /* \"Campaign.sol\":1183:1252  require(msg.sender == manager, \"Only manager can call this function\") */\n      tag_85\n      jumpi\n      mload(0x40)\n      0x08c379a000000000000000000000000000000000000000000000000000000000\n      dup2\n      mstore\n      0x04\n      add\n      tag_86\n      swap1\n      tag_87\n      jump\t// in\n    tag_86:\n      mload(0x40)\n      dup1\n      swap2\n      sub\n      swap1\n      revert\n    tag_85:\n        /* \"Campaign.sol\":2732:2755  Request storage request */\n      0x00\n        /* \"Campaign.sol\":2758:2766  requests */\n      0x03\n        /* \"Campaign.sol\":2767:2772  index */\n      dup3\n        /* \"Campaign.sol\":2758:2773  requests[index] */\n      dup2\n      sload\n      dup2\n      lt\n      tag_89\n      jumpi\n      tag_90\n      tag_91\n      jump\t// in\n    tag_90:\n    tag_89:\n      swap1\n      0x00\n      mstore\n      keccak256(0x00, 0x20)\n      swap1\n      0x05\n      mul\n      add\n        /* \"Campaign.sol\":2732:2773  Request storage request = requests[index] */\n      swap1\n      pop\n        /* \"Campaign.sol\":2847:2848  2 */\n      0x02\n        /* \"Campaign.sol\":2830:2844  approversCount */\n      sload(0x07)\n        /* \"Campaign.sol\":2830:2848  approversCount / 2 */\n      tag_93\n      swap2\n      swap1\n      tag_94\n      jump\t// in\n    tag_93:\n        /* \"Campaign.sol\":2805:2812  request */\n      dup2\n        /* \"Campaign.sol\":2805:2826  request.approvalCount */\n      0x03\n      add\n      sload\n        /* \"Campaign.sol\":2805:2849  request.approvalCount > (approversCount / 2) */\n      gt\n        /* \"Campaign.sol\":2784:2895  require(... */\n      tag_95\n      jumpi\n      mload(0x40)\n      0x08c379a000000000000000000000000000000000000000000000000000000000\n      dup2\n      mstore\n      0x04\n      add\n      tag_96\n      swap1\n      tag_97\n      jump\t// in\n    tag_96:\n      mload(0x40)\n      dup1\n      swap2\n      sub\n      swap1\n      revert\n    tag_95:\n        /* \"Campaign.sol\":2914:2921  request */\n      dup1\n        /* \"Campaign.sol\":2914:2930  request.complete */\n      0x02\n      add\n      0x14\n      swap1\n      sload\n      swap1\n      0x0100\n      exp\n      swap1\n      div\n      0xff\n      and\n        /* \"Campaign.sol\":2913:2930  !request.complete */\n      iszero\n        /* \"Campaign.sol\":2905:2960  require(!request.complete, \"Request already finalized\") */\n      tag_98\n      jumpi\n      mload(0x40)\n      0x08c379a000000000000000000000000000000000000000000000000000000000\n      dup2\n      mstore\n      0x04\n      add\n      tag_99\n      swap1\n      tag_100\n      jump\t// in\n    tag_99:\n      mload(0x40)\n      dup1\n      swap2\n      sub\n      swap1\n      revert\n    tag_98:\n        /* \"Campaign.sol\":2979:2986  request */\n      dup1\n        /* \"Campaign.sol\":2979:2996  request.recipient */\n      0x02\n      add\n      0x00\n      swap1\n      sload\n      swap1\n      0x0100\n      exp\n      swap1\n      div\n      0xffffffffffffffffffffffffffffffffffffffff\n      and\n        /* \"Campaign.sol\":2971:3006  payable(request.recipient).transfer */\n      0xffffffffffffffffffffffffffffffffffffffff\n      and\n        /* \"Campaign.sol\":2971:3021  payable(request.recipient).transfer(request.value) */\n      0x08fc\n        /* \"Campaign.sol\":3007:3014  request */\n      dup3\n        /* \"Campaign.sol\":3007:3020  request.value */\n      0x01\n      add\n      sload\n        /* \"Campaign.sol\":2971:3021  payable(request.recipient).transfer(request.value) */\n      swap1\n      dup2\n      iszero\n      mul\n      swap1\n      mload(0x40)\n      0x00\n      mload(0x40)\n      dup1\n      dup4\n      sub\n      dup2\n      dup6\n      dup9\n      dup9\n      call\n      swap4\n      pop\n      pop\n      pop\n      pop\n      iszero\n      dup1\n      iszero\n      tag_102\n      jumpi\n      returndatasize\n      0x00\n      dup1\n      returndatacopy\n      revert(0x00, returndatasize)\n    tag_102:\n      pop\n        /* \"Campaign.sol\":3050:3054  true */\n      0x01\n        /* \"Campaign.sol\":3031:3038  request */\n      dup2\n        /* \"Campaign.sol\":3031:3047  request.complete */\n      0x02\n      add\n      0x14\n        /* \"Campaign.sol\":3031:3054  request.complete = true */\n      0x0100\n      exp\n      dup2\n      sload\n      dup2\n      0xff\n      mul\n      not\n      and\n      swap1\n      dup4\n      iszero\n      iszero\n      mul\n      or\n      swap1\n      sstore\n      pop\n        /* \"Campaign.sol\":2722:3061  {... */\n      pop\n        /* \"Campaign.sol\":2667:3061  function finalizeRequest(uint index) public restricted {... */\n      pop\n      jump\t// out\n        /* \"Campaign.sol\":897:915  string public name */\n    tag_26:\n      0x00\n      dup1\n      sload\n      tag_103\n      swap1\n      tag_104\n      jump\t// in\n    tag_103:\n      dup1\n      0x1f\n      add\n      0x20\n      dup1\n      swap2\n      div\n      mul\n      0x20\n      add\n      mload(0x40)\n      swap1\n      dup2\n      add\n      0x40\n      mstore\n      dup1\n      swap3\n      swap2\n      swap1\n      dup2\n      dup2\n      mstore\n      0x20\n      add\n      dup3\n      dup1\n      sload\n      tag_105\n      swap1\n      tag_104\n      jump\t// in\n    tag_105:\n      dup1\n      iszero\n      tag_106\n      jumpi\n      dup1\n      0x1f\n      lt\n      tag_107\n      jumpi\n      0x0100\n      dup1\n      dup4\n      sload\n      div\n      mul\n      dup4\n      mstore\n      swap2\n      0x20\n      add\n      swap2\n      jump(tag_106)\n    tag_107:\n      dup3\n      add\n      swap2\n      swap1\n      0x00\n      mstore\n      keccak256(0x00, 0x20)\n      swap1\n    tag_108:\n      dup2\n      sload\n      dup2\n      mstore\n      swap1\n      0x01\n      add\n      swap1\n      0x20\n      add\n      dup1\n      dup4\n      gt\n      tag_108\n      jumpi\n      dup3\n      swap1\n      sub\n      0x1f\n      and\n      dup3\n      add\n      swap2\n    tag_106:\n      pop\n      pop\n      pop\n      pop\n      pop\n      dup2\n      jump\t// out\n        /* \"Campaign.sol\":1071:1112  mapping(address => bool) public approvers */\n    tag_33:\n      mstore(0x20, 0x06)\n      dup1\n      0x00\n      mstore\n      keccak256(0x00, 0x40)\n      0x00\n      swap2\n      pop\n      sload\n      swap1\n      0x0100\n      exp\n      swap1\n      div\n      0xff\n      and\n      dup2\n      jump\t// out\n        /* \"Campaign.sol\":3568:3662  function getRequestsCount() public view returns (uint) {... */\n    tag_38:\n        /* \"Campaign.sol\":3617:3621  uint */\n      0x00\n        /* \"Campaign.sol\":3640:3648  requests */\n      0x03\n        /* \"Campaign.sol\":3640:3655  requests.length */\n      dup1\n      sload\n      swap1\n      pop\n        /* \"Campaign.sol\":3633:3655  return requests.length */\n      swap1\n      pop\n        /* \"Campaign.sol\":3568:3662  function getRequestsCount() public view returns (uint) {... */\n      swap1\n      jump\t// out\n        /* \"Campaign.sol\":952:969  string public img */\n    tag_43:\n      0x02\n      dup1\n      sload\n      tag_110\n      swap1\n      tag_104\n      jump\t// in\n    tag_110:\n      dup1\n      0x1f\n      add\n      0x20\n      dup1\n      swap2\n      div\n      mul\n      0x20\n      add\n      mload(0x40)\n      swap1\n      dup2\n      add\n      0x40\n      mstore\n      dup1\n      swap3\n      swap2\n      swap1\n      dup2\n      dup2\n      mstore\n      0x20\n      add\n      dup3\n      dup1\n      sload\n      tag_111\n      swap1\n      tag_104\n      jump\t// in\n    tag_111:\n      dup1\n      iszero\n      tag_112\n      jumpi\n      dup1\n      0x1f\n      lt\n      tag_113\n      jumpi\n      0x0100\n      dup1\n      dup4\n      sload\n      div\n      mul\n      dup4\n      mstore\n      swap2\n      0x20\n      add\n      swap2\n      jump(tag_112)\n    tag_113:\n      dup3\n      add\n      swap2\n      swap1\n      0x00\n      mstore\n      keccak256(0x00, 0x20)\n      swap1\n    tag_114:\n      dup2\n      sload\n      dup2\n      mstore\n      swap1\n      0x01\n      add\n      swap1\n      0x20\n      add\n      dup1\n      dup4\n      gt\n      tag_114\n      jumpi\n      dup3\n      swap1\n      sub\n      0x1f\n      and\n      dup3\n      add\n      swap2\n    tag_112:\n      pop\n      pop\n      pop\n      pop\n      pop\n      dup2\n      jump\t// out\n        /* \"Campaign.sol\":1006:1028  address public manager */\n    tag_47:\n      0x04\n      0x00\n      swap1\n      sload\n      swap1\n      0x0100\n      exp\n      swap1\n      div\n      0xffffffffffffffffffffffffffffffffffffffff\n      and\n      dup2\n      jump\t// out\n        /* \"Campaign.sol\":921:946  string public description */\n    tag_52:\n      0x01\n      dup1\n      sload\n      tag_115\n      swap1\n      tag_104\n      jump\t// in\n    tag_115:\n      dup1\n      0x1f\n      add\n      0x20\n      dup1\n      swap2\n      div\n      mul\n      0x20\n      add\n      mload(0x40)\n      swap1\n      dup2\n      add\n      0x40\n      mstore\n      dup1\n      swap3\n      swap2\n      swap1\n      dup2\n      dup2\n      mstore\n      0x20\n      add\n      dup3\n      dup1\n      sload\n      tag_116\n      swap1\n      tag_104\n      jump\t// in\n    tag_116:\n      dup1\n      iszero\n      tag_117\n      jumpi\n      dup1\n      0x1f\n      lt\n      tag_118\n      jumpi\n      0x0100\n      dup1\n      dup4\n      sload\n      div\n      mul\n      dup4\n      mstore\n      swap2\n      0x20\n      add\n      swap2\n      jump(tag_117)\n    tag_118:\n      dup3\n      add\n      swap2\n      swap1\n      0x00\n      mstore\n      keccak256(0x00, 0x20)\n      swap1\n    tag_119:\n      dup2\n      sload\n      dup2\n      mstore\n      swap1\n      0x01\n      add\n      swap1\n      0x20\n      add\n      dup1\n      dup4\n      gt\n      tag_119\n      jumpi\n      dup3\n      swap1\n      sub\n      0x1f\n      and\n      dup3\n      add\n      swap2\n    tag_117:\n      pop\n      pop\n      pop\n      pop\n      pop\n      dup2\n      jump\t// out\n        /* \"Campaign.sol\":975:1000  Request[] public requests */\n    tag_57:\n      0x03\n      dup2\n      dup2\n      sload\n      dup2\n      lt\n      tag_120\n      jumpi\n      0x00\n      dup1\n      revert\n    tag_120:\n      swap1\n      0x00\n      mstore\n      keccak256(0x00, 0x20)\n      swap1\n      0x05\n      mul\n      add\n      0x00\n      swap2\n      pop\n      swap1\n      pop\n      dup1\n      0x00\n      add\n      dup1\n      sload\n      tag_122\n      swap1\n      tag_104\n      jump\t// in\n    tag_122:\n      dup1\n      0x1f\n      add\n      0x20\n      dup1\n      swap2\n      div\n      mul\n      0x20\n      add\n      mload(0x40)\n      swap1\n      dup2\n      add\n      0x40\n      mstore\n      dup1\n      swap3\n      swap2\n      swap1\n      dup2\n      dup2\n      mstore\n      0x20\n      add\n      dup3\n      dup1\n      sload\n      tag_123\n      swap1\n      tag_104\n      jump\t// in\n    tag_123:\n      dup1\n      iszero\n      tag_124\n      jumpi\n      dup1\n      0x1f\n      lt\n      tag_125\n      jumpi\n      0x0100\n      dup1\n      dup4\n      sload\n      div\n      mul\n      dup4\n      mstore\n      swap2\n      0x20\n      add\n      swap2\n      jump(tag_124)\n    tag_125:\n      dup3\n      add\n      swap2\n      swap1\n      0x00\n      mstore\n      keccak256(0x00, 0x20)\n      swap1\n    tag_126:\n      dup2\n      sload\n      dup2\n      mstore\n      swap1\n      0x01\n      add\n      swap1\n      0x20\n      add\n      dup1\n      dup4\n      gt\n      tag_126\n      jumpi\n      dup3\n      swap1\n      sub\n      0x1f\n      and\n      dup3\n      add\n      swap2\n    tag_124:\n      pop\n      pop\n      pop\n      pop\n      pop\n      swap1\n      dup1\n      0x01\n      add\n      sload\n      swap1\n      dup1\n      0x02\n      add\n      0x00\n      swap1\n      sload\n      swap1\n      0x0100\n      exp\n      swap1\n      div\n      0xffffffffffffffffffffffffffffffffffffffff\n      and\n      swap1\n      dup1\n      0x02\n      add\n      0x14\n      swap1\n      sload\n      swap1\n      0x0100\n      exp\n      swap1\n      div\n      0xff\n      and\n      swap1\n      dup1\n      0x03\n      add\n      sload\n      swap1\n      pop\n      dup6\n      jump\t// out\n        /* \"Campaign.sol\":1118:1144  uint public approversCount */\n    tag_62:\n      sload(0x07)\n      dup2\n      jump\t// out\n        /* \"Campaign.sol\":1925:2326  function createRequest(... */\n    tag_68:\n        /* \"Campaign.sol\":1205:1212  manager */\n      0x04\n      0x00\n      swap1\n      sload\n      swap1\n      0x0100\n      exp\n      swap1\n      div\n      0xffffffffffffffffffffffffffffffffffffffff\n      and\n        /* \"Campaign.sol\":1191:1212  msg.sender == manager */\n      0xffffffffffffffffffffffffffffffffffffffff\n      and\n        /* \"Campaign.sol\":1191:1201  msg.sender */\n      caller\n        /* \"Campaign.sol\":1191:1212  msg.sender == manager */\n      0xffffffffffffffffffffffffffffffffffffffff\n      and\n      eq\n        /* \"Campaign.sol\":1183:1252  require(msg.sender == manager, \"Only manager can call this function\") */\n      tag_128\n      jumpi\n      mload(0x40)\n      0x08c379a000000000000000000000000000000000000000000000000000000000\n      dup2\n      mstore\n      0x04\n      add\n      tag_129\n      swap1\n      tag_87\n      jump\t// in\n    tag_129:\n      mload(0x40)\n      dup1\n      swap2\n      sub\n      swap1\n      revert\n    tag_128:\n        /* \"Campaign.sol\":2071:2097  Request storage newRequest */\n      0x00\n        /* \"Campaign.sol\":2100:2108  requests */\n      0x03\n        /* \"Campaign.sol\":2100:2115  requests.push() */\n      0x01\n      dup2\n      0x01\n      dup2\n      sload\n      add\n      dup1\n      dup3\n      sstore\n      dup1\n      swap2\n      pop\n      pop\n      sub\n      swap1\n      0x00\n      mstore\n      keccak256(0x00, 0x20)\n      swap1\n      0x05\n      mul\n      add\n        /* \"Campaign.sol\":2071:2115  Request storage newRequest = requests.push() */\n      swap1\n      pop\n        /* \"Campaign.sol\":2150:2168  requestDescription */\n      dup4\n        /* \"Campaign.sol\":2125:2135  newRequest */\n      dup2\n        /* \"Campaign.sol\":2125:2147  newRequest.description */\n      0x00\n      add\n        /* \"Campaign.sol\":2125:2168  newRequest.description = requestDescription */\n      swap1\n      dup1\n      mload\n      swap1\n      0x20\n      add\n      swap1\n      tag_132\n      swap3\n      swap2\n      swap1\n      tag_133\n      jump\t// in\n    tag_132:\n      pop\n        /* \"Campaign.sol\":2197:2202  value */\n      dup3\n        /* \"Campaign.sol\":2178:2188  newRequest */\n      dup2\n        /* \"Campaign.sol\":2178:2194  newRequest.value */\n      0x01\n      add\n        /* \"Campaign.sol\":2178:2202  newRequest.value = value */\n      dup2\n      swap1\n      sstore\n      pop\n        /* \"Campaign.sol\":2235:2244  recipient */\n      dup2\n        /* \"Campaign.sol\":2212:2222  newRequest */\n      dup2\n        /* \"Campaign.sol\":2212:2232  newRequest.recipient */\n      0x02\n      add\n      0x00\n        /* \"Campaign.sol\":2212:2244  newRequest.recipient = recipient */\n      0x0100\n      exp\n      dup2\n      sload\n      dup2\n      0xffffffffffffffffffffffffffffffffffffffff\n      mul\n      not\n      and\n      swap1\n      dup4\n      0xffffffffffffffffffffffffffffffffffffffff\n      and\n      mul\n      or\n      swap1\n      sstore\n      pop\n        /* \"Campaign.sol\":2276:2281  false */\n      0x00\n        /* \"Campaign.sol\":2254:2264  newRequest */\n      dup2\n        /* \"Campaign.sol\":2254:2273  newRequest.complete */\n      0x02\n      add\n      0x14\n        /* \"Campaign.sol\":2254:2281  newRequest.complete = false */\n      0x0100\n      exp\n      dup2\n      sload\n      dup2\n      0xff\n      mul\n      not\n      and\n      swap1\n      dup4\n      iszero\n      iszero\n      mul\n      or\n      swap1\n      sstore\n      pop\n        /* \"Campaign.sol\":2318:2319  0 */\n      0x00\n        /* \"Campaign.sol\":2291:2301  newRequest */\n      dup2\n        /* \"Campaign.sol\":2291:2315  newRequest.approvalCount */\n      0x03\n      add\n        /* \"Campaign.sol\":2291:2319  newRequest.approvalCount = 0 */\n      dup2\n      swap1\n      sstore\n      pop\n        /* \"Campaign.sol\":2061:2326  {... */\n      pop\n        /* \"Campaign.sol\":1925:2326  function createRequest(... */\n      pop\n      pop\n      pop\n      jump\t// out\n        /* \"Campaign.sol\":1034:1065  uint public minimumContribution */\n    tag_71:\n      sload(0x05)\n      dup2\n      jump\t// out\n        /* \"Campaign.sol\":1633:1919  function contribute() public payable {... */\n    tag_74:\n        /* \"Campaign.sol\":1713:1732  minimumContribution */\n      sload(0x05)\n        /* \"Campaign.sol\":1701:1710  msg.value */\n      callvalue\n        /* \"Campaign.sol\":1701:1732  msg.value > minimumContribution */\n      gt\n        /* \"Campaign.sol\":1680:1791  require(... */\n      tag_135\n      jumpi\n      mload(0x40)\n      0x08c379a000000000000000000000000000000000000000000000000000000000\n      dup2\n      mstore\n      0x04\n      add\n      tag_136\n      swap1\n      tag_137\n      jump\t// in\n    tag_136:\n      mload(0x40)\n      dup1\n      swap2\n      sub\n      swap1\n      revert\n    tag_135:\n        /* \"Campaign.sol\":1807:1816  approvers */\n      0x06\n        /* \"Campaign.sol\":1807:1828  approvers[msg.sender] */\n      0x00\n        /* \"Campaign.sol\":1817:1827  msg.sender */\n      caller\n        /* \"Campaign.sol\":1807:1828  approvers[msg.sender] */\n      0xffffffffffffffffffffffffffffffffffffffff\n      and\n      0xffffffffffffffffffffffffffffffffffffffff\n      and\n      dup2\n      mstore\n      0x20\n      add\n      swap1\n      dup2\n      mstore\n      0x20\n      add\n      0x00\n      keccak256\n      0x00\n      swap1\n      sload\n      swap1\n      0x0100\n      exp\n      swap1\n      div\n      0xff\n      and\n        /* \"Campaign.sol\":1802:1913  if (!approvers[msg.sender]) {... */\n      tag_138\n      jumpi\n        /* \"Campaign.sol\":1868:1872  true */\n      0x01\n        /* \"Campaign.sol\":1844:1853  approvers */\n      0x06\n        /* \"Campaign.sol\":1844:1865  approvers[msg.sender] */\n      0x00\n        /* \"Campaign.sol\":1854:1864  msg.sender */\n      caller\n        /* \"Campaign.sol\":1844:1865  approvers[msg.sender] */\n      0xffffffffffffffffffffffffffffffffffffffff\n      and\n      0xffffffffffffffffffffffffffffffffffffffff\n      and\n      dup2\n      mstore\n      0x20\n      add\n      swap1\n      dup2\n      mstore\n      0x20\n      add\n      0x00\n      keccak256\n      0x00\n        /* \"Campaign.sol\":1844:1872  approvers[msg.sender] = true */\n      0x0100\n      exp\n      dup2\n      sload\n      dup2\n      0xff\n      mul\n      not\n      and\n      swap1\n      dup4\n      iszero\n      iszero\n      mul\n      or\n      swap1\n      sstore\n      pop\n        /* \"Campaign.sol\":1886:1900  approversCount */\n      0x07\n      0x00\n        /* \"Campaign.sol\":1886:1902  approversCount++ */\n      dup2\n      sload\n      dup1\n      swap3\n      swap2\n      swap1\n      tag_139\n      swap1\n      tag_140\n      jump\t// in\n    tag_139:\n      swap2\n      swap1\n      pop\n      sstore\n      pop\n        /* \"Campaign.sol\":1802:1913  if (!approvers[msg.sender]) {... */\n    tag_138:\n        /* \"Campaign.sol\":1633:1919  function contribute() public payable {... */\n      jump\t// out\n        /* \"Campaign.sol\":2332:2661  function approveRequest(uint index) public {... */\n    tag_78:\n        /* \"Campaign.sol\":2385:2408  Request storage request */\n      0x00\n        /* \"Campaign.sol\":2411:2419  requests */\n      0x03\n        /* \"Campaign.sol\":2420:2425  index */\n      dup3\n        /* \"Campaign.sol\":2411:2426  requests[index] */\n      dup2\n      sload\n      dup2\n      lt\n      tag_142\n      jumpi\n      tag_143\n      tag_91\n      jump\t// in\n    tag_143:\n    tag_142:\n      swap1\n      0x00\n      mstore\n      keccak256(0x00, 0x20)\n      swap1\n      0x05\n      mul\n      add\n        /* \"Campaign.sol\":2385:2426  Request storage request = requests[index] */\n      swap1\n      pop\n        /* \"Campaign.sol\":2445:2454  approvers */\n      0x06\n        /* \"Campaign.sol\":2445:2466  approvers[msg.sender] */\n      0x00\n        /* \"Campaign.sol\":2455:2465  msg.sender */\n      caller\n        /* \"Campaign.sol\":2445:2466  approvers[msg.sender] */\n      0xffffffffffffffffffffffffffffffffffffffff\n      and\n      0xffffffffffffffffffffffffffffffffffffffff\n      and\n      dup2\n      mstore\n      0x20\n      add\n      swap1\n      dup2\n      mstore\n      0x20\n      add\n      0x00\n      keccak256\n      0x00\n      swap1\n      sload\n      swap1\n      0x0100\n      exp\n      swap1\n      div\n      0xff\n      and\n        /* \"Campaign.sol\":2437:2497  require(approvers[msg.sender], \"Only approvers can approve\") */\n      tag_145\n      jumpi\n      mload(0x40)\n      0x08c379a000000000000000000000000000000000000000000000000000000000\n      dup2\n      mstore\n      0x04\n      add\n      tag_146\n      swap1\n      tag_147\n      jump\t// in\n    tag_146:\n      mload(0x40)\n      dup1\n      swap2\n      sub\n      swap1\n      revert\n    tag_145:\n        /* \"Campaign.sol\":2516:2523  request */\n      dup1\n        /* \"Campaign.sol\":2516:2533  request.approvals */\n      0x04\n      add\n        /* \"Campaign.sol\":2516:2545  request.approvals[msg.sender] */\n      0x00\n        /* \"Campaign.sol\":2534:2544  msg.sender */\n      caller\n        /* \"Campaign.sol\":2516:2545  request.approvals[msg.sender] */\n      0xffffffffffffffffffffffffffffffffffffffff\n      and\n      0xffffffffffffffffffffffffffffffffffffffff\n      and\n      dup2\n      mstore\n      0x20\n      add\n      swap1\n      dup2\n      mstore\n      0x20\n      add\n      0x00\n      keccak256\n      0x00\n      swap1\n      sload\n      swap1\n      0x0100\n      exp\n      swap1\n      div\n      0xff\n      and\n        /* \"Campaign.sol\":2515:2545  !request.approvals[msg.sender] */\n      iszero\n        /* \"Campaign.sol\":2507:2574  require(!request.approvals[msg.sender], \"Request already approved\") */\n      tag_148\n      jumpi\n      mload(0x40)\n      0x08c379a000000000000000000000000000000000000000000000000000000000\n      dup2\n      mstore\n      0x04\n      add\n      tag_149\n      swap1\n      tag_150\n      jump\t// in\n    tag_149:\n      mload(0x40)\n      dup1\n      swap2\n      sub\n      swap1\n      revert\n    tag_148:\n        /* \"Campaign.sol\":2617:2621  true */\n      0x01\n        /* \"Campaign.sol\":2585:2592  request */\n      dup2\n        /* \"Campaign.sol\":2585:2602  request.approvals */\n      0x04\n      add\n        /* \"Campaign.sol\":2585:2614  request.approvals[msg.sender] */\n      0x00\n        /* \"Campaign.sol\":2603:2613  msg.sender */\n      caller\n        /* \"Campaign.sol\":2585:2614  request.approvals[msg.sender] */\n      0xffffffffffffffffffffffffffffffffffffffff\n      and\n      0xffffffffffffffffffffffffffffffffffffffff\n      and\n      dup2\n      mstore\n      0x20\n      add\n      swap1\n      dup2\n      mstore\n      0x20\n      add\n      0x00\n      keccak256\n      0x00\n        /* \"Campaign.sol\":2585:2621  request.approvals[msg.sender] = true */\n      0x0100\n      exp\n      dup2\n      sload\n      dup2\n      0xff\n      mul\n      not\n      and\n      swap1\n      dup4\n      iszero\n      iszero\n      mul\n      or\n      swap1\n      sstore\n      pop\n        /* \"Campaign.sol\":2631:2638  request */\n      dup1\n        /* \"Campaign.sol\":2631:2652  request.approvalCount */\n      0x03\n      add\n      0x00\n        /* \"Campaign.sol\":2631:2654  request.approvalCount++ */\n      dup2\n      sload\n      dup1\n      swap3\n      swap2\n      swap1\n      tag_151\n      swap1\n      tag_140\n      jump\t// in\n    tag_151:\n      swap2\n      swap1\n      pop\n      sstore\n      pop\n        /* \"Campaign.sol\":2375:2661  {... */\n      pop\n        /* \"Campaign.sol\":2332:2661  function approveRequest(uint index) public {... */\n      pop\n      jump\t// out\n        /* \"Campaign.sol\":3067:3562  function getDetails()... */\n    tag_81:\n        /* \"Campaign.sol\":3147:3160  string memory */\n      0x60\n        /* \"Campaign.sol\":3174:3187  string memory */\n      dup1\n        /* \"Campaign.sol\":3201:3214  string memory */\n      0x60\n        /* \"Campaign.sol\":3228:3232  uint */\n      0x00\n        /* \"Campaign.sol\":3246:3250  uint */\n      dup1\n        /* \"Campaign.sol\":3264:3268  uint */\n      0x00\n        /* \"Campaign.sol\":3282:3286  uint */\n      dup1\n        /* \"Campaign.sol\":3300:3307  address */\n      0x00\n        /* \"Campaign.sol\":3353:3357  name */\n      dup1\n        /* \"Campaign.sol\":3371:3382  description */\n      0x01\n        /* \"Campaign.sol\":3396:3399  img */\n      0x02\n        /* \"Campaign.sol\":3413:3432  minimumContribution */\n      sload(0x05)\n        /* \"Campaign.sol\":3446:3467  address(this).balance */\n      selfbalance\n        /* \"Campaign.sol\":3481:3489  requests */\n      0x03\n        /* \"Campaign.sol\":3481:3496  requests.length */\n      dup1\n      sload\n      swap1\n      pop\n        /* \"Campaign.sol\":3510:3524  approversCount */\n      sload(0x07)\n        /* \"Campaign.sol\":3538:3545  manager */\n      0x04\n      0x00\n      swap1\n      sload\n      swap1\n      0x0100\n      exp\n      swap1\n      div\n      0xffffffffffffffffffffffffffffffffffffffff\n      and\n        /* \"Campaign.sol\":3332:3555  return (... */\n      dup8\n      dup1\n      sload\n      tag_153\n      swap1\n      tag_104\n      jump\t// in\n    tag_153:\n      dup1\n      0x1f\n      add\n      0x20\n      dup1\n      swap2\n      div\n      mul\n      0x20\n      add\n      mload(0x40)\n      swap1\n      dup2\n      add\n      0x40\n      mstore\n      dup1\n      swap3\n      swap2\n      swap1\n      dup2\n      dup2\n      mstore\n      0x20\n      add\n      dup3\n      dup1\n      sload\n      tag_154\n      swap1\n      tag_104\n      jump\t// in\n    tag_154:\n      dup1\n      iszero\n      tag_155\n      jumpi\n      dup1\n      0x1f\n      lt\n      tag_156\n      jumpi\n      0x0100\n      dup1\n      dup4\n      sload\n      div\n      mul\n      dup4\n      mstore\n      swap2\n      0x20\n      add\n      swap2\n      jump(tag_155)\n    tag_156:\n      dup3\n      add\n      swap2\n      swap1\n      0x00\n      mstore\n      keccak256(0x00, 0x20)\n      swap1\n    tag_157:\n      dup2\n      sload\n      dup2\n      mstore\n      swap1\n      0x01\n      add\n      swap1\n      0x20\n      add\n      dup1\n      dup4\n      gt\n      tag_157\n      jumpi\n      dup3\n      swap1\n      sub\n      0x1f\n      and\n      dup3\n      add\n      swap2\n    tag_155:\n      pop\n      pop\n      pop\n      pop\n      pop\n      swap8\n      pop\n      dup7\n      dup1\n      sload\n      tag_158\n      swap1\n      tag_104\n      jump\t// in\n    tag_158:\n      dup1\n      0x1f\n      add\n      0x20\n      dup1\n      swap2\n      div\n      mul\n      0x20\n      add\n      mload(0x40)\n      swap1\n      dup2\n      add\n      0x40\n      mstore\n      dup1\n      swap3\n      swap2\n      swap1\n      dup2\n      dup2\n      mstore\n      0x20\n      add\n      dup3\n      dup1\n      sload\n      tag_159\n      swap1\n      tag_104\n      jump\t// in\n    tag_159:\n      dup1\n      iszero\n      tag_160\n      jumpi\n      dup1\n      0x1f\n      lt\n      tag_161\n      jumpi\n      0x0100\n      dup1\n      dup4\n      sload\n      div\n      mul\n      dup4\n      mstore\n      swap2\n      0x20\n      add\n      swap2\n      jump(tag_160)\n    tag_161:\n      dup3\n      add\n      swap2\n      swap1\n      0x00\n      mstore\n      keccak256(0x00, 0x20)\n      swap1\n    tag_162:\n      dup2\n      sload\n      dup2\n      mstore\n      swap1\n      0x01\n      add\n      swap1\n      0x20\n      add\n      dup1\n      dup4\n      gt\n      tag_162\n      jumpi\n      dup3\n      swap1\n      sub\n      0x1f\n      and\n      dup3\n      add\n      swap2\n    tag_160:\n      pop\n      pop\n      pop\n      pop\n      pop\n      swap7\n      pop\n      dup6\n      dup1\n      sload\n      tag_163\n      swap1\n      tag_104\n      jump\t// in\n    tag_163:\n      dup1\n      0x1f\n      add\n      0x20\n      dup1\n      swap2\n      div\n      mul\n      0x20\n      add\n      mload(0x40)\n      swap1\n      dup2\n      add\n      0x40\n      mstore\n      dup1\n      swap3\n      swap2\n      swap1\n      dup2\n      dup2\n      mstore\n      0x20\n      add\n      dup3\n      dup1\n      sload\n      tag_164\n      swap1\n      tag_104\n      jump\t// in\n    tag_164:\n      dup1\n      iszero\n      tag_165\n      jumpi\n      dup1\n      0x1f\n      lt\n      tag_166\n      jumpi\n      0x0100\n      dup1\n      dup4\n      sload\n      div\n      mul\n      dup4\n      mstore\n      swap2\n      0x20\n      add\n      swap2\n      jump(tag_165)\n    tag_166:\n      dup3\n      add\n      swap2\n      swap1\n      0x00\n      mstore\n      keccak256(0x00, 0x20)\n      swap1\n    tag_167:\n      dup2\n      sload\n      dup2\n      mstore\n      swap1\n      0x01\n      add\n      swap1\n      0x20\n      add\n      dup1\n      dup4\n      gt\n      tag_167\n      jumpi\n      dup3\n      swap1\n      sub\n      0x1f\n      and\n      dup3\n      add\n      swap2\n    tag_165:\n      pop\n      pop\n      pop\n      pop\n      pop\n      swap6\n      pop\n      swap8\n      pop\n      swap8\n      pop\n      swap8\n      pop\n      swap8\n      pop\n      swap8\n      pop\n      swap8\n      pop\n      swap8\n      pop\n      swap8\n      pop\n        /* \"Campaign.sol\":3067:3562  function getDetails()... */\n      swap1\n      swap2\n      swap3\n      swap4\n      swap5\n      swap6\n      swap7\n      swap8\n      jump\t// out\n    tag_133:\n      dup3\n      dup1\n      sload\n      tag_168\n      swap1\n      tag_104\n      jump\t// in\n    tag_168:\n      swap1\n      0x00\n      mstore\n      keccak256(0x00, 0x20)\n      swap1\n      0x1f\n      add\n      0x20\n      swap1\n      div\n      dup2\n      add\n      swap3\n      dup3\n      tag_170\n      jumpi\n      0x00\n      dup6\n      sstore\n      jump(tag_169)\n    tag_170:\n      dup3\n      0x1f\n      lt\n      tag_171\n      jumpi\n      dup1\n      mload\n      not(0xff)\n      and\n      dup4\n      dup1\n      add\n      or\n      dup6\n      sstore\n      jump(tag_169)\n    tag_171:\n      dup3\n      dup1\n      add\n      0x01\n      add\n      dup6\n      sstore\n      dup3\n      iszero\n      tag_169\n      jumpi\n      swap2\n      dup3\n      add\n    tag_172:\n      dup3\n      dup2\n      gt\n      iszero\n      tag_173\n      jumpi\n      dup3\n      mload\n      dup3\n      sstore\n      swap2\n      0x20\n      add\n      swap2\n      swap1\n      0x01\n      add\n      swap1\n      jump(tag_172)\n    tag_173:\n    tag_169:\n      pop\n      swap1\n      pop\n      tag_174\n      swap2\n      swap1\n      tag_175\n      jump\t// in\n    tag_174:\n      pop\n      swap1\n      jump\t// out\n    tag_175:\n    tag_176:\n      dup1\n      dup3\n      gt\n      iszero\n      tag_177\n      jumpi\n      0x00\n      dup2\n      0x00\n      swap1\n      sstore\n      pop\n      0x01\n      add\n      jump(tag_176)\n    tag_177:\n      pop\n      swap1\n      jump\t// out\n        /* \"#utility.yul\":7:82   */\n    tag_178:\n        /* \"#utility.yul\":40:46   */\n      0x00\n        /* \"#utility.yul\":73:75   */\n      0x40\n        /* \"#utility.yul\":67:76   */\n      mload\n        /* \"#utility.yul\":57:76   */\n      swap1\n      pop\n        /* \"#utility.yul\":7:82   */\n      swap1\n      jump\t// out\n        /* \"#utility.yul\":88:205   */\n    tag_179:\n        /* \"#utility.yul\":197:198   */\n      0x00\n        /* \"#utility.yul\":194:195   */\n      dup1\n        /* \"#utility.yul\":187:199   */\n      revert\n        /* \"#utility.yul\":211:328   */\n    tag_180:\n        /* \"#utility.yul\":320:321   */\n      0x00\n        /* \"#utility.yul\":317:318   */\n      dup1\n        /* \"#utility.yul\":310:322   */\n      revert\n        /* \"#utility.yul\":334:411   */\n    tag_181:\n        /* \"#utility.yul\":371:378   */\n      0x00\n        /* \"#utility.yul\":400:405   */\n      dup2\n        /* \"#utility.yul\":389:405   */\n      swap1\n      pop\n        /* \"#utility.yul\":334:411   */\n      swap2\n      swap1\n      pop\n      jump\t// out\n        /* \"#utility.yul\":417:539   */\n    tag_182:\n        /* \"#utility.yul\":490:514   */\n      tag_227\n        /* \"#utility.yul\":508:513   */\n      dup2\n        /* \"#utility.yul\":490:514   */\n      tag_181\n      jump\t// in\n    tag_227:\n        /* \"#utility.yul\":483:488   */\n      dup2\n        /* \"#utility.yul\":480:515   */\n      eq\n        /* \"#utility.yul\":470:533   */\n      tag_228\n      jumpi\n        /* \"#utility.yul\":529:530   */\n      0x00\n        /* \"#utility.yul\":526:527   */\n      dup1\n        /* \"#utility.yul\":519:531   */\n      revert\n        /* \"#utility.yul\":470:533   */\n    tag_228:\n        /* \"#utility.yul\":417:539   */\n      pop\n      jump\t// out\n        /* \"#utility.yul\":545:684   */\n    tag_183:\n        /* \"#utility.yul\":591:596   */\n      0x00\n        /* \"#utility.yul\":629:635   */\n      dup2\n        /* \"#utility.yul\":616:636   */\n      calldataload\n        /* \"#utility.yul\":607:636   */\n      swap1\n      pop\n        /* \"#utility.yul\":645:678   */\n      tag_230\n        /* \"#utility.yul\":672:677   */\n      dup2\n        /* \"#utility.yul\":645:678   */\n      tag_182\n      jump\t// in\n    tag_230:\n        /* \"#utility.yul\":545:684   */\n      swap3\n      swap2\n      pop\n      pop\n      jump\t// out\n        /* \"#utility.yul\":690:1019   */\n    tag_22:\n        /* \"#utility.yul\":749:755   */\n      0x00\n        /* \"#utility.yul\":798:800   */\n      0x20\n        /* \"#utility.yul\":786:795   */\n      dup3\n        /* \"#utility.yul\":777:784   */\n      dup5\n        /* \"#utility.yul\":773:796   */\n      sub\n        /* \"#utility.yul\":769:801   */\n      slt\n        /* \"#utility.yul\":766:885   */\n      iszero\n      tag_232\n      jumpi\n        /* \"#utility.yul\":804:883   */\n      tag_233\n      tag_179\n      jump\t// in\n    tag_233:\n        /* \"#utility.yul\":766:885   */\n    tag_232:\n        /* \"#utility.yul\":924:925   */\n      0x00\n        /* \"#utility.yul\":949:1002   */\n      tag_234\n        /* \"#utility.yul\":994:1001   */\n      dup5\n        /* \"#utility.yul\":985:991   */\n      dup3\n        /* \"#utility.yul\":974:983   */\n      dup6\n        /* \"#utility.yul\":970:992   */\n      add\n        /* \"#utility.yul\":949:1002   */\n      tag_183\n      jump\t// in\n    tag_234:\n        /* \"#utility.yul\":939:1002   */\n      swap2\n      pop\n        /* \"#utility.yul\":895:1012   */\n      pop\n        /* \"#utility.yul\":690:1019   */\n      swap3\n      swap2\n      pop\n      pop\n      jump\t// out\n        /* \"#utility.yul\":1025:1124   */\n    tag_184:\n        /* \"#utility.yul\":1077:1083   */\n      0x00\n        /* \"#utility.yul\":1111:1116   */\n      dup2\n        /* \"#utility.yul\":1105:1117   */\n      mload\n        /* \"#utility.yul\":1095:1117   */\n      swap1\n      pop\n        /* \"#utility.yul\":1025:1124   */\n      swap2\n      swap1\n      pop\n      jump\t// out\n        /* \"#utility.yul\":1130:1299   */\n    tag_185:\n        /* \"#utility.yul\":1214:1225   */\n      0x00\n        /* \"#utility.yul\":1248:1254   */\n      dup3\n        /* \"#utility.yul\":1243:1246   */\n      dup3\n        /* \"#utility.yul\":1236:1255   */\n      mstore\n        /* \"#utility.yul\":1288:1292   */\n      0x20\n        /* \"#utility.yul\":1283:1286   */\n      dup3\n        /* \"#utility.yul\":1279:1293   */\n      add\n        /* \"#utility.yul\":1264:1293   */\n      swap1\n      pop\n        /* \"#utility.yul\":1130:1299   */\n      swap3\n      swap2\n      pop\n      pop\n      jump\t// out\n        /* \"#utility.yul\":1305:1612   */\n    tag_186:\n        /* \"#utility.yul\":1373:1374   */\n      0x00\n        /* \"#utility.yul\":1383:1496   */\n    tag_238:\n        /* \"#utility.yul\":1397:1403   */\n      dup4\n        /* \"#utility.yul\":1394:1395   */\n      dup2\n        /* \"#utility.yul\":1391:1404   */\n      lt\n        /* \"#utility.yul\":1383:1496   */\n      iszero\n      tag_240\n      jumpi\n        /* \"#utility.yul\":1482:1483   */\n      dup1\n        /* \"#utility.yul\":1477:1480   */\n      dup3\n        /* \"#utility.yul\":1473:1484   */\n      add\n        /* \"#utility.yul\":1467:1485   */\n      mload\n        /* \"#utility.yul\":1463:1464   */\n      dup2\n        /* \"#utility.yul\":1458:1461   */\n      dup5\n        /* \"#utility.yul\":1454:1465   */\n      add\n        /* \"#utility.yul\":1447:1486   */\n      mstore\n        /* \"#utility.yul\":1419:1421   */\n      0x20\n        /* \"#utility.yul\":1416:1417   */\n      dup2\n        /* \"#utility.yul\":1412:1422   */\n      add\n        /* \"#utility.yul\":1407:1422   */\n      swap1\n      pop\n        /* \"#utility.yul\":1383:1496   */\n      jump(tag_238)\n    tag_240:\n        /* \"#utility.yul\":1514:1520   */\n      dup4\n        /* \"#utility.yul\":1511:1512   */\n      dup2\n        /* \"#utility.yul\":1508:1521   */\n      gt\n        /* \"#utility.yul\":1505:1606   */\n      iszero\n      tag_241\n      jumpi\n        /* \"#utility.yul\":1594:1595   */\n      0x00\n        /* \"#utility.yul\":1585:1591   */\n      dup5\n        /* \"#utility.yul\":1580:1583   */\n      dup5\n        /* \"#utility.yul\":1576:1592   */\n      add\n        /* \"#utility.yul\":1569:1596   */\n      mstore\n        /* \"#utility.yul\":1505:1606   */\n    tag_241:\n        /* \"#utility.yul\":1354:1612   */\n      pop\n        /* \"#utility.yul\":1305:1612   */\n      pop\n      pop\n      pop\n      jump\t// out\n        /* \"#utility.yul\":1618:1720   */\n    tag_187:\n        /* \"#utility.yul\":1659:1665   */\n      0x00\n        /* \"#utility.yul\":1710:1712   */\n      0x1f\n        /* \"#utility.yul\":1706:1713   */\n      not\n        /* \"#utility.yul\":1701:1703   */\n      0x1f\n        /* \"#utility.yul\":1694:1699   */\n      dup4\n        /* \"#utility.yul\":1690:1704   */\n      add\n        /* \"#utility.yul\":1686:1714   */\n      and\n        /* \"#utility.yul\":1676:1714   */\n      swap1\n      pop\n        /* \"#utility.yul\":1618:1720   */\n      swap2\n      swap1\n      pop\n      jump\t// out\n        /* \"#utility.yul\":1726:2090   */\n    tag_188:\n        /* \"#utility.yul\":1814:1817   */\n      0x00\n        /* \"#utility.yul\":1842:1881   */\n      tag_244\n        /* \"#utility.yul\":1875:1880   */\n      dup3\n        /* \"#utility.yul\":1842:1881   */\n      tag_184\n      jump\t// in\n    tag_244:\n        /* \"#utility.yul\":1897:1968   */\n      tag_245\n        /* \"#utility.yul\":1961:1967   */\n      dup2\n        /* \"#utility.yul\":1956:1959   */\n      dup6\n        /* \"#utility.yul\":1897:1968   */\n      tag_185\n      jump\t// in\n    tag_245:\n        /* \"#utility.yul\":1890:1968   */\n      swap4\n      pop\n        /* \"#utility.yul\":1977:2029   */\n      tag_246\n        /* \"#utility.yul\":2022:2028   */\n      dup2\n        /* \"#utility.yul\":2017:2020   */\n      dup6\n        /* \"#utility.yul\":2010:2014   */\n      0x20\n        /* \"#utility.yul\":2003:2008   */\n      dup7\n        /* \"#utility.yul\":1999:2015   */\n      add\n        /* \"#utility.yul\":1977:2029   */\n      tag_186\n      jump\t// in\n    tag_246:\n        /* \"#utility.yul\":2054:2083   */\n      tag_247\n        /* \"#utility.yul\":2076:2082   */\n      dup2\n        /* \"#utility.yul\":2054:2083   */\n      tag_187\n      jump\t// in\n    tag_247:\n        /* \"#utility.yul\":2049:2052   */\n      dup5\n        /* \"#utility.yul\":2045:2084   */\n      add\n        /* \"#utility.yul\":2038:2084   */\n      swap2\n      pop\n        /* \"#utility.yul\":1818:2090   */\n      pop\n        /* \"#utility.yul\":1726:2090   */\n      swap3\n      swap2\n      pop\n      pop\n      jump\t// out\n        /* \"#utility.yul\":2096:2409   */\n    tag_28:\n        /* \"#utility.yul\":2209:2213   */\n      0x00\n        /* \"#utility.yul\":2247:2249   */\n      0x20\n        /* \"#utility.yul\":2236:2245   */\n      dup3\n        /* \"#utility.yul\":2232:2250   */\n      add\n        /* \"#utility.yul\":2224:2250   */\n      swap1\n      pop\n        /* \"#utility.yul\":2296:2305   */\n      dup2\n        /* \"#utility.yul\":2290:2294   */\n      dup2\n        /* \"#utility.yul\":2286:2306   */\n      sub\n        /* \"#utility.yul\":2282:2283   */\n      0x00\n        /* \"#utility.yul\":2271:2280   */\n      dup4\n        /* \"#utility.yul\":2267:2284   */\n      add\n        /* \"#utility.yul\":2260:2307   */\n      mstore\n        /* \"#utility.yul\":2324:2402   */\n      tag_249\n        /* \"#utility.yul\":2397:2401   */\n      dup2\n        /* \"#utility.yul\":2388:2394   */\n      dup5\n        /* \"#utility.yul\":2324:2402   */\n      tag_188\n      jump\t// in\n    tag_249:\n        /* \"#utility.yul\":2316:2402   */\n      swap1\n      pop\n        /* \"#utility.yul\":2096:2409   */\n      swap3\n      swap2\n      pop\n      pop\n      jump\t// out\n        /* \"#utility.yul\":2415:2541   */\n    tag_189:\n        /* \"#utility.yul\":2452:2459   */\n      0x00\n        /* \"#utility.yul\":2492:2534   */\n      0xffffffffffffffffffffffffffffffffffffffff\n        /* \"#utility.yul\":2485:2490   */\n      dup3\n        /* \"#utility.yul\":2481:2535   */\n      and\n        /* \"#utility.yul\":2470:2535   */\n      swap1\n      pop\n        /* \"#utility.yul\":2415:2541   */\n      swap2\n      swap1\n      pop\n      jump\t// out\n        /* \"#utility.yul\":2547:2643   */\n    tag_190:\n        /* \"#utility.yul\":2584:2591   */\n      0x00\n        /* \"#utility.yul\":2613:2637   */\n      tag_252\n        /* \"#utility.yul\":2631:2636   */\n      dup3\n        /* \"#utility.yul\":2613:2637   */\n      tag_189\n      jump\t// in\n    tag_252:\n        /* \"#utility.yul\":2602:2637   */\n      swap1\n      pop\n        /* \"#utility.yul\":2547:2643   */\n      swap2\n      swap1\n      pop\n      jump\t// out\n        /* \"#utility.yul\":2649:2771   */\n    tag_191:\n        /* \"#utility.yul\":2722:2746   */\n      tag_254\n        /* \"#utility.yul\":2740:2745   */\n      dup2\n        /* \"#utility.yul\":2722:2746   */\n      tag_190\n      jump\t// in\n    tag_254:\n        /* \"#utility.yul\":2715:2720   */\n      dup2\n        /* \"#utility.yul\":2712:2747   */\n      eq\n        /* \"#utility.yul\":2702:2765   */\n      tag_255\n      jumpi\n        /* \"#utility.yul\":2761:2762   */\n      0x00\n        /* \"#utility.yul\":2758:2759   */\n      dup1\n        /* \"#utility.yul\":2751:2763   */\n      revert\n        /* \"#utility.yul\":2702:2765   */\n    tag_255:\n        /* \"#utility.yul\":2649:2771   */\n      pop\n      jump\t// out\n        /* \"#utility.yul\":2777:2916   */\n    tag_192:\n        /* \"#utility.yul\":2823:2828   */\n      0x00\n        /* \"#utility.yul\":2861:2867   */\n      dup2\n        /* \"#utility.yul\":2848:2868   */\n      calldataload\n        /* \"#utility.yul\":2839:2868   */\n      swap1\n      pop\n        /* \"#utility.yul\":2877:2910   */\n      tag_257\n        /* \"#utility.yul\":2904:2909   */\n      dup2\n        /* \"#utility.yul\":2877:2910   */\n      tag_191\n      jump\t// in\n    tag_257:\n        /* \"#utility.yul\":2777:2916   */\n      swap3\n      swap2\n      pop\n      pop\n      jump\t// out\n        /* \"#utility.yul\":2922:3251   */\n    tag_32:\n        /* \"#utility.yul\":2981:2987   */\n      0x00\n        /* \"#utility.yul\":3030:3032   */\n      0x20\n        /* \"#utility.yul\":3018:3027   */\n      dup3\n        /* \"#utility.yul\":3009:3016   */\n      dup5\n        /* \"#utility.yul\":3005:3028   */\n      sub\n        /* \"#utility.yul\":3001:3033   */\n      slt\n        /* \"#utility.yul\":2998:3117   */\n      iszero\n      tag_259\n      jumpi\n        /* \"#utility.yul\":3036:3115   */\n      tag_260\n      tag_179\n      jump\t// in\n    tag_260:\n        /* \"#utility.yul\":2998:3117   */\n    tag_259:\n        /* \"#utility.yul\":3156:3157   */\n      0x00\n        /* \"#utility.yul\":3181:3234   */\n      tag_261\n        /* \"#utility.yul\":3226:3233   */\n      dup5\n        /* \"#utility.yul\":3217:3223   */\n      dup3\n        /* \"#utility.yul\":3206:3215   */\n      dup6\n        /* \"#utility.yul\":3202:3224   */\n      add\n        /* \"#utility.yul\":3181:3234   */\n      tag_192\n      jump\t// in\n    tag_261:\n        /* \"#utility.yul\":3171:3234   */\n      swap2\n      pop\n        /* \"#utility.yul\":3127:3244   */\n      pop\n        /* \"#utility.yul\":2922:3251   */\n      swap3\n      swap2\n      pop\n      pop\n      jump\t// out\n        /* \"#utility.yul\":3257:3347   */\n    tag_193:\n        /* \"#utility.yul\":3291:3298   */\n      0x00\n        /* \"#utility.yul\":3334:3339   */\n      dup2\n        /* \"#utility.yul\":3327:3340   */\n      iszero\n        /* \"#utility.yul\":3320:3341   */\n      iszero\n        /* \"#utility.yul\":3309:3341   */\n      swap1\n      pop\n        /* \"#utility.yul\":3257:3347   */\n      swap2\n      swap1\n      pop\n      jump\t// out\n        /* \"#utility.yul\":3353:3462   */\n    tag_194:\n        /* \"#utility.yul\":3434:3455   */\n      tag_264\n        /* \"#utility.yul\":3449:3454   */\n      dup2\n        /* \"#utility.yul\":3434:3455   */\n      tag_193\n      jump\t// in\n    tag_264:\n        /* \"#utility.yul\":3429:3432   */\n      dup3\n        /* \"#utility.yul\":3422:3456   */\n      mstore\n        /* \"#utility.yul\":3353:3462   */\n      pop\n      pop\n      jump\t// out\n        /* \"#utility.yul\":3468:3678   */\n    tag_35:\n        /* \"#utility.yul\":3555:3559   */\n      0x00\n        /* \"#utility.yul\":3593:3595   */\n      0x20\n        /* \"#utility.yul\":3582:3591   */\n      dup3\n        /* \"#utility.yul\":3578:3596   */\n      add\n        /* \"#utility.yul\":3570:3596   */\n      swap1\n      pop\n        /* \"#utility.yul\":3606:3671   */\n      tag_266\n        /* \"#utility.yul\":3668:3669   */\n      0x00\n        /* \"#utility.yul\":3657:3666   */\n      dup4\n        /* \"#utility.yul\":3653:3670   */\n      add\n        /* \"#utility.yul\":3644:3650   */\n      dup5\n        /* \"#utility.yul\":3606:3671   */\n      tag_194\n      jump\t// in\n    tag_266:\n        /* \"#utility.yul\":3468:3678   */\n      swap3\n      swap2\n      pop\n      pop\n      jump\t// out\n        /* \"#utility.yul\":3684:3802   */\n    tag_195:\n        /* \"#utility.yul\":3771:3795   */\n      tag_268\n        /* \"#utility.yul\":3789:3794   */\n      dup2\n        /* \"#utility.yul\":3771:3795   */\n      tag_181\n      jump\t// in\n    tag_268:\n        /* \"#utility.yul\":3766:3769   */\n      dup3\n        /* \"#utility.yul\":3759:3796   */\n      mstore\n        /* \"#utility.yul\":3684:3802   */\n      pop\n      pop\n      jump\t// out\n        /* \"#utility.yul\":3808:4030   */\n    tag_40:\n        /* \"#utility.yul\":3901:3905   */\n      0x00\n        /* \"#utility.yul\":3939:3941   */\n      0x20\n        /* \"#utility.yul\":3928:3937   */\n      dup3\n        /* \"#utility.yul\":3924:3942   */\n      add\n        /* \"#utility.yul\":3916:3942   */\n      swap1\n      pop\n        /* \"#utility.yul\":3952:4023   */\n      tag_270\n        /* \"#utility.yul\":4020:4021   */\n      0x00\n        /* \"#utility.yul\":4009:4018   */\n      dup4\n        /* \"#utility.yul\":4005:4022   */\n      add\n        /* \"#utility.yul\":3996:4002   */\n      dup5\n        /* \"#utility.yul\":3952:4023   */\n      tag_195\n      jump\t// in\n    tag_270:\n        /* \"#utility.yul\":3808:4030   */\n      swap3\n      swap2\n      pop\n      pop\n      jump\t// out\n        /* \"#utility.yul\":4036:4154   */\n    tag_196:\n        /* \"#utility.yul\":4123:4147   */\n      tag_272\n        /* \"#utility.yul\":4141:4146   */\n      dup2\n        /* \"#utility.yul\":4123:4147   */\n      tag_190\n      jump\t// in\n    tag_272:\n        /* \"#utility.yul\":4118:4121   */\n      dup3\n        /* \"#utility.yul\":4111:4148   */\n      mstore\n        /* \"#utility.yul\":4036:4154   */\n      pop\n      pop\n      jump\t// out\n        /* \"#utility.yul\":4160:4382   */\n    tag_49:\n        /* \"#utility.yul\":4253:4257   */\n      0x00\n        /* \"#utility.yul\":4291:4293   */\n      0x20\n        /* \"#utility.yul\":4280:4289   */\n      dup3\n        /* \"#utility.yul\":4276:4294   */\n      add\n        /* \"#utility.yul\":4268:4294   */\n      swap1\n      pop\n        /* \"#utility.yul\":4304:4375   */\n      tag_274\n        /* \"#utility.yul\":4372:4373   */\n      0x00\n        /* \"#utility.yul\":4361:4370   */\n      dup4\n        /* \"#utility.yul\":4357:4374   */\n      add\n        /* \"#utility.yul\":4348:4354   */\n      dup5\n        /* \"#utility.yul\":4304:4375   */\n      tag_196\n      jump\t// in\n    tag_274:\n        /* \"#utility.yul\":4160:4382   */\n      swap3\n      swap2\n      pop\n      pop\n      jump\t// out\n        /* \"#utility.yul\":4388:5131   */\n    tag_59:\n        /* \"#utility.yul\":4607:4611   */\n      0x00\n        /* \"#utility.yul\":4645:4648   */\n      0xa0\n        /* \"#utility.yul\":4634:4643   */\n      dup3\n        /* \"#utility.yul\":4630:4649   */\n      add\n        /* \"#utility.yul\":4622:4649   */\n      swap1\n      pop\n        /* \"#utility.yul\":4695:4704   */\n      dup2\n        /* \"#utility.yul\":4689:4693   */\n      dup2\n        /* \"#utility.yul\":4685:4705   */\n      sub\n        /* \"#utility.yul\":4681:4682   */\n      0x00\n        /* \"#utility.yul\":4670:4679   */\n      dup4\n        /* \"#utility.yul\":4666:4683   */\n      add\n        /* \"#utility.yul\":4659:4706   */\n      mstore\n        /* \"#utility.yul\":4723:4801   */\n      tag_276\n        /* \"#utility.yul\":4796:4800   */\n      dup2\n        /* \"#utility.yul\":4787:4793   */\n      dup9\n        /* \"#utility.yul\":4723:4801   */\n      tag_188\n      jump\t// in\n    tag_276:\n        /* \"#utility.yul\":4715:4801   */\n      swap1\n      pop\n        /* \"#utility.yul\":4811:4883   */\n      tag_277\n        /* \"#utility.yul\":4879:4881   */\n      0x20\n        /* \"#utility.yul\":4868:4877   */\n      dup4\n        /* \"#utility.yul\":4864:4882   */\n      add\n        /* \"#utility.yul\":4855:4861   */\n      dup8\n        /* \"#utility.yul\":4811:4883   */\n      tag_195\n      jump\t// in\n    tag_277:\n        /* \"#utility.yul\":4893:4965   */\n      tag_278\n        /* \"#utility.yul\":4961:4963   */\n      0x40\n        /* \"#utility.yul\":4950:4959   */\n      dup4\n        /* \"#utility.yul\":4946:4964   */\n      add\n        /* \"#utility.yul\":4937:4943   */\n      dup7\n        /* \"#utility.yul\":4893:4965   */\n      tag_196\n      jump\t// in\n    tag_278:\n        /* \"#utility.yul\":4975:5041   */\n      tag_279\n        /* \"#utility.yul\":5037:5039   */\n      0x60\n        /* \"#utility.yul\":5026:5035   */\n      dup4\n        /* \"#utility.yul\":5022:5040   */\n      add\n        /* \"#utility.yul\":5013:5019   */\n      dup6\n        /* \"#utility.yul\":4975:5041   */\n      tag_194\n      jump\t// in\n    tag_279:\n        /* \"#utility.yul\":5051:5124   */\n      tag_280\n        /* \"#utility.yul\":5119:5122   */\n      0x80\n        /* \"#utility.yul\":5108:5117   */\n      dup4\n        /* \"#utility.yul\":5104:5123   */\n      add\n        /* \"#utility.yul\":5095:5101   */\n      dup5\n        /* \"#utility.yul\":5051:5124   */\n      tag_195\n      jump\t// in\n    tag_280:\n        /* \"#utility.yul\":4388:5131   */\n      swap7\n      swap6\n      pop\n      pop\n      pop\n      pop\n      pop\n      pop\n      jump\t// out\n        /* \"#utility.yul\":5137:5254   */\n    tag_197:\n        /* \"#utility.yul\":5246:5247   */\n      0x00\n        /* \"#utility.yul\":5243:5244   */\n      dup1\n        /* \"#utility.yul\":5236:5248   */\n      revert\n        /* \"#utility.yul\":5260:5377   */\n    tag_198:\n        /* \"#utility.yul\":5369:5370   */\n      0x00\n        /* \"#utility.yul\":5366:5367   */\n      dup1\n        /* \"#utility.yul\":5359:5371   */\n      revert\n        /* \"#utility.yul\":5383:5563   */\n    tag_199:\n        /* \"#utility.yul\":5431:5508   */\n      0x4e487b7100000000000000000000000000000000000000000000000000000000\n        /* \"#utility.yul\":5428:5429   */\n      0x00\n        /* \"#utility.yul\":5421:5509   */\n      mstore\n        /* \"#utility.yul\":5528:5532   */\n      0x41\n        /* \"#utility.yul\":5525:5526   */\n      0x04\n        /* \"#utility.yul\":5518:5533   */\n      mstore\n        /* \"#utility.yul\":5552:5556   */\n      0x24\n        /* \"#utility.yul\":5549:5550   */\n      0x00\n        /* \"#utility.yul\":5542:5557   */\n      revert\n        /* \"#utility.yul\":5569:5850   */\n    tag_200:\n        /* \"#utility.yul\":5652:5679   */\n      tag_285\n        /* \"#utility.yul\":5674:5678   */\n      dup3\n        /* \"#utility.yul\":5652:5679   */\n      tag_187\n      jump\t// in\n    tag_285:\n        /* \"#utility.yul\":5644:5650   */\n      dup2\n        /* \"#utility.yul\":5640:5680   */\n      add\n        /* \"#utility.yul\":5782:5788   */\n      dup2\n        /* \"#utility.yul\":5770:5780   */\n      dup2\n        /* \"#utility.yul\":5767:5789   */\n      lt\n        /* \"#utility.yul\":5746:5764   */\n      0xffffffffffffffff\n        /* \"#utility.yul\":5734:5744   */\n      dup3\n        /* \"#utility.yul\":5731:5765   */\n      gt\n        /* \"#utility.yul\":5728:5790   */\n      or\n        /* \"#utility.yul\":5725:5813   */\n      iszero\n      tag_286\n      jumpi\n        /* \"#utility.yul\":5793:5811   */\n      tag_287\n      tag_199\n      jump\t// in\n    tag_287:\n        /* \"#utility.yul\":5725:5813   */\n    tag_286:\n        /* \"#utility.yul\":5833:5843   */\n      dup1\n        /* \"#utility.yul\":5829:5831   */\n      0x40\n        /* \"#utility.yul\":5822:5844   */\n      mstore\n        /* \"#utility.yul\":5612:5850   */\n      pop\n        /* \"#utility.yul\":5569:5850   */\n      pop\n      pop\n      jump\t// out\n        /* \"#utility.yul\":5856:5985   */\n    tag_201:\n        /* \"#utility.yul\":5890:5896   */\n      0x00\n        /* \"#utility.yul\":5917:5937   */\n      tag_289\n      tag_178\n      jump\t// in\n    tag_289:\n        /* \"#utility.yul\":5907:5937   */\n      swap1\n      pop\n        /* \"#utility.yul\":5946:5979   */\n      tag_290\n        /* \"#utility.yul\":5974:5978   */\n      dup3\n        /* \"#utility.yul\":5966:5972   */\n      dup3\n        /* \"#utility.yul\":5946:5979   */\n      tag_200\n      jump\t// in\n    tag_290:\n        /* \"#utility.yul\":5856:5985   */\n      swap2\n      swap1\n      pop\n      jump\t// out\n        /* \"#utility.yul\":5991:6299   */\n    tag_202:\n        /* \"#utility.yul\":6053:6057   */\n      0x00\n        /* \"#utility.yul\":6143:6161   */\n      0xffffffffffffffff\n        /* \"#utility.yul\":6135:6141   */\n      dup3\n        /* \"#utility.yul\":6132:6162   */\n      gt\n        /* \"#utility.yul\":6129:6185   */\n      iszero\n      tag_292\n      jumpi\n        /* \"#utility.yul\":6165:6183   */\n      tag_293\n      tag_199\n      jump\t// in\n    tag_293:\n        /* \"#utility.yul\":6129:6185   */\n    tag_292:\n        /* \"#utility.yul\":6203:6232   */\n      tag_294\n        /* \"#utility.yul\":6225:6231   */\n      dup3\n        /* \"#utility.yul\":6203:6232   */\n      tag_187\n      jump\t// in\n    tag_294:\n        /* \"#utility.yul\":6195:6232   */\n      swap1\n      pop\n        /* \"#utility.yul\":6287:6291   */\n      0x20\n        /* \"#utility.yul\":6281:6285   */\n      dup2\n        /* \"#utility.yul\":6277:6292   */\n      add\n        /* \"#utility.yul\":6269:6292   */\n      swap1\n      pop\n        /* \"#utility.yul\":5991:6299   */\n      swap2\n      swap1\n      pop\n      jump\t// out\n        /* \"#utility.yul\":6305:6459   */\n    tag_203:\n        /* \"#utility.yul\":6389:6395   */\n      dup3\n        /* \"#utility.yul\":6384:6387   */\n      dup2\n        /* \"#utility.yul\":6379:6382   */\n      dup4\n        /* \"#utility.yul\":6366:6396   */\n      calldatacopy\n        /* \"#utility.yul\":6451:6452   */\n      0x00\n        /* \"#utility.yul\":6442:6448   */\n      dup4\n        /* \"#utility.yul\":6437:6440   */\n      dup4\n        /* \"#utility.yul\":6433:6449   */\n      add\n        /* \"#utility.yul\":6426:6453   */\n      mstore\n        /* \"#utility.yul\":6305:6459   */\n      pop\n      pop\n      pop\n      jump\t// out\n        /* \"#utility.yul\":6465:6877   */\n    tag_204:\n        /* \"#utility.yul\":6543:6548   */\n      0x00\n        /* \"#utility.yul\":6568:6634   */\n      tag_297\n        /* \"#utility.yul\":6584:6633   */\n      tag_298\n        /* \"#utility.yul\":6626:6632   */\n      dup5\n        /* \"#utility.yul\":6584:6633   */\n      tag_202\n      jump\t// in\n    tag_298:\n        /* \"#utility.yul\":6568:6634   */\n      tag_201\n      jump\t// in\n    tag_297:\n        /* \"#utility.yul\":6559:6634   */\n      swap1\n      pop\n        /* \"#utility.yul\":6657:6663   */\n      dup3\n        /* \"#utility.yul\":6650:6655   */\n      dup2\n        /* \"#utility.yul\":6643:6664   */\n      mstore\n        /* \"#utility.yul\":6695:6699   */\n      0x20\n        /* \"#utility.yul\":6688:6693   */\n      dup2\n        /* \"#utility.yul\":6684:6700   */\n      add\n        /* \"#utility.yul\":6733:6736   */\n      dup5\n        /* \"#utility.yul\":6724:6730   */\n      dup5\n        /* \"#utility.yul\":6719:6722   */\n      dup5\n        /* \"#utility.yul\":6715:6731   */\n      add\n        /* \"#utility.yul\":6712:6737   */\n      gt\n        /* \"#utility.yul\":6709:6821   */\n      iszero\n      tag_299\n      jumpi\n        /* \"#utility.yul\":6740:6819   */\n      tag_300\n      tag_198\n      jump\t// in\n    tag_300:\n        /* \"#utility.yul\":6709:6821   */\n    tag_299:\n        /* \"#utility.yul\":6830:6871   */\n      tag_301\n        /* \"#utility.yul\":6864:6870   */\n      dup5\n        /* \"#utility.yul\":6859:6862   */\n      dup3\n        /* \"#utility.yul\":6854:6857   */\n      dup6\n        /* \"#utility.yul\":6830:6871   */\n      tag_203\n      jump\t// in\n    tag_301:\n        /* \"#utility.yul\":6549:6877   */\n      pop\n        /* \"#utility.yul\":6465:6877   */\n      swap4\n      swap3\n      pop\n      pop\n      pop\n      jump\t// out\n        /* \"#utility.yul\":6897:7237   */\n    tag_205:\n        /* \"#utility.yul\":6953:6958   */\n      0x00\n        /* \"#utility.yul\":7002:7005   */\n      dup3\n        /* \"#utility.yul\":6995:6999   */\n      0x1f\n        /* \"#utility.yul\":6987:6993   */\n      dup4\n        /* \"#utility.yul\":6983:7000   */\n      add\n        /* \"#utility.yul\":6979:7006   */\n      slt\n        /* \"#utility.yul\":6969:7091   */\n      tag_303\n      jumpi\n        /* \"#utility.yul\":7010:7089   */\n      tag_304\n      tag_197\n      jump\t// in\n    tag_304:\n        /* \"#utility.yul\":6969:7091   */\n    tag_303:\n        /* \"#utility.yul\":7127:7133   */\n      dup2\n        /* \"#utility.yul\":7114:7134   */\n      calldataload\n        /* \"#utility.yul\":7152:7231   */\n      tag_305\n        /* \"#utility.yul\":7227:7230   */\n      dup5\n        /* \"#utility.yul\":7219:7225   */\n      dup3\n        /* \"#utility.yul\":7212:7216   */\n      0x20\n        /* \"#utility.yul\":7204:7210   */\n      dup7\n        /* \"#utility.yul\":7200:7217   */\n      add\n        /* \"#utility.yul\":7152:7231   */\n      tag_204\n      jump\t// in\n    tag_305:\n        /* \"#utility.yul\":7143:7231   */\n      swap2\n      pop\n        /* \"#utility.yul\":6959:7237   */\n      pop\n        /* \"#utility.yul\":6897:7237   */\n      swap3\n      swap2\n      pop\n      pop\n      jump\t// out\n        /* \"#utility.yul\":7243:8042   */\n    tag_67:\n        /* \"#utility.yul\":7330:7336   */\n      0x00\n        /* \"#utility.yul\":7338:7344   */\n      dup1\n        /* \"#utility.yul\":7346:7352   */\n      0x00\n        /* \"#utility.yul\":7395:7397   */\n      0x60\n        /* \"#utility.yul\":7383:7392   */\n      dup5\n        /* \"#utility.yul\":7374:7381   */\n      dup7\n        /* \"#utility.yul\":7370:7393   */\n      sub\n        /* \"#utility.yul\":7366:7398   */\n      slt\n        /* \"#utility.yul\":7363:7482   */\n      iszero\n      tag_307\n      jumpi\n        /* \"#utility.yul\":7401:7480   */\n      tag_308\n      tag_179\n      jump\t// in\n    tag_308:\n        /* \"#utility.yul\":7363:7482   */\n    tag_307:\n        /* \"#utility.yul\":7549:7550   */\n      0x00\n        /* \"#utility.yul\":7538:7547   */\n      dup5\n        /* \"#utility.yul\":7534:7551   */\n      add\n        /* \"#utility.yul\":7521:7552   */\n      calldataload\n        /* \"#utility.yul\":7579:7597   */\n      0xffffffffffffffff\n        /* \"#utility.yul\":7571:7577   */\n      dup2\n        /* \"#utility.yul\":7568:7598   */\n      gt\n        /* \"#utility.yul\":7565:7682   */\n      iszero\n      tag_309\n      jumpi\n        /* \"#utility.yul\":7601:7680   */\n      tag_310\n      tag_180\n      jump\t// in\n    tag_310:\n        /* \"#utility.yul\":7565:7682   */\n    tag_309:\n        /* \"#utility.yul\":7706:7769   */\n      tag_311\n        /* \"#utility.yul\":7761:7768   */\n      dup7\n        /* \"#utility.yul\":7752:7758   */\n      dup3\n        /* \"#utility.yul\":7741:7750   */\n      dup8\n        /* \"#utility.yul\":7737:7759   */\n      add\n        /* \"#utility.yul\":7706:7769   */\n      tag_205\n      jump\t// in\n    tag_311:\n        /* \"#utility.yul\":7696:7769   */\n      swap4\n      pop\n        /* \"#utility.yul\":7492:7779   */\n      pop\n        /* \"#utility.yul\":7818:7820   */\n      0x20\n        /* \"#utility.yul\":7844:7897   */\n      tag_312\n        /* \"#utility.yul\":7889:7896   */\n      dup7\n        /* \"#utility.yul\":7880:7886   */\n      dup3\n        /* \"#utility.yul\":7869:7878   */\n      dup8\n        /* \"#utility.yul\":7865:7887   */\n      add\n        /* \"#utility.yul\":7844:7897   */\n      tag_183\n      jump\t// in\n    tag_312:\n        /* \"#utility.yul\":7834:7897   */\n      swap3\n      pop\n        /* \"#utility.yul\":7789:7907   */\n      pop\n        /* \"#utility.yul\":7946:7948   */\n      0x40\n        /* \"#utility.yul\":7972:8025   */\n      tag_313\n        /* \"#utility.yul\":8017:8024   */\n      dup7\n        /* \"#utility.yul\":8008:8014   */\n      dup3\n        /* \"#utility.yul\":7997:8006   */\n      dup8\n        /* \"#utility.yul\":7993:8015   */\n      add\n        /* \"#utility.yul\":7972:8025   */\n      tag_192\n      jump\t// in\n    tag_313:\n        /* \"#utility.yul\":7962:8025   */\n      swap2\n      pop\n        /* \"#utility.yul\":7917:8035   */\n      pop\n        /* \"#utility.yul\":7243:8042   */\n      swap3\n      pop\n      swap3\n      pop\n      swap3\n      jump\t// out\n        /* \"#utility.yul\":8048:9318   */\n    tag_83:\n        /* \"#utility.yul\":8397:8401   */\n      0x00\n        /* \"#utility.yul\":8435:8438   */\n      0x0100\n        /* \"#utility.yul\":8424:8433   */\n      dup3\n        /* \"#utility.yul\":8420:8439   */\n      add\n        /* \"#utility.yul\":8412:8439   */\n      swap1\n      pop\n        /* \"#utility.yul\":8485:8494   */\n      dup2\n        /* \"#utility.yul\":8479:8483   */\n      dup2\n        /* \"#utility.yul\":8475:8495   */\n      sub\n        /* \"#utility.yul\":8471:8472   */\n      0x00\n        /* \"#utility.yul\":8460:8469   */\n      dup4\n        /* \"#utility.yul\":8456:8473   */\n      add\n        /* \"#utility.yul\":8449:8496   */\n      mstore\n        /* \"#utility.yul\":8513:8591   */\n      tag_315\n        /* \"#utility.yul\":8586:8590   */\n      dup2\n        /* \"#utility.yul\":8577:8583   */\n      dup12\n        /* \"#utility.yul\":8513:8591   */\n      tag_188\n      jump\t// in\n    tag_315:\n        /* \"#utility.yul\":8505:8591   */\n      swap1\n      pop\n        /* \"#utility.yul\":8638:8647   */\n      dup2\n        /* \"#utility.yul\":8632:8636   */\n      dup2\n        /* \"#utility.yul\":8628:8648   */\n      sub\n        /* \"#utility.yul\":8623:8625   */\n      0x20\n        /* \"#utility.yul\":8612:8621   */\n      dup4\n        /* \"#utility.yul\":8608:8626   */\n      add\n        /* \"#utility.yul\":8601:8649   */\n      mstore\n        /* \"#utility.yul\":8666:8744   */\n      tag_316\n        /* \"#utility.yul\":8739:8743   */\n      dup2\n        /* \"#utility.yul\":8730:8736   */\n      dup11\n        /* \"#utility.yul\":8666:8744   */\n      tag_188\n      jump\t// in\n    tag_316:\n        /* \"#utility.yul\":8658:8744   */\n      swap1\n      pop\n        /* \"#utility.yul\":8791:8800   */\n      dup2\n        /* \"#utility.yul\":8785:8789   */\n      dup2\n        /* \"#utility.yul\":8781:8801   */\n      sub\n        /* \"#utility.yul\":8776:8778   */\n      0x40\n        /* \"#utility.yul\":8765:8774   */\n      dup4\n        /* \"#utility.yul\":8761:8779   */\n      add\n        /* \"#utility.yul\":8754:8802   */\n      mstore\n        /* \"#utility.yul\":8819:8897   */\n      tag_317\n        /* \"#utility.yul\":8892:8896   */\n      dup2\n        /* \"#utility.yul\":8883:8889   */\n      dup10\n        /* \"#utility.yul\":8819:8897   */\n      tag_188\n      jump\t// in\n    tag_317:\n        /* \"#utility.yul\":8811:8897   */\n      swap1\n      pop\n        /* \"#utility.yul\":8907:8979   */\n      tag_318\n        /* \"#utility.yul\":8975:8977   */\n      0x60\n        /* \"#utility.yul\":8964:8973   */\n      dup4\n        /* \"#utility.yul\":8960:8978   */\n      add\n        /* \"#utility.yul\":8951:8957   */\n      dup9\n        /* \"#utility.yul\":8907:8979   */\n      tag_195\n      jump\t// in\n    tag_318:\n        /* \"#utility.yul\":8989:9062   */\n      tag_319\n        /* \"#utility.yul\":9057:9060   */\n      0x80\n        /* \"#utility.yul\":9046:9055   */\n      dup4\n        /* \"#utility.yul\":9042:9061   */\n      add\n        /* \"#utility.yul\":9033:9039   */\n      dup8\n        /* \"#utility.yul\":8989:9062   */\n      tag_195\n      jump\t// in\n    tag_319:\n        /* \"#utility.yul\":9072:9145   */\n      tag_320\n        /* \"#utility.yul\":9140:9143   */\n      0xa0\n        /* \"#utility.yul\":9129:9138   */\n      dup4\n        /* \"#utility.yul\":9125:9144   */\n      add\n        /* \"#utility.yul\":9116:9122   */\n      dup7\n        /* \"#utility.yul\":9072:9145   */\n      tag_195\n      jump\t// in\n    tag_320:\n        /* \"#utility.yul\":9155:9228   */\n      tag_321\n        /* \"#utility.yul\":9223:9226   */\n      0xc0\n        /* \"#utility.yul\":9212:9221   */\n      dup4\n        /* \"#utility.yul\":9208:9227   */\n      add\n        /* \"#utility.yul\":9199:9205   */\n      dup6\n        /* \"#utility.yul\":9155:9228   */\n      tag_195\n      jump\t// in\n    tag_321:\n        /* \"#utility.yul\":9238:9311   */\n      tag_322\n        /* \"#utility.yul\":9306:9309   */\n      0xe0\n        /* \"#utility.yul\":9295:9304   */\n      dup4\n        /* \"#utility.yul\":9291:9310   */\n      add\n        /* \"#utility.yul\":9282:9288   */\n      dup5\n        /* \"#utility.yul\":9238:9311   */\n      tag_196\n      jump\t// in\n    tag_322:\n        /* \"#utility.yul\":8048:9318   */\n      swap10\n      swap9\n      pop\n      pop\n      pop\n      pop\n      pop\n      pop\n      pop\n      pop\n      pop\n      jump\t// out\n        /* \"#utility.yul\":9324:9546   */\n    tag_206:\n        /* \"#utility.yul\":9464:9498   */\n      0x4f6e6c79206d616e616765722063616e2063616c6c20746869732066756e6374\n        /* \"#utility.yul\":9460:9461   */\n      0x00\n        /* \"#utility.yul\":9452:9458   */\n      dup3\n        /* \"#utility.yul\":9448:9462   */\n      add\n        /* \"#utility.yul\":9441:9499   */\n      mstore\n        /* \"#utility.yul\":9533:9538   */\n      0x696f6e0000000000000000000000000000000000000000000000000000000000\n        /* \"#utility.yul\":9528:9530   */\n      0x20\n        /* \"#utility.yul\":9520:9526   */\n      dup3\n        /* \"#utility.yul\":9516:9531   */\n      add\n        /* \"#utility.yul\":9509:9539   */\n      mstore\n        /* \"#utility.yul\":9324:9546   */\n      pop\n      jump\t// out\n        /* \"#utility.yul\":9552:9918   */\n    tag_207:\n        /* \"#utility.yul\":9694:9697   */\n      0x00\n        /* \"#utility.yul\":9715:9782   */\n      tag_325\n        /* \"#utility.yul\":9779:9781   */\n      0x23\n        /* \"#utility.yul\":9774:9777   */\n      dup4\n        /* \"#utility.yul\":9715:9782   */\n      tag_185\n      jump\t// in\n    tag_325:\n        /* \"#utility.yul\":9708:9782   */\n      swap2\n      pop\n        /* \"#utility.yul\":9791:9884   */\n      tag_326\n        /* \"#utility.yul\":9880:9883   */\n      dup3\n        /* \"#utility.yul\":9791:9884   */\n      tag_206\n      jump\t// in\n    tag_326:\n        /* \"#utility.yul\":9909:9911   */\n      0x40\n        /* \"#utility.yul\":9904:9907   */\n      dup3\n        /* \"#utility.yul\":9900:9912   */\n      add\n        /* \"#utility.yul\":9893:9912   */\n      swap1\n      pop\n        /* \"#utility.yul\":9552:9918   */\n      swap2\n      swap1\n      pop\n      jump\t// out\n        /* \"#utility.yul\":9924:10343   */\n    tag_87:\n        /* \"#utility.yul\":10090:10094   */\n      0x00\n        /* \"#utility.yul\":10128:10130   */\n      0x20\n        /* \"#utility.yul\":10117:10126   */\n      dup3\n        /* \"#utility.yul\":10113:10131   */\n      add\n        /* \"#utility.yul\":10105:10131   */\n      swap1\n      pop\n        /* \"#utility.yul\":10177:10186   */\n      dup2\n        /* \"#utility.yul\":10171:10175   */\n      dup2\n        /* \"#utility.yul\":10167:10187   */\n      sub\n        /* \"#utility.yul\":10163:10164   */\n      0x00\n        /* \"#utility.yul\":10152:10161   */\n      dup4\n        /* \"#utility.yul\":10148:10165   */\n      add\n        /* \"#utility.yul\":10141:10188   */\n      mstore\n        /* \"#utility.yul\":10205:10336   */\n      tag_328\n        /* \"#utility.yul\":10331:10335   */\n      dup2\n        /* \"#utility.yul\":10205:10336   */\n      tag_207\n      jump\t// in\n    tag_328:\n        /* \"#utility.yul\":10197:10336   */\n      swap1\n      pop\n        /* \"#utility.yul\":9924:10343   */\n      swap2\n      swap1\n      pop\n      jump\t// out\n        /* \"#utility.yul\":10349:10529   */\n    tag_91:\n        /* \"#utility.yul\":10397:10474   */\n      0x4e487b7100000000000000000000000000000000000000000000000000000000\n        /* \"#utility.yul\":10394:10395   */\n      0x00\n        /* \"#utility.yul\":10387:10475   */\n      mstore\n        /* \"#utility.yul\":10494:10498   */\n      0x32\n        /* \"#utility.yul\":10491:10492   */\n      0x04\n        /* \"#utility.yul\":10484:10499   */\n      mstore\n        /* \"#utility.yul\":10518:10522   */\n      0x24\n        /* \"#utility.yul\":10515:10516   */\n      0x00\n        /* \"#utility.yul\":10508:10523   */\n      revert\n        /* \"#utility.yul\":10535:10715   */\n    tag_208:\n        /* \"#utility.yul\":10583:10660   */\n      0x4e487b7100000000000000000000000000000000000000000000000000000000\n        /* \"#utility.yul\":10580:10581   */\n      0x00\n        /* \"#utility.yul\":10573:10661   */\n      mstore\n        /* \"#utility.yul\":10680:10684   */\n      0x12\n        /* \"#utility.yul\":10677:10678   */\n      0x04\n        /* \"#utility.yul\":10670:10685   */\n      mstore\n        /* \"#utility.yul\":10704:10708   */\n      0x24\n        /* \"#utility.yul\":10701:10702   */\n      0x00\n        /* \"#utility.yul\":10694:10709   */\n      revert\n        /* \"#utility.yul\":10721:10901   */\n    tag_209:\n        /* \"#utility.yul\":10769:10846   */\n      0x4e487b7100000000000000000000000000000000000000000000000000000000\n        /* \"#utility.yul\":10766:10767   */\n      0x00\n        /* \"#utility.yul\":10759:10847   */\n      mstore\n        /* \"#utility.yul\":10866:10870   */\n      0x11\n        /* \"#utility.yul\":10863:10864   */\n      0x04\n        /* \"#utility.yul\":10856:10871   */\n      mstore\n        /* \"#utility.yul\":10890:10894   */\n      0x24\n        /* \"#utility.yul\":10887:10888   */\n      0x00\n        /* \"#utility.yul\":10880:10895   */\n      revert\n        /* \"#utility.yul\":10907:11092   */\n    tag_94:\n        /* \"#utility.yul\":10947:10948   */\n      0x00\n        /* \"#utility.yul\":10964:10984   */\n      tag_333\n        /* \"#utility.yul\":10982:10983   */\n      dup3\n        /* \"#utility.yul\":10964:10984   */\n      tag_181\n      jump\t// in\n    tag_333:\n        /* \"#utility.yul\":10959:10984   */\n      swap2\n      pop\n        /* \"#utility.yul\":10998:11018   */\n      tag_334\n        /* \"#utility.yul\":11016:11017   */\n      dup4\n        /* \"#utility.yul\":10998:11018   */\n      tag_181\n      jump\t// in\n    tag_334:\n        /* \"#utility.yul\":10993:11018   */\n      swap3\n      pop\n        /* \"#utility.yul\":11037:11038   */\n      dup3\n        /* \"#utility.yul\":11027:11062   */\n      tag_335\n      jumpi\n        /* \"#utility.yul\":11042:11060   */\n      tag_336\n      tag_208\n      jump\t// in\n    tag_336:\n        /* \"#utility.yul\":11027:11062   */\n    tag_335:\n        /* \"#utility.yul\":11084:11085   */\n      dup3\n        /* \"#utility.yul\":11081:11082   */\n      dup3\n        /* \"#utility.yul\":11077:11086   */\n      div\n        /* \"#utility.yul\":11072:11086   */\n      swap1\n      pop\n        /* \"#utility.yul\":10907:11092   */\n      swap3\n      swap2\n      pop\n      pop\n      jump\t// out\n        /* \"#utility.yul\":11098:11268   */\n    tag_210:\n        /* \"#utility.yul\":11238:11260   */\n      0x4e6f7420656e6f75676820617070726f76616c73000000000000000000000000\n        /* \"#utility.yul\":11234:11235   */\n      0x00\n        /* \"#utility.yul\":11226:11232   */\n      dup3\n        /* \"#utility.yul\":11222:11236   */\n      add\n        /* \"#utility.yul\":11215:11261   */\n      mstore\n        /* \"#utility.yul\":11098:11268   */\n      pop\n      jump\t// out\n        /* \"#utility.yul\":11274:11640   */\n    tag_211:\n        /* \"#utility.yul\":11416:11419   */\n      0x00\n        /* \"#utility.yul\":11437:11504   */\n      tag_339\n        /* \"#utility.yul\":11501:11503   */\n      0x14\n        /* \"#utility.yul\":11496:11499   */\n      dup4\n        /* \"#utility.yul\":11437:11504   */\n      tag_185\n      jump\t// in\n    tag_339:\n        /* \"#utility.yul\":11430:11504   */\n      swap2\n      pop\n        /* \"#utility.yul\":11513:11606   */\n      tag_340\n        /* \"#utility.yul\":11602:11605   */\n      dup3\n        /* \"#utility.yul\":11513:11606   */\n      tag_210\n      jump\t// in\n    tag_340:\n        /* \"#utility.yul\":11631:11633   */\n      0x20\n        /* \"#utility.yul\":11626:11629   */\n      dup3\n        /* \"#utility.yul\":11622:11634   */\n      add\n        /* \"#utility.yul\":11615:11634   */\n      swap1\n      pop\n        /* \"#utility.yul\":11274:11640   */\n      swap2\n      swap1\n      pop\n      jump\t// out\n        /* \"#utility.yul\":11646:12065   */\n    tag_97:\n        /* \"#utility.yul\":11812:11816   */\n      0x00\n        /* \"#utility.yul\":11850:11852   */\n      0x20\n        /* \"#utility.yul\":11839:11848   */\n      dup3\n        /* \"#utility.yul\":11835:11853   */\n      add\n        /* \"#utility.yul\":11827:11853   */\n      swap1\n      pop\n        /* \"#utility.yul\":11899:11908   */\n      dup2\n        /* \"#utility.yul\":11893:11897   */\n      dup2\n        /* \"#utility.yul\":11889:11909   */\n      sub\n        /* \"#utility.yul\":11885:11886   */\n      0x00\n        /* \"#utility.yul\":11874:11883   */\n      dup4\n        /* \"#utility.yul\":11870:11887   */\n      add\n        /* \"#utility.yul\":11863:11910   */\n      mstore\n        /* \"#utility.yul\":11927:12058   */\n      tag_342\n        /* \"#utility.yul\":12053:12057   */\n      dup2\n        /* \"#utility.yul\":11927:12058   */\n      tag_211\n      jump\t// in\n    tag_342:\n        /* \"#utility.yul\":11919:12058   */\n      swap1\n      pop\n        /* \"#utility.yul\":11646:12065   */\n      swap2\n      swap1\n      pop\n      jump\t// out\n        /* \"#utility.yul\":12071:12246   */\n    tag_212:\n        /* \"#utility.yul\":12211:12238   */\n      0x5265717565737420616c72656164792066696e616c697a656400000000000000\n        /* \"#utility.yul\":12207:12208   */\n      0x00\n        /* \"#utility.yul\":12199:12205   */\n      dup3\n        /* \"#utility.yul\":12195:12209   */\n      add\n        /* \"#utility.yul\":12188:12239   */\n      mstore\n        /* \"#utility.yul\":12071:12246   */\n      pop\n      jump\t// out\n        /* \"#utility.yul\":12252:12618   */\n    tag_213:\n        /* \"#utility.yul\":12394:12397   */\n      0x00\n        /* \"#utility.yul\":12415:12482   */\n      tag_345\n        /* \"#utility.yul\":12479:12481   */\n      0x19\n        /* \"#utility.yul\":12474:12477   */\n      dup4\n        /* \"#utility.yul\":12415:12482   */\n      tag_185\n      jump\t// in\n    tag_345:\n        /* \"#utility.yul\":12408:12482   */\n      swap2\n      pop\n        /* \"#utility.yul\":12491:12584   */\n      tag_346\n        /* \"#utility.yul\":12580:12583   */\n      dup3\n        /* \"#utility.yul\":12491:12584   */\n      tag_212\n      jump\t// in\n    tag_346:\n        /* \"#utility.yul\":12609:12611   */\n      0x20\n        /* \"#utility.yul\":12604:12607   */\n      dup3\n        /* \"#utility.yul\":12600:12612   */\n      add\n        /* \"#utility.yul\":12593:12612   */\n      swap1\n      pop\n        /* \"#utility.yul\":12252:12618   */\n      swap2\n      swap1\n      pop\n      jump\t// out\n        /* \"#utility.yul\":12624:13043   */\n    tag_100:\n        /* \"#utility.yul\":12790:12794   */\n      0x00\n        /* \"#utility.yul\":12828:12830   */\n      0x20\n        /* \"#utility.yul\":12817:12826   */\n      dup3\n        /* \"#utility.yul\":12813:12831   */\n      add\n        /* \"#utility.yul\":12805:12831   */\n      swap1\n      pop\n        /* \"#utility.yul\":12877:12886   */\n      dup2\n        /* \"#utility.yul\":12871:12875   */\n      dup2\n        /* \"#utility.yul\":12867:12887   */\n      sub\n        /* \"#utility.yul\":12863:12864   */\n      0x00\n        /* \"#utility.yul\":12852:12861   */\n      dup4\n        /* \"#utility.yul\":12848:12865   */\n      add\n        /* \"#utility.yul\":12841:12888   */\n      mstore\n        /* \"#utility.yul\":12905:13036   */\n      tag_348\n        /* \"#utility.yul\":13031:13035   */\n      dup2\n        /* \"#utility.yul\":12905:13036   */\n      tag_213\n      jump\t// in\n    tag_348:\n        /* \"#utility.yul\":12897:13036   */\n      swap1\n      pop\n        /* \"#utility.yul\":12624:13043   */\n      swap2\n      swap1\n      pop\n      jump\t// out\n        /* \"#utility.yul\":13049:13229   */\n    tag_214:\n        /* \"#utility.yul\":13097:13174   */\n      0x4e487b7100000000000000000000000000000000000000000000000000000000\n        /* \"#utility.yul\":13094:13095   */\n      0x00\n        /* \"#utility.yul\":13087:13175   */\n      mstore\n        /* \"#utility.yul\":13194:13198   */\n      0x22\n        /* \"#utility.yul\":13191:13192   */\n      0x04\n        /* \"#utility.yul\":13184:13199   */\n      mstore\n        /* \"#utility.yul\":13218:13222   */\n      0x24\n        /* \"#utility.yul\":13215:13216   */\n      0x00\n        /* \"#utility.yul\":13208:13223   */\n      revert\n        /* \"#utility.yul\":13235:13555   */\n    tag_104:\n        /* \"#utility.yul\":13279:13285   */\n      0x00\n        /* \"#utility.yul\":13316:13317   */\n      0x02\n        /* \"#utility.yul\":13310:13314   */\n      dup3\n        /* \"#utility.yul\":13306:13318   */\n      div\n        /* \"#utility.yul\":13296:13318   */\n      swap1\n      pop\n        /* \"#utility.yul\":13363:13364   */\n      0x01\n        /* \"#utility.yul\":13357:13361   */\n      dup3\n        /* \"#utility.yul\":13353:13365   */\n      and\n        /* \"#utility.yul\":13384:13402   */\n      dup1\n        /* \"#utility.yul\":13374:13455   */\n      tag_351\n      jumpi\n        /* \"#utility.yul\":13440:13444   */\n      0x7f\n        /* \"#utility.yul\":13432:13438   */\n      dup3\n        /* \"#utility.yul\":13428:13445   */\n      and\n        /* \"#utility.yul\":13418:13445   */\n      swap2\n      pop\n        /* \"#utility.yul\":13374:13455   */\n    tag_351:\n        /* \"#utility.yul\":13502:13504   */\n      0x20\n        /* \"#utility.yul\":13494:13500   */\n      dup3\n        /* \"#utility.yul\":13491:13505   */\n      lt\n        /* \"#utility.yul\":13471:13489   */\n      dup2\n        /* \"#utility.yul\":13468:13506   */\n      eq\n        /* \"#utility.yul\":13465:13549   */\n      iszero\n      tag_352\n      jumpi\n        /* \"#utility.yul\":13521:13539   */\n      tag_353\n      tag_214\n      jump\t// in\n    tag_353:\n        /* \"#utility.yul\":13465:13549   */\n    tag_352:\n        /* \"#utility.yul\":13286:13555   */\n      pop\n        /* \"#utility.yul\":13235:13555   */\n      swap2\n      swap1\n      pop\n      jump\t// out\n        /* \"#utility.yul\":13561:13781   */\n    tag_215:\n        /* \"#utility.yul\":13701:13735   */\n      0x436f6e747269627574696f6e206973206c657373207468616e206d696e696d75\n        /* \"#utility.yul\":13697:13698   */\n      0x00\n        /* \"#utility.yul\":13689:13695   */\n      dup3\n        /* \"#utility.yul\":13685:13699   */\n      add\n        /* \"#utility.yul\":13678:13736   */\n      mstore\n        /* \"#utility.yul\":13770:13773   */\n      0x6d00000000000000000000000000000000000000000000000000000000000000\n        /* \"#utility.yul\":13765:13767   */\n      0x20\n        /* \"#utility.yul\":13757:13763   */\n      dup3\n        /* \"#utility.yul\":13753:13768   */\n      add\n        /* \"#utility.yul\":13746:13774   */\n      mstore\n        /* \"#utility.yul\":13561:13781   */\n      pop\n      jump\t// out\n        /* \"#utility.yul\":13787:14153   */\n    tag_216:\n        /* \"#utility.yul\":13929:13932   */\n      0x00\n        /* \"#utility.yul\":13950:14017   */\n      tag_356\n        /* \"#utility.yul\":14014:14016   */\n      0x21\n        /* \"#utility.yul\":14009:14012   */\n      dup4\n        /* \"#utility.yul\":13950:14017   */\n      tag_185\n      jump\t// in\n    tag_356:\n        /* \"#utility.yul\":13943:14017   */\n      swap2\n      pop\n        /* \"#utility.yul\":14026:14119   */\n      tag_357\n        /* \"#utility.yul\":14115:14118   */\n      dup3\n        /* \"#utility.yul\":14026:14119   */\n      tag_215\n      jump\t// in\n    tag_357:\n        /* \"#utility.yul\":14144:14146   */\n      0x40\n        /* \"#utility.yul\":14139:14142   */\n      dup3\n        /* \"#utility.yul\":14135:14147   */\n      add\n        /* \"#utility.yul\":14128:14147   */\n      swap1\n      pop\n        /* \"#utility.yul\":13787:14153   */\n      swap2\n      swap1\n      pop\n      jump\t// out\n        /* \"#utility.yul\":14159:14578   */\n    tag_137:\n        /* \"#utility.yul\":14325:14329   */\n      0x00\n        /* \"#utility.yul\":14363:14365   */\n      0x20\n        /* \"#utility.yul\":14352:14361   */\n      dup3\n        /* \"#utility.yul\":14348:14366   */\n      add\n        /* \"#utility.yul\":14340:14366   */\n      swap1\n      pop\n        /* \"#utility.yul\":14412:14421   */\n      dup2\n        /* \"#utility.yul\":14406:14410   */\n      dup2\n        /* \"#utility.yul\":14402:14422   */\n      sub\n        /* \"#utility.yul\":14398:14399   */\n      0x00\n        /* \"#utility.yul\":14387:14396   */\n      dup4\n        /* \"#utility.yul\":14383:14400   */\n      add\n        /* \"#utility.yul\":14376:14423   */\n      mstore\n        /* \"#utility.yul\":14440:14571   */\n      tag_359\n        /* \"#utility.yul\":14566:14570   */\n      dup2\n        /* \"#utility.yul\":14440:14571   */\n      tag_216\n      jump\t// in\n    tag_359:\n        /* \"#utility.yul\":14432:14571   */\n      swap1\n      pop\n        /* \"#utility.yul\":14159:14578   */\n      swap2\n      swap1\n      pop\n      jump\t// out\n        /* \"#utility.yul\":14584:14817   */\n    tag_140:\n        /* \"#utility.yul\":14623:14626   */\n      0x00\n        /* \"#utility.yul\":14646:14670   */\n      tag_361\n        /* \"#utility.yul\":14664:14669   */\n      dup3\n        /* \"#utility.yul\":14646:14670   */\n      tag_181\n      jump\t// in\n    tag_361:\n        /* \"#utility.yul\":14637:14670   */\n      swap2\n      pop\n        /* \"#utility.yul\":14692:14758   */\n      0xffffffffffffffffffffffffffffffffffffffffffffffffffffffffffffffff\n        /* \"#utility.yul\":14685:14690   */\n      dup3\n        /* \"#utility.yul\":14682:14759   */\n      eq\n        /* \"#utility.yul\":14679:14782   */\n      iszero\n      tag_362\n      jumpi\n        /* \"#utility.yul\":14762:14780   */\n      tag_363\n      tag_209\n      jump\t// in\n    tag_363:\n        /* \"#utility.yul\":14679:14782   */\n    tag_362:\n        /* \"#utility.yul\":14809:14810   */\n      0x01\n        /* \"#utility.yul\":14802:14807   */\n      dup3\n        /* \"#utility.yul\":14798:14811   */\n      add\n        /* \"#utility.yul\":14791:14811   */\n      swap1\n      pop\n        /* \"#utility.yul\":14584:14817   */\n      swap2\n      swap1\n      pop\n      jump\t// out\n        /* \"#utility.yul\":14823:14999   */\n    tag_217:\n        /* \"#utility.yul\":14963:14991   */\n      0x4f6e6c7920617070726f766572732063616e20617070726f7665000000000000\n        /* \"#utility.yul\":14959:14960   */\n      0x00\n        /* \"#utility.yul\":14951:14957   */\n      dup3\n        /* \"#utility.yul\":14947:14961   */\n      add\n        /* \"#utility.yul\":14940:14992   */\n      mstore\n        /* \"#utility.yul\":14823:14999   */\n      pop\n      jump\t// out\n        /* \"#utility.yul\":15005:15371   */\n    tag_218:\n        /* \"#utility.yul\":15147:15150   */\n      0x00\n        /* \"#utility.yul\":15168:15235   */\n      tag_366\n        /* \"#utility.yul\":15232:15234   */\n      0x1a\n        /* \"#utility.yul\":15227:15230   */\n      dup4\n        /* \"#utility.yul\":15168:15235   */\n      tag_185\n      jump\t// in\n    tag_366:\n        /* \"#utility.yul\":15161:15235   */\n      swap2\n      pop\n        /* \"#utility.yul\":15244:15337   */\n      tag_367\n        /* \"#utility.yul\":15333:15336   */\n      dup3\n        /* \"#utility.yul\":15244:15337   */\n      tag_217\n      jump\t// in\n    tag_367:\n        /* \"#utility.yul\":15362:15364   */\n      0x20\n        /* \"#utility.yul\":15357:15360   */\n      dup3\n        /* \"#utility.yul\":15353:15365   */\n      add\n        /* \"#utility.yul\":15346:15365   */\n      swap1\n      pop\n        /* \"#utility.yul\":15005:15371   */\n      swap2\n      swap1\n      pop\n      jump\t// out\n        /* \"#utility.yul\":15377:15796   */\n    tag_147:\n        /* \"#utility.yul\":15543:15547   */\n      0x00\n        /* \"#utility.yul\":15581:15583   */\n      0x20\n        /* \"#utility.yul\":15570:15579   */\n      dup3\n        /* \"#utility.yul\":15566:15584   */\n      add\n        /* \"#utility.yul\":15558:15584   */\n      swap1\n      pop\n        /* \"#utility.yul\":15630:15639   */\n      dup2\n        /* \"#utility.yul\":15624:15628   */\n      dup2\n        /* \"#utility.yul\":15620:15640   */\n      sub\n        /* \"#utility.yul\":15616:15617   */\n      0x00\n        /* \"#utility.yul\":15605:15614   */\n      dup4\n        /* \"#utility.yul\":15601:15618   */\n      add\n        /* \"#utility.yul\":15594:15641   */\n      mstore\n        /* \"#utility.yul\":15658:15789   */\n      tag_369\n        /* \"#utility.yul\":15784:15788   */\n      dup2\n        /* \"#utility.yul\":15658:15789   */\n      tag_218\n      jump\t// in\n    tag_369:\n        /* \"#utility.yul\":15650:15789   */\n      swap1\n      pop\n        /* \"#utility.yul\":15377:15796   */\n      swap2\n      swap1\n      pop\n      jump\t// out\n        /* \"#utility.yul\":15802:15976   */\n    tag_219:\n        /* \"#utility.yul\":15942:15968   */\n      0x5265717565737420616c726561647920617070726f7665640000000000000000\n        /* \"#utility.yul\":15938:15939   */\n      0x00\n        /* \"#utility.yul\":15930:15936   */\n      dup3\n        /* \"#utility.yul\":15926:15940   */\n      add\n        /* \"#utility.yul\":15919:15969   */\n      mstore\n        /* \"#utility.yul\":15802:15976   */\n      pop\n      jump\t// out\n        /* \"#utility.yul\":15982:16348   */\n    tag_220:\n        /* \"#utility.yul\":16124:16127   */\n      0x00\n        /* \"#utility.yul\":16145:16212   */\n      tag_372\n        /* \"#utility.yul\":16209:16211   */\n      0x18\n        /* \"#utility.yul\":16204:16207   */\n      dup4\n        /* \"#utility.yul\":16145:16212   */\n      tag_185\n      jump\t// in\n    tag_372:\n        /* \"#utility.yul\":16138:16212   */\n      swap2\n      pop\n        /* \"#utility.yul\":16221:16314   */\n      tag_373\n        /* \"#utility.yul\":16310:16313   */\n      dup3\n        /* \"#utility.yul\":16221:16314   */\n      tag_219\n      jump\t// in\n    tag_373:\n        /* \"#utility.yul\":16339:16341   */\n      0x20\n        /* \"#utility.yul\":16334:16337   */\n      dup3\n        /* \"#utility.yul\":16330:16342   */\n      add\n        /* \"#utility.yul\":16323:16342   */\n      swap1\n      pop\n        /* \"#utility.yul\":15982:16348   */\n      swap2\n      swap1\n      pop\n      jump\t// out\n        /* \"#utility.yul\":16354:16773   */\n    tag_150:\n        /* \"#utility.yul\":16520:16524   */\n      0x00\n        /* \"#utility.yul\":16558:16560   */\n      0x20\n        /* \"#utility.yul\":16547:16556   */\n      dup3\n        /* \"#utility.yul\":16543:16561   */\n      add\n        /* \"#utility.yul\":16535:16561   */\n      swap1\n      pop\n        /* \"#utility.yul\":16607:16616   */\n      dup2\n        /* \"#utility.yul\":16601:16605   */\n      dup2\n        /* \"#utility.yul\":16597:16617   */\n      sub\n        /* \"#utility.yul\":16593:16594   */\n      0x00\n        /* \"#utility.yul\":16582:16591   */\n      dup4\n        /* \"#utility.yul\":16578:16595   */\n      add\n        /* \"#utility.yul\":16571:16618   */\n      mstore\n        /* \"#utility.yul\":16635:16766   */\n      tag_375\n        /* \"#utility.yul\":16761:16765   */\n      dup2\n        /* \"#utility.yul\":16635:16766   */\n      tag_220\n      jump\t// in\n    tag_375:\n        /* \"#utility.yul\":16627:16766   */\n      swap1\n      pop\n        /* \"#utility.yul\":16354:16773   */\n      swap2\n      swap1\n      pop\n      jump\t// out\n\n    auxdata: 0xa26469706673582212201a873b7a951ed758b920c46d0d3e0203fc6b5e9f1825d65874c52a5c7ab4e51864736f6c63430008090033\n}\n","bytecode":{"linkReferences":{},"object":"60806040523480156200001157600080fd5b5060405162001d4438038062001d448339818101604052810190620000379190620003c2565b80600460006101000a81548173ffffffffffffffffffffffffffffffffffffffff021916908373ffffffffffffffffffffffffffffffffffffffff160217905550846000908051906020019062000090929190620000d5565b508360019080519060200190620000a9929190620000d5565b508260029080519060200190620000c2929190620000d5565b508160058190555050505050506200050c565b828054620000e390620004d6565b90600052602060002090601f01602090048101928262000107576000855562000153565b82601f106200012257805160ff191683800117855562000153565b8280016001018555821562000153579182015b828111156200015257825182559160200191906001019062000135565b5b50905062000162919062000166565b5090565b5b808211156200018157600081600090555060010162000167565b5090565b6000604051905090565b600080fd5b600080fd5b600080fd5b600080fd5b6000601f19601f8301169050919050565b7f4e487b7100000000000000000000000000000000000000000000000000000000600052604160045260246000fd5b620001ee82620001a3565b810181811067ffffffffffffffff8211171562000210576200020f620001b4565b5b80604052505050565b60006200022562000185565b9050620002338282620001e3565b919050565b600067ffffffffffffffff821115620002565762000255620001b4565b5b6200026182620001a3565b9050602081019050919050565b60005b838110156200028e57808201518184015260208101905062000271565b838111156200029e576000848401525b50505050565b6000620002bb620002b58462000238565b62000219565b905082815260208101848484011115620002da57620002d96200019e565b5b620002e78482856200026e565b509392505050565b600082601f83011262000307576200030662000199565b5b815162000319848260208601620002a4565b91505092915050565b6000819050919050565b620003378162000322565b81146200034357600080fd5b50565b60008151905062000357816200032c565b92915050565b600073ffffffffffffffffffffffffffffffffffffffff82169050919050565b60006200038a826200035d565b9050919050565b6200039c816200037d565b8114620003a857600080fd5b50565b600081519050620003bc8162000391565b92915050565b600080600080600060a08688031215620003e157620003e06200018f565b5b600086015167ffffffffffffffff81111562000402576200040162000194565b5b6200041088828901620002ef565b955050602086015167ffffffffffffffff81111562000434576200043362000194565b5b6200044288828901620002ef565b945050604086015167ffffffffffffffff81111562000466576200046562000194565b5b6200047488828901620002ef565b9350506060620004878882890162000346565b92505060806200049a88828901620003ab565b9150509295509295909350565b7f4e487b7100000000000000000000000000000000000000000000000000000000600052602260045260246000fd5b60006002820490506001821680620004ef57607f821691505b60208210811415620005065762000505620004a7565b5b50919050565b611828806200051c6000396000f3fe6080604052600436106100dd5760003560e01c806381d12c581161007f578063937e09b111610059578063937e09b1146102b4578063d7bb99ba146102df578063d7d1bbdb146102e9578063fbbf93a014610312576100dd565b806381d12c581461021f57806382fde093146102605780638a9cfd551461028b576100dd565b80633410452a116100bb5780633410452a14610173578063426bfd001461019e578063481c6a75146101c95780637284e416146101f4576100dd565b806303441006146100e257806306fdde031461010b5780630a14439114610136575b600080fd5b3480156100ee57600080fd5b5061010960048036038101906101049190610f28565b610344565b005b34801561011757600080fd5b50610120610530565b60405161012d9190610fee565b60405180910390f35b34801561014257600080fd5b5061015d6004803603810190610158919061106e565b6105be565b60405161016a91906110b6565b60405180910390f35b34801561017f57600080fd5b506101886105de565b60405161019591906110e0565b60405180910390f35b3480156101aa57600080fd5b506101b36105eb565b6040516101c09190610fee565b60405180910390f35b3480156101d557600080fd5b506101de610679565b6040516101eb919061110a565b60405180910390f35b34801561020057600080fd5b5061020961069f565b6040516102169190610fee565b60405180910390f35b34801561022b57600080fd5b5061024660048036038101906102419190610f28565b61072d565b604051610257959493929190611125565b60405180910390f35b34801561026c57600080fd5b50610275610828565b60405161028291906110e0565b60405180910390f35b34801561029757600080fd5b506102b260048036038101906102ad91906112b4565b61082e565b005b3480156102c057600080fd5b506102c9610974565b6040516102d691906110e0565b60405180910390f35b6102e761097a565b005b3480156102f557600080fd5b50610310600480360381019061030b9190610f28565b610a82565b005b34801561031e57600080fd5b50610327610c3b565b60405161033b989796959493929190611323565b60405180910390f35b600460009054906101000a900473ffffffffffffffffffffffffffffffffffffffff1673ffffffffffffffffffffffffffffffffffffffff163373ffffffffffffffffffffffffffffffffffffffff16146103d4576040517f08c379a00000000000000000000000000000000000000000000000000000000081526004016103cb90611428565b60405180910390fd5b6000600382815481106103ea576103e9611448565b5b90600052602060002090600502019050600260075461040991906114d5565b81600301541161044e576040517f08c379a000000000000000000000000000000000000000000000000000000000815260040161044590611552565b60405180910390fd5b8060020160149054906101000a900460ff16156104a0576040517f08c379a0000000000000000000000000000000000000000000000000000000008152600401610497906115be565b60405180910390fd5b8060020160009054906101000a900473ffffffffffffffffffffffffffffffffffffffff1673ffffffffffffffffffffffffffffffffffffffff166108fc82600101549081150290604051600060405180830381858888f1935050505015801561050e573d6000803e3d6000fd5b5060018160020160146101000a81548160ff0219169083151502179055505050565b6000805461053d9061160d565b80601f01602080910402602001604051908101604052809291908181526020018280546105699061160d565b80156105b65780601f1061058b576101008083540402835291602001916105b6565b820191906000526020600020905b81548152906001019060200180831161059957829003601f168201915b505050505081565b60066020528060005260406000206000915054906101000a900460ff1681565b6000600380549050905090565b600280546105f89061160d565b80601f01602080910402602001604051908101604052809291908181526020018280546106249061160d565b80156106715780601f1061064657610100808354040283529160200191610671565b820191906000526020600020905b81548152906001019060200180831161065457829003601f168201915b505050505081565b600460009054906101000a900473ffffffffffffffffffffffffffffffffffffffff1681565b600180546106ac9061160d565b80601f01602080910402602001604051908101604052809291908181526020018280546106d89061160d565b80156107255780601f106106fa57610100808354040283529160200191610725565b820191906000526020600020905b81548152906001019060200180831161070857829003601f168201915b505050505081565b6003818154811061073d57600080fd5b90600052602060002090600502016000915090508060000180546107609061160d565b80601f016020809104026020016040519081016040528092919081815260200182805461078c9061160d565b80156107d95780601f106107ae576101008083540402835291602001916107d9565b820191906000526020600020905b8154815290600101906020018083116107bc57829003601f168201915b5050505050908060010154908060020160009054906101000a900473ffffffffffffffffffffffffffffffffffffffff16908060020160149054906101000a900460ff16908060030154905085565b60075481565b600460009054906101000a900473ffffffffffffffffffffffffffffffffffffffff1673ffffffffffffffffffffffffffffffffffffffff163373ffffffffffffffffffffffffffffffffffffffff16146108be576040517f08c379a00000000000000000000000000000000000000000000000000000000081526004016108b590611428565b60405180910390fd5b600060036001816001815401808255809150500390600052602060002090600502019050838160000190805190602001906108fa929190610e3b565b50828160010181905550818160020160006101000a81548173ffffffffffffffffffffffffffffffffffffffff021916908373ffffffffffffffffffffffffffffffffffffffff16021790555060008160020160146101000a81548160ff0219169083151502179055506000816003018190555050505050565b60055481565b60055434116109be576040517f08c379a00000000000000000000000000000000000000000000000000000000081526004016109b5906116b1565b60405180910390fd5b600660003373ffffffffffffffffffffffffffffffffffffffff1673ffffffffffffffffffffffffffffffffffffffff16815260200190815260200160002060009054906101000a900460ff16610a80576001600660003373ffffffffffffffffffffffffffffffffffffffff1673ffffffffffffffffffffffffffffffffffffffff16815260200190815260200160002060006101000a81548160ff02191690831515021790555060076000815480929190610a7a906116d1565b91905055505b565b600060038281548110610a9857610a97611448565b5b90600052602060002090600502019050600660003373ffffffffffffffffffffffffffffffffffffffff1673ffffffffffffffffffffffffffffffffffffffff16815260200190815260200160002060009054906101000a900460ff16610b34576040517f08c379a0000000000000000000000000000000000000000000000000000000008152600401610b2b90611766565b60405180910390fd5b8060040160003373ffffffffffffffffffffffffffffffffffffffff1673ffffffffffffffffffffffffffffffffffffffff16815260200190815260200160002060009054906101000a900460ff1615610bc3576040517f08c379a0000000000000000000000000000000000000000000000000000000008152600401610bba906117d2565b60405180910390fd5b60018160040160003373ffffffffffffffffffffffffffffffffffffffff1673ffffffffffffffffffffffffffffffffffffffff16815260200190815260200160002060006101000a81548160ff021916908315150217905550806003016000815480929190610c32906116d1565b91905055505050565b60608060606000806000806000806001600260055447600380549050600754600460009054906101000a900473ffffffffffffffffffffffffffffffffffffffff16878054610c899061160d565b80601f0160208091040260200160405190810160405280929190818152602001828054610cb59061160d565b8015610d025780601f10610cd757610100808354040283529160200191610d02565b820191906000526020600020905b815481529060010190602001808311610ce557829003601f168201915b50505050509750868054610d159061160d565b80601f0160208091040260200160405190810160405280929190818152602001828054610d419061160d565b8015610d8e5780601f10610d6357610100808354040283529160200191610d8e565b820191906000526020600020905b815481529060010190602001808311610d7157829003601f168201915b50505050509650858054610da19061160d565b80601f0160208091040260200160405190810160405280929190818152602001828054610dcd9061160d565b8015610e1a5780601f10610def57610100808354040283529160200191610e1a565b820191906000526020600020905b815481529060010190602001808311610dfd57829003601f168201915b50505050509550975097509750975097509750975097509091929394959697565b828054610e479061160d565b90600052602060002090601f016020900481019282610e695760008555610eb0565b82601f10610e8257805160ff1916838001178555610eb0565b82800160010185558215610eb0579182015b82811115610eaf578251825591602001919060010190610e94565b5b509050610ebd9190610ec1565b5090565b5b80821115610eda576000816000905550600101610ec2565b5090565b6000604051905090565b600080fd5b600080fd5b6000819050919050565b610f0581610ef2565b8114610f1057600080fd5b50565b600081359050610f2281610efc565b92915050565b600060208284031215610f3e57610f3d610ee8565b5b6000610f4c84828501610f13565b91505092915050565b600081519050919050565b600082825260208201905092915050565b60005b83811015610f8f578082015181840152602081019050610f74565b83811115610f9e576000848401525b50505050565b6000601f19601f8301169050919050565b6000610fc082610f55565b610fca8185610f60565b9350610fda818560208601610f71565b610fe381610fa4565b840191505092915050565b600060208201905081810360008301526110088184610fb5565b905092915050565b600073ffffffffffffffffffffffffffffffffffffffff82169050919050565b600061103b82611010565b9050919050565b61104b81611030565b811461105657600080fd5b50565b60008135905061106881611042565b92915050565b60006020828403121561108457611083610ee8565b5b600061109284828501611059565b91505092915050565b60008115159050919050565b6110b08161109b565b82525050565b60006020820190506110cb60008301846110a7565b92915050565b6110da81610ef2565b82525050565b60006020820190506110f560008301846110d1565b92915050565b61110481611030565b82525050565b600060208201905061111f60008301846110fb565b92915050565b600060a082019050818103600083015261113f8188610fb5565b905061114e60208301876110d1565b61115b60408301866110fb565b61116860608301856110a7565b61117560808301846110d1565b9695505050505050565b600080fd5b600080fd5b7f4e487b7100000000000000000000000000000000000000000000000000000000600052604160045260246000fd5b6111c182610fa4565b810181811067ffffffffffffffff821117156111e0576111df611189565b5b80604052505050565b60006111f3610ede565b90506111ff82826111b8565b919050565b600067ffffffffffffffff82111561121f5761121e611189565b5b61122882610fa4565b9050602081019050919050565b82818337600083830152505050565b600061125761125284611204565b6111e9565b90508281526020810184848401111561127357611272611184565b5b61127e848285611235565b509392505050565b600082601f83011261129b5761129a61117f565b5b81356112ab848260208601611244565b91505092915050565b6000806000606084860312156112cd576112cc610ee8565b5b600084013567ffffffffffffffff8111156112eb576112ea610eed565b5b6112f786828701611286565b935050602061130886828701610f13565b925050604061131986828701611059565b9150509250925092565b600061010082019050818103600083015261133e818b610fb5565b90508181036020830152611352818a610fb5565b905081810360408301526113668189610fb5565b905061137560608301886110d1565b61138260808301876110d1565b61138f60a08301866110d1565b61139c60c08301856110d1565b6113a960e08301846110fb565b9998505050505050505050565b7f4f6e6c79206d616e616765722063616e2063616c6c20746869732066756e637460008201527f696f6e0000000000000000000000000000000000000000000000000000000000602082015250565b6000611412602383610f60565b915061141d826113b6565b604082019050919050565b6000602082019050818103600083015261144181611405565b9050919050565b7f4e487b7100000000000000000000000000000000000000000000000000000000600052603260045260246000fd5b7f4e487b7100000000000000000000000000000000000000000000000000000000600052601260045260246000fd5b7f4e487b7100000000000000000000000000000000000000000000000000000000600052601160045260246000fd5b60006114e082610ef2565b91506114eb83610ef2565b9250826114fb576114fa611477565b5b828204905092915050565b7f4e6f7420656e6f75676820617070726f76616c73000000000000000000000000600082015250565b600061153c601483610f60565b915061154782611506565b602082019050919050565b6000602082019050818103600083015261156b8161152f565b9050919050565b7f5265717565737420616c72656164792066696e616c697a656400000000000000600082015250565b60006115a8601983610f60565b91506115b382611572565b602082019050919050565b600060208201905081810360008301526115d78161159b565b9050919050565b7f4e487b7100000000000000000000000000000000000000000000000000000000600052602260045260246000fd5b6000600282049050600182168061162557607f821691505b60208210811415611639576116386115de565b5b50919050565b7f436f6e747269627574696f6e206973206c657373207468616e206d696e696d7560008201527f6d00000000000000000000000000000000000000000000000000000000000000602082015250565b600061169b602183610f60565b91506116a68261163f565b604082019050919050565b600060208201905081810360008301526116ca8161168e565b9050919050565b60006116dc82610ef2565b91507fffffffffffffffffffffffffffffffffffffffffffffffffffffffffffffffff82141561170f5761170e6114a6565b5b600182019050919050565b7f4f6e6c7920617070726f766572732063616e20617070726f7665000000000000600082015250565b6000611750601a83610f60565b915061175b8261171a565b602082019050919050565b6000602082019050818103600083015261177f81611743565b9050919050565b7f5265717565737420616c726561647920617070726f7665640000000000000000600082015250565b60006117bc601883610f60565b91506117c782611786565b602082019050919050565b600060208201905081810360008301526117eb816117af565b905091905056fea26469706673582212201a873b7a951ed758b920c46d0d3e0203fc6b5e9f1825d65874c52a5c7ab4e51864736f6c63430008090033","opcodes":"PUSH1 0x80 PUSH1 0x40 MSTORE CALLVALUE DUP1 ISZERO PUSH3 0x11 JUMPI PUSH1 0x0 DUP1 REVERT JUMPDEST POP PUSH1 0x40 MLOAD PUSH3 0x1D44 CODESIZE SUB DUP1 PUSH3 0x1D44 DUP4 CODECOPY DUP2 DUP2 ADD PUSH1 0x40 MSTORE DUP2 ADD SWAP1 PUSH3 0x37 SWAP2 SWAP1 PUSH3 0x3C2 JUMP JUMPDEST DUP1 PUSH1 0x4 PUSH1 0x0 PUSH2 0x100 EXP DUP2 SLOAD DUP2 PUSH20 0xFFFFFFFFFFFFFFFFFFFFFFFFFFFFFFFFFFFFFFFF MUL NOT AND SWAP1 DUP4 PUSH20 0xFFFFFFFFFFFFFFFFFFFFFFFFFFFFFFFFFFFFFFFF AND MUL OR SWAP1 SSTORE POP DUP5 PUSH1 0x0 SWAP1 DUP1 MLOAD SWAP1 PUSH1 0x20 ADD SWAP1 PUSH3 0x90 SWAP3 SWAP2 SWAP1 PUSH3 0xD5 JUMP JUMPDEST POP DUP4 PUSH1 0x1 SWAP1 DUP1 MLOAD SWAP1 PUSH1 0x20 ADD SWAP1 PUSH3 0xA9 SWAP3 SWAP2 SWAP1 PUSH3 0xD5 JUMP JUMPDEST POP DUP3 PUSH1 0x2 SWAP1 DUP1 MLOAD SWAP1 PUSH1 0x20 ADD SWAP1 PUSH3 0xC2 SWAP3 SWAP2 SWAP1 PUSH3 0xD5 JUMP JUMPDEST POP DUP2 PUSH1 0x5 DUP2 SWAP1 SSTORE POP POP POP POP POP POP PUSH3 0x50C JUMP JUMPDEST DUP3 DUP1 SLOAD PUSH3 0xE3 SWAP1 PUSH3 0x4D6 JUMP JUMPDEST SWAP1 PUSH1 0x0 MSTORE PUSH1 0x20 PUSH1 0x0 KECCAK256 SWAP1 PUSH1 0x1F ADD PUSH1 0x20 SWAP1 DIV DUP2 ADD SWAP3 DUP3 PUSH3 0x107 JUMPI PUSH1 0x0 DUP6 SSTORE PUSH3 0x153 JUMP JUMPDEST DUP3 PUSH1 0x1F LT PUSH3 0x122 JUMPI DUP1 MLOAD PUSH1 0xFF NOT AND DUP4 DUP1 ADD OR DUP6 SSTORE PUSH3 0x153 JUMP JUMPDEST DUP3 DUP1 ADD PUSH1 0x1 ADD DUP6 SSTORE DUP3 ISZERO PUSH3 0x153 JUMPI SWAP2 DUP3 ADD JUMPDEST DUP3 DUP2 GT ISZERO PUSH3 0x152 JUMPI DUP3 MLOAD DUP3 SSTORE SWAP2 PUSH1 0x20 ADD SWAP2 SWAP1 PUSH1 0x1 ADD SWAP1 PUSH3 0x135 JUMP JUMPDEST JUMPDEST POP SWAP1 POP PUSH3 0x162 SWAP2 SWAP1 PUSH3 0x166 JUMP JUMPDEST POP SWAP1 JUMP JUMPDEST JUMPDEST DUP1 DUP3 GT ISZERO PUSH3 0x181 JUMPI PUSH1 0x0 DUP2 PUSH1 0x0 SWAP1 SSTORE POP PUSH1 0x1 ADD PUSH3 0x167 JUMP JUMPDEST POP SWAP1 JUMP JUMPDEST PUSH1 0x0 PUSH1 0x40 MLOAD SWAP1 POP SWAP1 JUMP JUMPDEST PUSH1 0x0 DUP1 REVERT JUMPDEST PUSH1 0x0 DUP1 REVERT JUMPDEST PUSH1 0x0 DUP1 REVERT JUMPDEST PUSH1 0x0 DUP1 REVERT JUMPDEST PUSH1 0x0 PUSH1 0x1F NOT PUSH1 0x1F DUP4 ADD AND SWAP1 POP SWAP2 SWAP1 POP JUMP JUMPDEST PUSH32 0x4E487B7100000000000000000000000000000000000000000000000000000000 PUSH1 0x0 MSTORE PUSH1 0x41 PUSH1 0x4 MSTORE PUSH1 0x24 PUSH1 0x0 REVERT JUMPDEST PUSH3 0x1EE DUP3 PUSH3 0x1A3 JUMP JUMPDEST DUP2 ADD DUP2 DUP2 LT PUSH8 0xFFFFFFFFFFFFFFFF DUP3 GT OR ISZERO PUSH3 0x210 JUMPI PUSH3 0x20F PUSH3 0x1B4 JUMP JUMPDEST JUMPDEST DUP1 PUSH1 0x40 MSTORE POP POP POP JUMP JUMPDEST PUSH1 0x0 PUSH3 0x225 PUSH3 0x185 JUMP JUMPDEST SWAP1 POP PUSH3 0x233 DUP3 DUP3 PUSH3 0x1E3 JUMP JUMPDEST SWAP2 SWAP1 POP JUMP JUMPDEST PUSH1 0x0 PUSH8 0xFFFFFFFFFFFFFFFF DUP3 GT ISZERO PUSH3 0x256 JUMPI PUSH3 0x255 PUSH3 0x1B4 JUMP JUMPDEST JUMPDEST PUSH3 0x261 DUP3 PUSH3 0x1A3 JUMP JUMPDEST SWAP1 POP PUSH1 0x20 DUP2 ADD SWAP1 POP SWAP2 SWAP1 POP JUMP JUMPDEST PUSH1 0x0 JUMPDEST DUP4 DUP2 LT ISZERO PUSH3 0x28E JUMPI DUP1 DUP3 ADD MLOAD DUP2 DUP5 ADD MSTORE PUSH1 0x20 DUP2 ADD SWAP1 POP PUSH3 0x271 JUMP JUMPDEST DUP4 DUP2 GT ISZERO PUSH3 0x29E JUMPI PUSH1 0x0 DUP5 DUP5 ADD MSTORE JUMPDEST POP POP POP POP JUMP JUMPDEST PUSH1 0x0 PUSH3 0x2BB PUSH3 0x2B5 DUP5 PUSH3 0x238 JUMP JUMPDEST PUSH3 0x219 JUMP JUMPDEST SWAP1 POP DUP3 DUP2 MSTORE PUSH1 0x20 DUP2 ADD DUP5 DUP5 DUP5 ADD GT ISZERO PUSH3 0x2DA JUMPI PUSH3 0x2D9 PUSH3 0x19E JUMP JUMPDEST JUMPDEST PUSH3 0x2E7 DUP5 DUP3 DUP6 PUSH3 0x26E JUMP JUMPDEST POP SWAP4 SWAP3 POP POP POP JUMP JUMPDEST PUSH1 0x0 DUP3 PUSH1 0x1F DUP4 ADD SLT PUSH3 0x307 JUMPI PUSH3 0x306 PUSH3 0x199 JUMP JUMPDEST JUMPDEST DUP2 MLOAD PUSH3 0x319 DUP5 DUP3 PUSH1 0x20 DUP7 ADD PUSH3 0x2A4 JUMP JUMPDEST SWAP2 POP POP SWAP3 SWAP2 POP POP JUMP JUMPDEST PUSH1 0x0 DUP2 SWAP1 POP SWAP2 SWAP1 POP JUMP JUMPDEST PUSH3 0x337 DUP2 PUSH3 0x322 JUMP JUMPDEST DUP2 EQ PUSH3 0x343 JUMPI PUSH1 0x0 DUP1 REVERT JUMPDEST POP JUMP JUMPDEST PUSH1 0x0 DUP2 MLOAD SWAP1 POP PUSH3 0x357 DUP2 PUSH3 0x32C JUMP JUMPDEST SWAP3 SWAP2 POP POP JUMP JUMPDEST PUSH1 0x0 PUSH20 0xFFFFFFFFFFFFFFFFFFFFFFFFFFFFFFFFFFFFFFFF DUP3 AND SWAP1 POP SWAP2 SWAP1 POP JUMP JUMPDEST PUSH1 0x0 PUSH3 0x38A DUP3 PUSH3 0x35D JUMP JUMPDEST SWAP1 POP SWAP2 SWAP1 POP JUMP JUMPDEST PUSH3 0x39C DUP2 PUSH3 0x37D JUMP JUMPDEST DUP2 EQ PUSH3 0x3A8 JUMPI PUSH1 0x0 DUP1 REVERT JUMPDEST POP JUMP JUMPDEST PUSH1 0x0 DUP2 MLOAD SWAP1 POP PUSH3 0x3BC DUP2 PUSH3 0x391 JUMP JUMPDEST SWAP3 SWAP2 POP POP JUMP JUMPDEST PUSH1 0x0 DUP1 PUSH1 0x0 DUP1 PUSH1 0x0 PUSH1 0xA0 DUP7 DUP9 SUB SLT ISZERO PUSH3 0x3E1 JUMPI PUSH3 0x3E0 PUSH3 0x18F JUMP JUMPDEST JUMPDEST PUSH1 0x0 DUP7 ADD MLOAD PUSH8 0xFFFFFFFFFFFFFFFF DUP2 GT ISZERO PUSH3 0x402 JUMPI PUSH3 0x401 PUSH3 0x194 JUMP JUMPDEST JUMPDEST PUSH3 0x410 DUP9 DUP3 DUP10 ADD PUSH3 0x2EF JUMP JUMPDEST SWAP6 POP POP PUSH1 0x20 DUP7 ADD MLOAD PUSH8 0xFFFFFFFFFFFFFFFF DUP2 GT ISZERO PUSH3 0x434 JUMPI PUSH3 0x433 PUSH3 0x194 JUMP JUMPDEST JUMPDEST PUSH3 0x442 DUP9 DUP3 DUP10 ADD PUSH3 0x2EF JUMP JUMPDEST SWAP5 POP POP PUSH1 0x40 DUP7 ADD MLOAD PUSH8 0xFFFFFFFFFFFFFFFF DUP2 GT ISZERO PUSH3 0x466 JUMPI PUSH3 0x465 PUSH3 0x194 JUMP JUMPDEST JUMPDEST PUSH3 0x474 DUP9 DUP3 DUP10 ADD PUSH3 0x2EF JUMP JUMPDEST SWAP4 POP POP PUSH1 0x60 PUSH3 0x487 DUP9 DUP3 DUP10 ADD PUSH3 0x346 JUMP JUMPDEST SWAP3 POP POP PUSH1 0x80 PUSH3 0x49A DUP9 DUP3 DUP10 ADD PUSH3 0x3AB JUMP JUMPDEST SWAP2 POP POP SWAP3 SWAP6 POP SWAP3 SWAP6 SWAP1 SWAP4 POP JUMP JUMPDEST PUSH32 0x4E487B7100000000000000000000000000000000000000000000000000000000 PUSH1 0x0 MSTORE PUSH1 0x22 PUSH1 0x4 MSTORE PUSH1 0x24 PUSH1 0x0 REVERT JUMPDEST PUSH1 0x0 PUSH1 0x2 DUP3 DIV SWAP1 POP PUSH1 0x1 DUP3 AND DUP1 PUSH3 0x4EF JUMPI PUSH1 0x7F DUP3 AND SWAP2 POP JUMPDEST PUSH1 0x20 DUP3 LT DUP2 EQ ISZERO PUSH3 0x506 JUMPI PUSH3 0x505 PUSH3 0x4A7 JUMP JUMPDEST JUMPDEST POP SWAP2 SWAP1 POP JUMP JUMPDEST PUSH2 0x1828 DUP1 PUSH3 0x51C PUSH1 0x0 CODECOPY PUSH1 0x0 RETURN INVALID PUSH1 0x80 PUSH1 0x40 MSTORE PUSH1 0x4 CALLDATASIZE LT PUSH2 0xDD JUMPI PUSH1 0x0 CALLDATALOAD PUSH1 0xE0 SHR DUP1 PUSH4 0x81D12C58 GT PUSH2 0x7F JUMPI DUP1 PUSH4 0x937E09B1 GT PUSH2 0x59 JUMPI DUP1 PUSH4 0x937E09B1 EQ PUSH2 0x2B4 JUMPI DUP1 PUSH4 0xD7BB99BA EQ PUSH2 0x2DF JUMPI DUP1 PUSH4 0xD7D1BBDB EQ PUSH2 0x2E9 JUMPI DUP1 PUSH4 0xFBBF93A0 EQ PUSH2 0x312 JUMPI PUSH2 0xDD JUMP JUMPDEST DUP1 PUSH4 0x81D12C58 EQ PUSH2 0x21F JUMPI DUP1 PUSH4 0x82FDE093 EQ PUSH2 0x260 JUMPI DUP1 PUSH4 0x8A9CFD55 EQ PUSH2 0x28B JUMPI PUSH2 0xDD JUMP JUMPDEST DUP1 PUSH4 0x3410452A GT PUSH2 0xBB JUMPI DUP1 PUSH4 0x3410452A EQ PUSH2 0x173 JUMPI DUP1 PUSH4 0x426BFD00 EQ PUSH2 0x19E JUMPI DUP1 PUSH4 0x481C6A75 EQ PUSH2 0x1C9 JUMPI DUP1 PUSH4 0x7284E416 EQ PUSH2 0x1F4 JUMPI PUSH2 0xDD JUMP JUMPDEST DUP1 PUSH4 0x3441006 EQ PUSH2 0xE2 JUMPI DUP1 PUSH4 0x6FDDE03 EQ PUSH2 0x10B JUMPI DUP1 PUSH4 0xA144391 EQ PUSH2 0x136 JUMPI JUMPDEST PUSH1 0x0 DUP1 REVERT JUMPDEST CALLVALUE DUP1 ISZERO PUSH2 0xEE JUMPI PUSH1 0x0 DUP1 REVERT JUMPDEST POP PUSH2 0x109 PUSH1 0x4 DUP1 CALLDATASIZE SUB DUP2 ADD SWAP1 PUSH2 0x104 SWAP2 SWAP1 PUSH2 0xF28 JUMP JUMPDEST PUSH2 0x344 JUMP JUMPDEST STOP JUMPDEST CALLVALUE DUP1 ISZERO PUSH2 0x117 JUMPI PUSH1 0x0 DUP1 REVERT JUMPDEST POP PUSH2 0x120 PUSH2 0x530 JUMP JUMPDEST PUSH1 0x40 MLOAD PUSH2 0x12D SWAP2 SWAP1 PUSH2 0xFEE JUMP JUMPDEST PUSH1 0x40 MLOAD DUP1 SWAP2 SUB SWAP1 RETURN JUMPDEST CALLVALUE DUP1 ISZERO PUSH2 0x142 JUMPI PUSH1 0x0 DUP1 REVERT JUMPDEST POP PUSH2 0x15D PUSH1 0x4 DUP1 CALLDATASIZE SUB DUP2 ADD SWAP1 PUSH2 0x158 SWAP2 SWAP1 PUSH2 0x106E JUMP JUMPDEST PUSH2 0x5BE JUMP JUMPDEST PUSH1 0x40 MLOAD PUSH2 0x16A SWAP2 SWAP1 PUSH2 0x10B6 JUMP JUMPDEST PUSH1 0x40 MLOAD DUP1 SWAP2 SUB SWAP1 RETURN JUMPDEST CALLVALUE DUP1 ISZERO PUSH2 0x17F JUMPI PUSH1 0x0 DUP1 REVERT JUMPDEST POP PUSH2 0x188 PUSH2 0x5DE JUMP JUMPDEST PUSH1 0x40 MLOAD PUSH2 0x195 SWAP2 SWAP1 PUSH2 0x10E0 JUMP JUMPDEST PUSH1 0x40 MLOAD DUP1 SWAP2 SUB SWAP1 RETURN JUMPDEST CALLVALUE DUP1 ISZERO PUSH2 0x1AA JUMPI PUSH1 0x0 DUP1 REVERT JUMPDEST POP PUSH2 0x1B3 PUSH2 0x5EB JUMP JUMPDEST PUSH1 0x40 MLOAD PUSH2 0x1C0 SWAP2 SWAP1 PUSH2 0xFEE JUMP JUMPDEST PUSH1 0x40 MLOAD DUP1 SWAP2 SUB SWAP1 RETURN JUMPDEST CALLVALUE DUP1 ISZERO PUSH2 0x1D5 JUMPI PUSH1 0x0 DUP1 REVERT JUMPDEST POP PUSH2 0x1DE PUSH2 0x679 JUMP JUMPDEST PUSH1 0x40 MLOAD PUSH2 0x1EB SWAP2 SWAP1 PUSH2 0x110A JUMP JUMPDEST PUSH1 0x40 MLOAD DUP1 SWAP2 SUB SWAP1 RETURN JUMPDEST CALLVALUE DUP1 ISZERO PUSH2 0x200 JUMPI PUSH1 0x0 DUP1 REVERT JUMPDEST POP PUSH2 0x209 PUSH2 0x69F JUMP JUMPDEST PUSH1 0x40 MLOAD PUSH2 0x216 SWAP2 SWAP1 PUSH2 0xFEE JUMP JUMPDEST PUSH1 0x40 MLOAD DUP1 SWAP2 SUB SWAP1 RETURN JUMPDEST CALLVALUE DUP1 ISZERO PUSH2 0x22B JUMPI PUSH1 0x0 DUP1 REVERT JUMPDEST POP PUSH2 0x246 PUSH1 0x4 DUP1 CALLDATASIZE SUB DUP2 ADD SWAP1 PUSH2 0x241 SWAP2 SWAP1 PUSH2 0xF28 JUMP JUMPDEST PUSH2 0x72D JUMP JUMPDEST PUSH1 0x40 MLOAD PUSH2 0x257 SWAP6 SWAP5 SWAP4 SWAP3 SWAP2 SWAP1 PUSH2 0x1125 JUMP JUMPDEST PUSH1 0x40 MLOAD DUP1 SWAP2 SUB SWAP1 RETURN JUMPDEST CALLVALUE DUP1 ISZERO PUSH2 0x26C JUMPI PUSH1 0x0 DUP1 REVERT JUMPDEST POP PUSH2 0x275 PUSH2 0x828 JUMP JUMPDEST PUSH1 0x40 MLOAD PUSH2 0x282 SWAP2 SWAP1 PUSH2 0x10E0 JUMP JUMPDEST PUSH1 0x40 MLOAD DUP1 SWAP2 SUB SWAP1 RETURN JUMPDEST CALLVALUE DUP1 ISZERO PUSH2 0x297 JUMPI PUSH1 0x0 DUP1 REVERT JUMPDEST POP PUSH2 0x2B2 PUSH1 0x4 DUP1 CALLDATASIZE SUB DUP2 ADD SWAP1 PUSH2 0x2AD SWAP2 SWAP1 PUSH2 0x12B4 JUMP JUMPDEST PUSH2 0x82E JUMP JUMPDEST STOP JUMPDEST CALLVALUE DUP1 ISZERO PUSH2 0x2C0 JUMPI PUSH1 0x0 DUP1 REVERT JUMPDEST POP PUSH2 0x2C9 PUSH2 0x974 JUMP JUMPDEST PUSH1 0x40 MLOAD PUSH2 0x2D6 SWAP2 SWAP1 PUSH2 0x10E0 JUMP JUMPDEST PUSH1 0x40 MLOAD DUP1 SWAP2 SUB SWAP1 RETURN JUMPDEST PUSH2 0x2E7 PUSH2 0x97A JUMP JUMPDEST STOP JUMPDEST CALLVALUE DUP1 ISZERO PUSH2 0x2F5 JUMPI PUSH1 0x0 DUP1 REVERT JUMPDEST POP PUSH2 0x310 PUSH1 0x4 DUP1 CALLDATASIZE SUB DUP2 ADD SWAP1 PUSH2 0x30B SWAP2 SWAP1 PUSH2 0xF28 JUMP JUMPDEST PUSH2 0xA82 JUMP JUMPDEST STOP JUMPDEST CALLVALUE DUP1 ISZERO PUSH2 0x31E JUMPI PUSH1 0x0 DUP1 REVERT JUMPDEST POP PUSH2 0x327 PUSH2 0xC3B JUMP JUMPDEST PUSH1 0x40 MLOAD PUSH2 0x33B SWAP9 SWAP8 SWAP7 SWAP6 SWAP5 SWAP4 SWAP3 SWAP2 SWAP1 PUSH2 0x1323 JUMP JUMPDEST PUSH1 0x40 MLOAD DUP1 SWAP2 SUB SWAP1 RETURN JUMPDEST PUSH1 0x4 PUSH1 0x0 SWAP1 SLOAD SWAP1 PUSH2 0x100 EXP SWAP1 DIV PUSH20 0xFFFFFFFFFFFFFFFFFFFFFFFFFFFFFFFFFFFFFFFF AND PUSH20 0xFFFFFFFFFFFFFFFFFFFFFFFFFFFFFFFFFFFFFFFF AND CALLER PUSH20 0xFFFFFFFFFFFFFFFFFFFFFFFFFFFFFFFFFFFFFFFF AND EQ PUSH2 0x3D4 JUMPI PUSH1 0x40 MLOAD PUSH32 0x8C379A000000000000000000000000000000000000000000000000000000000 DUP2 MSTORE PUSH1 0x4 ADD PUSH2 0x3CB SWAP1 PUSH2 0x1428 JUMP JUMPDEST PUSH1 0x40 MLOAD DUP1 SWAP2 SUB SWAP1 REVERT JUMPDEST PUSH1 0x0 PUSH1 0x3 DUP3 DUP2 SLOAD DUP2 LT PUSH2 0x3EA JUMPI PUSH2 0x3E9 PUSH2 0x1448 JUMP JUMPDEST JUMPDEST SWAP1 PUSH1 0x0 MSTORE PUSH1 0x20 PUSH1 0x0 KECCAK256 SWAP1 PUSH1 0x5 MUL ADD SWAP1 POP PUSH1 0x2 PUSH1 0x7 SLOAD PUSH2 0x409 SWAP2 SWAP1 PUSH2 0x14D5 JUMP JUMPDEST DUP2 PUSH1 0x3 ADD SLOAD GT PUSH2 0x44E JUMPI PUSH1 0x40 MLOAD PUSH32 0x8C379A000000000000000000000000000000000000000000000000000000000 DUP2 MSTORE PUSH1 0x4 ADD PUSH2 0x445 SWAP1 PUSH2 0x1552 JUMP JUMPDEST PUSH1 0x40 MLOAD DUP1 SWAP2 SUB SWAP1 REVERT JUMPDEST DUP1 PUSH1 0x2 ADD PUSH1 0x14 SWAP1 SLOAD SWAP1 PUSH2 0x100 EXP SWAP1 DIV PUSH1 0xFF AND ISZERO PUSH2 0x4A0 JUMPI PUSH1 0x40 MLOAD PUSH32 0x8C379A000000000000000000000000000000000000000000000000000000000 DUP2 MSTORE PUSH1 0x4 ADD PUSH2 0x497 SWAP1 PUSH2 0x15BE JUMP JUMPDEST PUSH1 0x40 MLOAD DUP1 SWAP2 SUB SWAP1 REVERT JUMPDEST DUP1 PUSH1 0x2 ADD PUSH1 0x0 SWAP1 SLOAD SWAP1 PUSH2 0x100 EXP SWAP1 DIV PUSH20 0xFFFFFFFFFFFFFFFFFFFFFFFFFFFFFFFFFFFFFFFF AND PUSH20 0xFFFFFFFFFFFFFFFFFFFFFFFFFFFFFFFFFFFFFFFF AND PUSH2 0x8FC DUP3 PUSH1 0x1 ADD SLOAD SWAP1 DUP2 ISZERO MUL SWAP1 PUSH1 0x40 MLOAD PUSH1 0x0 PUSH1 0x40 MLOAD DUP1 DUP4 SUB DUP2 DUP6 DUP9 DUP9 CALL SWAP4 POP POP POP POP ISZERO DUP1 ISZERO PUSH2 0x50E JUMPI RETURNDATASIZE PUSH1 0x0 DUP1 RETURNDATACOPY RETURNDATASIZE PUSH1 0x0 REVERT JUMPDEST POP PUSH1 0x1 DUP2 PUSH1 0x2 ADD PUSH1 0x14 PUSH2 0x100 EXP DUP2 SLOAD DUP2 PUSH1 0xFF MUL NOT AND SWAP1 DUP4 ISZERO ISZERO MUL OR SWAP1 SSTORE POP POP POP JUMP JUMPDEST PUSH1 0x0 DUP1 SLOAD PUSH2 0x53D SWAP1 PUSH2 0x160D JUMP JUMPDEST DUP1 PUSH1 0x1F ADD PUSH1 0x20 DUP1 SWAP2 DIV MUL PUSH1 0x20 ADD PUSH1 0x40 MLOAD SWAP1 DUP2 ADD PUSH1 0x40 MSTORE DUP1 SWAP3 SWAP2 SWAP1 DUP2 DUP2 MSTORE PUSH1 0x20 ADD DUP3 DUP1 SLOAD PUSH2 0x569 SWAP1 PUSH2 0x160D JUMP JUMPDEST DUP1 ISZERO PUSH2 0x5B6 JUMPI DUP1 PUSH1 0x1F LT PUSH2 0x58B JUMPI PUSH2 0x100 DUP1 DUP4 SLOAD DIV MUL DUP4 MSTORE SWAP2 PUSH1 0x20 ADD SWAP2 PUSH2 0x5B6 JUMP JUMPDEST DUP3 ADD SWAP2 SWAP1 PUSH1 0x0 MSTORE PUSH1 0x20 PUSH1 0x0 KECCAK256 SWAP1 JUMPDEST DUP2 SLOAD DUP2 MSTORE SWAP1 PUSH1 0x1 ADD SWAP1 PUSH1 0x20 ADD DUP1 DUP4 GT PUSH2 0x599 JUMPI DUP3 SWAP1 SUB PUSH1 0x1F AND DUP3 ADD SWAP2 JUMPDEST POP POP POP POP POP DUP2 JUMP JUMPDEST PUSH1 0x6 PUSH1 0x20 MSTORE DUP1 PUSH1 0x0 MSTORE PUSH1 0x40 PUSH1 0x0 KECCAK256 PUSH1 0x0 SWAP2 POP SLOAD SWAP1 PUSH2 0x100 EXP SWAP1 DIV PUSH1 0xFF AND DUP2 JUMP JUMPDEST PUSH1 0x0 PUSH1 0x3 DUP1 SLOAD SWAP1 POP SWAP1 POP SWAP1 JUMP JUMPDEST PUSH1 0x2 DUP1 SLOAD PUSH2 0x5F8 SWAP1 PUSH2 0x160D JUMP JUMPDEST DUP1 PUSH1 0x1F ADD PUSH1 0x20 DUP1 SWAP2 DIV MUL PUSH1 0x20 ADD PUSH1 0x40 MLOAD SWAP1 DUP2 ADD PUSH1 0x40 MSTORE DUP1 SWAP3 SWAP2 SWAP1 DUP2 DUP2 MSTORE PUSH1 0x20 ADD DUP3 DUP1 SLOAD PUSH2 0x624 SWAP1 PUSH2 0x160D JUMP JUMPDEST DUP1 ISZERO PUSH2 0x671 JUMPI DUP1 PUSH1 0x1F LT PUSH2 0x646 JUMPI PUSH2 0x100 DUP1 DUP4 SLOAD DIV MUL DUP4 MSTORE SWAP2 PUSH1 0x20 ADD SWAP2 PUSH2 0x671 JUMP JUMPDEST DUP3 ADD SWAP2 SWAP1 PUSH1 0x0 MSTORE PUSH1 0x20 PUSH1 0x0 KECCAK256 SWAP1 JUMPDEST DUP2 SLOAD DUP2 MSTORE SWAP1 PUSH1 0x1 ADD SWAP1 PUSH1 0x20 ADD DUP1 DUP4 GT PUSH2 0x654 JUMPI DUP3 SWAP1 SUB PUSH1 0x1F AND DUP3 ADD SWAP2 JUMPDEST POP POP POP POP POP DUP2 JUMP JUMPDEST PUSH1 0x4 PUSH1 0x0 SWAP1 SLOAD SWAP1 PUSH2 0x100 EXP SWAP1 DIV PUSH20 0xFFFFFFFFFFFFFFFFFFFFFFFFFFFFFFFFFFFFFFFF AND DUP2 JUMP JUMPDEST PUSH1 0x1 DUP1 SLOAD PUSH2 0x6AC SWAP1 PUSH2 0x160D JUMP JUMPDEST DUP1 PUSH1 0x1F ADD PUSH1 0x20 DUP1 SWAP2 DIV MUL PUSH1 0x20 ADD PUSH1 0x40 MLOAD SWAP1 DUP2 ADD PUSH1 0x40 MSTORE DUP1 SWAP3 SWAP2 SWAP1 DUP2 DUP2 MSTORE PUSH1 0x20 ADD DUP3 DUP1 SLOAD PUSH2 0x6D8 SWAP1 PUSH2 0x160D JUMP JUMPDEST DUP1 ISZERO PUSH2 0x725 JUMPI DUP1 PUSH1 0x1F LT PUSH2 0x6FA JUMPI PUSH2 0x100 DUP1 DUP4 SLOAD DIV MUL DUP4 MSTORE SWAP2 PUSH1 0x20 ADD SWAP2 PUSH2 0x725 JUMP JUMPDEST DUP3 ADD SWAP2 SWAP1 PUSH1 0x0 MSTORE PUSH1 0x20 PUSH1 0x0 KECCAK256 SWAP1 JUMPDEST DUP2 SLOAD DUP2 MSTORE SWAP1 PUSH1 0x1 ADD SWAP1 PUSH1 0x20 ADD DUP1 DUP4 GT PUSH2 0x708 JUMPI DUP3 SWAP1 SUB PUSH1 0x1F AND DUP3 ADD SWAP2 JUMPDEST POP POP POP POP POP DUP2 JUMP JUMPDEST PUSH1 0x3 DUP2 DUP2 SLOAD DUP2 LT PUSH2 0x73D JUMPI PUSH1 0x0 DUP1 REVERT JUMPDEST SWAP1 PUSH1 0x0 MSTORE PUSH1 0x20 PUSH1 0x0 KECCAK256 SWAP1 PUSH1 0x5 MUL ADD PUSH1 0x0 SWAP2 POP SWAP1 POP DUP1 PUSH1 0x0 ADD DUP1 SLOAD PUSH2 0x760 SWAP1 PUSH2 0x160D JUMP JUMPDEST DUP1 PUSH1 0x1F ADD PUSH1 0x20 DUP1 SWAP2 DIV MUL PUSH1 0x20 ADD PUSH1 0x40 MLOAD SWAP1 DUP2 ADD PUSH1 0x40 MSTORE DUP1 SWAP3 SWAP2 SWAP1 DUP2 DUP2 MSTORE PUSH1 0x20 ADD DUP3 DUP1 SLOAD PUSH2 0x78C SWAP1 PUSH2 0x160D JUMP JUMPDEST DUP1 ISZERO PUSH2 0x7D9 JUMPI DUP1 PUSH1 0x1F LT PUSH2 0x7AE JUMPI PUSH2 0x100 DUP1 DUP4 SLOAD DIV MUL DUP4 MSTORE SWAP2 PUSH1 0x20 ADD SWAP2 PUSH2 0x7D9 JUMP JUMPDEST DUP3 ADD SWAP2 SWAP1 PUSH1 0x0 MSTORE PUSH1 0x20 PUSH1 0x0 KECCAK256 SWAP1 JUMPDEST DUP2 SLOAD DUP2 MSTORE SWAP1 PUSH1 0x1 ADD SWAP1 PUSH1 0x20 ADD DUP1 DUP4 GT PUSH2 0x7BC JUMPI DUP3 SWAP1 SUB PUSH1 0x1F AND DUP3 ADD SWAP2 JUMPDEST POP POP POP POP POP SWAP1 DUP1 PUSH1 0x1 ADD SLOAD SWAP1 DUP1 PUSH1 0x2 ADD PUSH1 0x0 SWAP1 SLOAD SWAP1 PUSH2 0x100 EXP SWAP1 DIV PUSH20 0xFFFFFFFFFFFFFFFFFFFFFFFFFFFFFFFFFFFFFFFF AND SWAP1 DUP1 PUSH1 0x2 ADD PUSH1 0x14 SWAP1 SLOAD SWAP1 PUSH2 0x100 EXP SWAP1 DIV PUSH1 0xFF AND SWAP1 DUP1 PUSH1 0x3 ADD SLOAD SWAP1 POP DUP6 JUMP JUMPDEST PUSH1 0x7 SLOAD DUP2 JUMP JUMPDEST PUSH1 0x4 PUSH1 0x0 SWAP1 SLOAD SWAP1 PUSH2 0x100 EXP SWAP1 DIV PUSH20 0xFFFFFFFFFFFFFFFFFFFFFFFFFFFFFFFFFFFFFFFF AND PUSH20 0xFFFFFFFFFFFFFFFFFFFFFFFFFFFFFFFFFFFFFFFF AND CALLER PUSH20 0xFFFFFFFFFFFFFFFFFFFFFFFFFFFFFFFFFFFFFFFF AND EQ PUSH2 0x8BE JUMPI PUSH1 0x40 MLOAD PUSH32 0x8C379A000000000000000000000000000000000000000000000000000000000 DUP2 MSTORE PUSH1 0x4 ADD PUSH2 0x8B5 SWAP1 PUSH2 0x1428 JUMP JUMPDEST PUSH1 0x40 MLOAD DUP1 SWAP2 SUB SWAP1 REVERT JUMPDEST PUSH1 0x0 PUSH1 0x3 PUSH1 0x1 DUP2 PUSH1 0x1 DUP2 SLOAD ADD DUP1 DUP3 SSTORE DUP1 SWAP2 POP POP SUB SWAP1 PUSH1 0x0 MSTORE PUSH1 0x20 PUSH1 0x0 KECCAK256 SWAP1 PUSH1 0x5 MUL ADD SWAP1 POP DUP4 DUP2 PUSH1 0x0 ADD SWAP1 DUP1 MLOAD SWAP1 PUSH1 0x20 ADD SWAP1 PUSH2 0x8FA SWAP3 SWAP2 SWAP1 PUSH2 0xE3B JUMP JUMPDEST POP DUP3 DUP2 PUSH1 0x1 ADD DUP2 SWAP1 SSTORE POP DUP2 DUP2 PUSH1 0x2 ADD PUSH1 0x0 PUSH2 0x100 EXP DUP2 SLOAD DUP2 PUSH20 0xFFFFFFFFFFFFFFFFFFFFFFFFFFFFFFFFFFFFFFFF MUL NOT AND SWAP1 DUP4 PUSH20 0xFFFFFFFFFFFFFFFFFFFFFFFFFFFFFFFFFFFFFFFF AND MUL OR SWAP1 SSTORE POP PUSH1 0x0 DUP2 PUSH1 0x2 ADD PUSH1 0x14 PUSH2 0x100 EXP DUP2 SLOAD DUP2 PUSH1 0xFF MUL NOT AND SWAP1 DUP4 ISZERO ISZERO MUL OR SWAP1 SSTORE POP PUSH1 0x0 DUP2 PUSH1 0x3 ADD DUP2 SWAP1 SSTORE POP POP POP POP POP JUMP JUMPDEST PUSH1 0x5 SLOAD DUP2 JUMP JUMPDEST PUSH1 0x5 SLOAD CALLVALUE GT PUSH2 0x9BE JUMPI PUSH1 0x40 MLOAD PUSH32 0x8C379A000000000000000000000000000000000000000000000000000000000 DUP2 MSTORE PUSH1 0x4 ADD PUSH2 0x9B5 SWAP1 PUSH2 0x16B1 JUMP JUMPDEST PUSH1 0x40 MLOAD DUP1 SWAP2 SUB SWAP1 REVERT JUMPDEST PUSH1 0x6 PUSH1 0x0 CALLER PUSH20 0xFFFFFFFFFFFFFFFFFFFFFFFFFFFFFFFFFFFFFFFF AND PUSH20 0xFFFFFFFFFFFFFFFFFFFFFFFFFFFFFFFFFFFFFFFF AND DUP2 MSTORE PUSH1 0x20 ADD SWAP1 DUP2 MSTORE PUSH1 0x20 ADD PUSH1 0x0 KECCAK256 PUSH1 0x0 SWAP1 SLOAD SWAP1 PUSH2 0x100 EXP SWAP1 DIV PUSH1 0xFF AND PUSH2 0xA80 JUMPI PUSH1 0x1 PUSH1 0x6 PUSH1 0x0 CALLER PUSH20 0xFFFFFFFFFFFFFFFFFFFFFFFFFFFFFFFFFFFFFFFF AND PUSH20 0xFFFFFFFFFFFFFFFFFFFFFFFFFFFFFFFFFFFFFFFF AND DUP2 MSTORE PUSH1 0x20 ADD SWAP1 DUP2 MSTORE PUSH1 0x20 ADD PUSH1 0x0 KECCAK256 PUSH1 0x0 PUSH2 0x100 EXP DUP2 SLOAD DUP2 PUSH1 0xFF MUL NOT AND SWAP1 DUP4 ISZERO ISZERO MUL OR SWAP1 SSTORE POP PUSH1 0x7 PUSH1 0x0 DUP2 SLOAD DUP1 SWAP3 SWAP2 SWAP1 PUSH2 0xA7A SWAP1 PUSH2 0x16D1 JUMP JUMPDEST SWAP2 SWAP1 POP SSTORE POP JUMPDEST JUMP JUMPDEST PUSH1 0x0 PUSH1 0x3 DUP3 DUP2 SLOAD DUP2 LT PUSH2 0xA98 JUMPI PUSH2 0xA97 PUSH2 0x1448 JUMP JUMPDEST JUMPDEST SWAP1 PUSH1 0x0 MSTORE PUSH1 0x20 PUSH1 0x0 KECCAK256 SWAP1 PUSH1 0x5 MUL ADD SWAP1 POP PUSH1 0x6 PUSH1 0x0 CALLER PUSH20 0xFFFFFFFFFFFFFFFFFFFFFFFFFFFFFFFFFFFFFFFF AND PUSH20 0xFFFFFFFFFFFFFFFFFFFFFFFFFFFFFFFFFFFFFFFF AND DUP2 MSTORE PUSH1 0x20 ADD SWAP1 DUP2 MSTORE PUSH1 0x20 ADD PUSH1 0x0 KECCAK256 PUSH1 0x0 SWAP1 SLOAD SWAP1 PUSH2 0x100 EXP SWAP1 DIV PUSH1 0xFF AND PUSH2 0xB34 JUMPI PUSH1 0x40 MLOAD PUSH32 0x8C379A000000000000000000000000000000000000000000000000000000000 DUP2 MSTORE PUSH1 0x4 ADD PUSH2 0xB2B SWAP1 PUSH2 0x1766 JUMP JUMPDEST PUSH1 0x40 MLOAD DUP1 SWAP2 SUB SWAP1 REVERT JUMPDEST DUP1 PUSH1 0x4 ADD PUSH1 0x0 CALLER PUSH20 0xFFFFFFFFFFFFFFFFFFFFFFFFFFFFFFFFFFFFFFFF AND PUSH20 0xFFFFFFFFFFFFFFFFFFFFFFFFFFFFFFFFFFFFFFFF AND DUP2 MSTORE PUSH1 0x20 ADD SWAP1 DUP2 MSTORE PUSH1 0x20 ADD PUSH1 0x0 KECCAK256 PUSH1 0x0 SWAP1 SLOAD SWAP1 PUSH2 0x100 EXP SWAP1 DIV PUSH1 0xFF AND ISZERO PUSH2 0xBC3 JUMPI PUSH1 0x40 MLOAD PUSH32 0x8C379A000000000000000000000000000000000000000000000000000000000 DUP2 MSTORE PUSH1 0x4 ADD PUSH2 0xBBA SWAP1 PUSH2 0x17D2 JUMP JUMPDEST PUSH1 0x40 MLOAD DUP1 SWAP2 SUB SWAP1 REVERT JUMPDEST PUSH1 0x1 DUP2 PUSH1 0x4 ADD PUSH1 0x0 CALLER PUSH20 0xFFFFFFFFFFFFFFFFFFFFFFFFFFFFFFFFFFFFFFFF AND PUSH20 0xFFFFFFFFFFFFFFFFFFFFFFFFFFFFFFFFFFFFFFFF AND DUP2 MSTORE PUSH1 0x20 ADD SWAP1 DUP2 MSTORE PUSH1 0x20 ADD PUSH1 0x0 KECCAK256 PUSH1 0x0 PUSH2 0x100 EXP DUP2 SLOAD DUP2 PUSH1 0xFF MUL NOT AND SWAP1 DUP4 ISZERO ISZERO MUL OR SWAP1 SSTORE POP DUP1 PUSH1 0x3 ADD PUSH1 0x0 DUP2 SLOAD DUP1 SWAP3 SWAP2 SWAP1 PUSH2 0xC32 SWAP1 PUSH2 0x16D1 JUMP JUMPDEST SWAP2 SWAP1 POP SSTORE POP POP POP JUMP JUMPDEST PUSH1 0x60 DUP1 PUSH1 0x60 PUSH1 0x0 DUP1 PUSH1 0x0 DUP1 PUSH1 0x0 DUP1 PUSH1 0x1 PUSH1 0x2 PUSH1 0x5 SLOAD SELFBALANCE PUSH1 0x3 DUP1 SLOAD SWAP1 POP PUSH1 0x7 SLOAD PUSH1 0x4 PUSH1 0x0 SWAP1 SLOAD SWAP1 PUSH2 0x100 EXP SWAP1 DIV PUSH20 0xFFFFFFFFFFFFFFFFFFFFFFFFFFFFFFFFFFFFFFFF AND DUP8 DUP1 SLOAD PUSH2 0xC89 SWAP1 PUSH2 0x160D JUMP JUMPDEST DUP1 PUSH1 0x1F ADD PUSH1 0x20 DUP1 SWAP2 DIV MUL PUSH1 0x20 ADD PUSH1 0x40 MLOAD SWAP1 DUP2 ADD PUSH1 0x40 MSTORE DUP1 SWAP3 SWAP2 SWAP1 DUP2 DUP2 MSTORE PUSH1 0x20 ADD DUP3 DUP1 SLOAD PUSH2 0xCB5 SWAP1 PUSH2 0x160D JUMP JUMPDEST DUP1 ISZERO PUSH2 0xD02 JUMPI DUP1 PUSH1 0x1F LT PUSH2 0xCD7 JUMPI PUSH2 0x100 DUP1 DUP4 SLOAD DIV MUL DUP4 MSTORE SWAP2 PUSH1 0x20 ADD SWAP2 PUSH2 0xD02 JUMP JUMPDEST DUP3 ADD SWAP2 SWAP1 PUSH1 0x0 MSTORE PUSH1 0x20 PUSH1 0x0 KECCAK256 SWAP1 JUMPDEST DUP2 SLOAD DUP2 MSTORE SWAP1 PUSH1 0x1 ADD SWAP1 PUSH1 0x20 ADD DUP1 DUP4 GT PUSH2 0xCE5 JUMPI DUP3 SWAP1 SUB PUSH1 0x1F AND DUP3 ADD SWAP2 JUMPDEST POP POP POP POP POP SWAP8 POP DUP7 DUP1 SLOAD PUSH2 0xD15 SWAP1 PUSH2 0x160D JUMP JUMPDEST DUP1 PUSH1 0x1F ADD PUSH1 0x20 DUP1 SWAP2 DIV MUL PUSH1 0x20 ADD PUSH1 0x40 MLOAD SWAP1 DUP2 ADD PUSH1 0x40 MSTORE DUP1 SWAP3 SWAP2 SWAP1 DUP2 DUP2 MSTORE PUSH1 0x20 ADD DUP3 DUP1 SLOAD PUSH2 0xD41 SWAP1 PUSH2 0x160D JUMP JUMPDEST DUP1 ISZERO PUSH2 0xD8E JUMPI DUP1 PUSH1 0x1F LT PUSH2 0xD63 JUMPI PUSH2 0x100 DUP1 DUP4 SLOAD DIV MUL DUP4 MSTORE SWAP2 PUSH1 0x20 ADD SWAP2 PUSH2 0xD8E JUMP JUMPDEST DUP3 ADD SWAP2 SWAP1 PUSH1 0x0 MSTORE PUSH1 0x20 PUSH1 0x0 KECCAK256 SWAP1 JUMPDEST DUP2 SLOAD DUP2 MSTORE SWAP1 PUSH1 0x1 ADD SWAP1 PUSH1 0x20 ADD DUP1 DUP4 GT PUSH2 0xD71 JUMPI DUP3 SWAP1 SUB PUSH1 0x1F AND DUP3 ADD SWAP2 JUMPDEST POP POP POP POP POP SWAP7 POP DUP6 DUP1 SLOAD PUSH2 0xDA1 SWAP1 PUSH2 0x160D JUMP JUMPDEST DUP1 PUSH1 0x1F ADD PUSH1 0x20 DUP1 SWAP2 DIV MUL PUSH1 0x20 ADD PUSH1 0x40 MLOAD SWAP1 DUP2 ADD PUSH1 0x40 MSTORE DUP1 SWAP3 SWAP2 SWAP1 DUP2 DUP2 MSTORE PUSH1 0x20 ADD DUP3 DUP1 SLOAD PUSH2 0xDCD SWAP1 PUSH2 0x160D JUMP JUMPDEST DUP1 ISZERO PUSH2 0xE1A JUMPI DUP1 PUSH1 0x1F LT PUSH2 0xDEF JUMPI PUSH2 0x100 DUP1 DUP4 SLOAD DIV MUL DUP4 MSTORE SWAP2 PUSH1 0x20 ADD SWAP2 PUSH2 0xE1A JUMP JUMPDEST DUP3 ADD SWAP2 SWAP1 PUSH1 0x0 MSTORE PUSH1 0x20 PUSH1 0x0 KECCAK256 SWAP1 JUMPDEST DUP2 SLOAD DUP2 MSTORE SWAP1 PUSH1 0x1 ADD SWAP1 PUSH1 0x20 ADD DUP1 DUP4 GT PUSH2 0xDFD JUMPI DUP3 SWAP1 SUB PUSH1 0x1F AND DUP3 ADD SWAP2 JUMPDEST POP POP POP POP POP SWAP6 POP SWAP8 POP SWAP8 POP SWAP8 POP SWAP8 POP SWAP8 POP SWAP8 POP SWAP8 POP SWAP8 POP SWAP1 SWAP2 SWAP3 SWAP4 SWAP5 SWAP6 SWAP7 SWAP8 JUMP JUMPDEST DUP3 DUP1 SLOAD PUSH2 0xE47 SWAP1 PUSH2 0x160D JUMP JUMPDEST SWAP1 PUSH1 0x0 MSTORE PUSH1 0x20 PUSH1 0x0 KECCAK256 SWAP1 PUSH1 0x1F ADD PUSH1 0x20 SWAP1 DIV DUP2 ADD SWAP3 DUP3 PUSH2 0xE69 JUMPI PUSH1 0x0 DUP6 SSTORE PUSH2 0xEB0 JUMP JUMPDEST DUP3 PUSH1 0x1F LT PUSH2 0xE82 JUMPI DUP1 MLOAD PUSH1 0xFF NOT AND DUP4 DUP1 ADD OR DUP6 SSTORE PUSH2 0xEB0 JUMP JUMPDEST DUP3 DUP1 ADD PUSH1 0x1 ADD DUP6 SSTORE DUP3 ISZERO PUSH2 0xEB0 JUMPI SWAP2 DUP3 ADD JUMPDEST DUP3 DUP2 GT ISZERO PUSH2 0xEAF JUMPI DUP3 MLOAD DUP3 SSTORE SWAP2 PUSH1 0x20 ADD SWAP2 SWAP1 PUSH1 0x1 ADD SWAP1 PUSH2 0xE94 JUMP JUMPDEST JUMPDEST POP SWAP1 POP PUSH2 0xEBD SWAP2 SWAP1 PUSH2 0xEC1 JUMP JUMPDEST POP SWAP1 JUMP JUMPDEST JUMPDEST DUP1 DUP3 GT ISZERO PUSH2 0xEDA JUMPI PUSH1 0x0 DUP2 PUSH1 0x0 SWAP1 SSTORE POP PUSH1 0x1 ADD PUSH2 0xEC2 JUMP JUMPDEST POP SWAP1 JUMP JUMPDEST PUSH1 0x0 PUSH1 0x40 MLOAD SWAP1 POP SWAP1 JUMP JUMPDEST PUSH1 0x0 DUP1 REVERT JUMPDEST PUSH1 0x0 DUP1 REVERT JUMPDEST PUSH1 0x0 DUP2 SWAP1 POP SWAP2 SWAP1 POP JUMP JUMPDEST PUSH2 0xF05 DUP2 PUSH2 0xEF2 JUMP JUMPDEST DUP2 EQ PUSH2 0xF10 JUMPI PUSH1 0x0 DUP1 REVERT JUMPDEST POP JUMP JUMPDEST PUSH1 0x0 DUP2 CALLDATALOAD SWAP1 POP PUSH2 0xF22 DUP2 PUSH2 0xEFC JUMP JUMPDEST SWAP3 SWAP2 POP POP JUMP JUMPDEST PUSH1 0x0 PUSH1 0x20 DUP3 DUP5 SUB SLT ISZERO PUSH2 0xF3E JUMPI PUSH2 0xF3D PUSH2 0xEE8 JUMP JUMPDEST JUMPDEST PUSH1 0x0 PUSH2 0xF4C DUP5 DUP3 DUP6 ADD PUSH2 0xF13 JUMP JUMPDEST SWAP2 POP POP SWAP3 SWAP2 POP POP JUMP JUMPDEST PUSH1 0x0 DUP2 MLOAD SWAP1 POP SWAP2 SWAP1 POP JUMP JUMPDEST PUSH1 0x0 DUP3 DUP3 MSTORE PUSH1 0x20 DUP3 ADD SWAP1 POP SWAP3 SWAP2 POP POP JUMP JUMPDEST PUSH1 0x0 JUMPDEST DUP4 DUP2 LT ISZERO PUSH2 0xF8F JUMPI DUP1 DUP3 ADD MLOAD DUP2 DUP5 ADD MSTORE PUSH1 0x20 DUP2 ADD SWAP1 POP PUSH2 0xF74 JUMP JUMPDEST DUP4 DUP2 GT ISZERO PUSH2 0xF9E JUMPI PUSH1 0x0 DUP5 DUP5 ADD MSTORE JUMPDEST POP POP POP POP JUMP JUMPDEST PUSH1 0x0 PUSH1 0x1F NOT PUSH1 0x1F DUP4 ADD AND SWAP1 POP SWAP2 SWAP1 POP JUMP JUMPDEST PUSH1 0x0 PUSH2 0xFC0 DUP3 PUSH2 0xF55 JUMP JUMPDEST PUSH2 0xFCA DUP2 DUP6 PUSH2 0xF60 JUMP JUMPDEST SWAP4 POP PUSH2 0xFDA DUP2 DUP6 PUSH1 0x20 DUP7 ADD PUSH2 0xF71 JUMP JUMPDEST PUSH2 0xFE3 DUP2 PUSH2 0xFA4 JUMP JUMPDEST DUP5 ADD SWAP2 POP POP SWAP3 SWAP2 POP POP JUMP JUMPDEST PUSH1 0x0 PUSH1 0x20 DUP3 ADD SWAP1 POP DUP2 DUP2 SUB PUSH1 0x0 DUP4 ADD MSTORE PUSH2 0x1008 DUP2 DUP5 PUSH2 0xFB5 JUMP JUMPDEST SWAP1 POP SWAP3 SWAP2 POP POP JUMP JUMPDEST PUSH1 0x0 PUSH20 0xFFFFFFFFFFFFFFFFFFFFFFFFFFFFFFFFFFFFFFFF DUP3 AND SWAP1 POP SWAP2 SWAP1 POP JUMP JUMPDEST PUSH1 0x0 PUSH2 0x103B DUP3 PUSH2 0x1010 JUMP JUMPDEST SWAP1 POP SWAP2 SWAP1 POP JUMP JUMPDEST PUSH2 0x104B DUP2 PUSH2 0x1030 JUMP JUMPDEST DUP2 EQ PUSH2 0x1056 JUMPI PUSH1 0x0 DUP1 REVERT JUMPDEST POP JUMP JUMPDEST PUSH1 0x0 DUP2 CALLDATALOAD SWAP1 POP PUSH2 0x1068 DUP2 PUSH2 0x1042 JUMP JUMPDEST SWAP3 SWAP2 POP POP JUMP JUMPDEST PUSH1 0x0 PUSH1 0x20 DUP3 DUP5 SUB SLT ISZERO PUSH2 0x1084 JUMPI PUSH2 0x1083 PUSH2 0xEE8 JUMP JUMPDEST JUMPDEST PUSH1 0x0 PUSH2 0x1092 DUP5 DUP3 DUP6 ADD PUSH2 0x1059 JUMP JUMPDEST SWAP2 POP POP SWAP3 SWAP2 POP POP JUMP JUMPDEST PUSH1 0x0 DUP2 ISZERO ISZERO SWAP1 POP SWAP2 SWAP1 POP JUMP JUMPDEST PUSH2 0x10B0 DUP2 PUSH2 0x109B JUMP JUMPDEST DUP3 MSTORE POP POP JUMP JUMPDEST PUSH1 0x0 PUSH1 0x20 DUP3 ADD SWAP1 POP PUSH2 0x10CB PUSH1 0x0 DUP4 ADD DUP5 PUSH2 0x10A7 JUMP JUMPDEST SWAP3 SWAP2 POP POP JUMP JUMPDEST PUSH2 0x10DA DUP2 PUSH2 0xEF2 JUMP JUMPDEST DUP3 MSTORE POP POP JUMP JUMPDEST PUSH1 0x0 PUSH1 0x20 DUP3 ADD SWAP1 POP PUSH2 0x10F5 PUSH1 0x0 DUP4 ADD DUP5 PUSH2 0x10D1 JUMP JUMPDEST SWAP3 SWAP2 POP POP JUMP JUMPDEST PUSH2 0x1104 DUP2 PUSH2 0x1030 JUMP JUMPDEST DUP3 MSTORE POP POP JUMP JUMPDEST PUSH1 0x0 PUSH1 0x20 DUP3 ADD SWAP1 POP PUSH2 0x111F PUSH1 0x0 DUP4 ADD DUP5 PUSH2 0x10FB JUMP JUMPDEST SWAP3 SWAP2 POP POP JUMP JUMPDEST PUSH1 0x0 PUSH1 0xA0 DUP3 ADD SWAP1 POP DUP2 DUP2 SUB PUSH1 0x0 DUP4 ADD MSTORE PUSH2 0x113F DUP2 DUP9 PUSH2 0xFB5 JUMP JUMPDEST SWAP1 POP PUSH2 0x114E PUSH1 0x20 DUP4 ADD DUP8 PUSH2 0x10D1 JUMP JUMPDEST PUSH2 0x115B PUSH1 0x40 DUP4 ADD DUP7 PUSH2 0x10FB JUMP JUMPDEST PUSH2 0x1168 PUSH1 0x60 DUP4 ADD DUP6 PUSH2 0x10A7 JUMP JUMPDEST PUSH2 0x1175 PUSH1 0x80 DUP4 ADD DUP5 PUSH2 0x10D1 JUMP JUMPDEST SWAP7 SWAP6 POP POP POP POP POP POP JUMP JUMPDEST PUSH1 0x0 DUP1 REVERT JUMPDEST PUSH1 0x0 DUP1 REVERT JUMPDEST PUSH32 0x4E487B7100000000000000000000000000000000000000000000000000000000 PUSH1 0x0 MSTORE PUSH1 0x41 PUSH1 0x4 MSTORE PUSH1 0x24 PUSH1 0x0 REVERT JUMPDEST PUSH2 0x11C1 DUP3 PUSH2 0xFA4 JUMP JUMPDEST DUP2 ADD DUP2 DUP2 LT PUSH8 0xFFFFFFFFFFFFFFFF DUP3 GT OR ISZERO PUSH2 0x11E0 JUMPI PUSH2 0x11DF PUSH2 0x1189 JUMP JUMPDEST JUMPDEST DUP1 PUSH1 0x40 MSTORE POP POP POP JUMP JUMPDEST PUSH1 0x0 PUSH2 0x11F3 PUSH2 0xEDE JUMP JUMPDEST SWAP1 POP PUSH2 0x11FF DUP3 DUP3 PUSH2 0x11B8 JUMP JUMPDEST SWAP2 SWAP1 POP JUMP JUMPDEST PUSH1 0x0 PUSH8 0xFFFFFFFFFFFFFFFF DUP3 GT ISZERO PUSH2 0x121F JUMPI PUSH2 0x121E PUSH2 0x1189 JUMP JUMPDEST JUMPDEST PUSH2 0x1228 DUP3 PUSH2 0xFA4 JUMP JUMPDEST SWAP1 POP PUSH1 0x20 DUP2 ADD SWAP1 POP SWAP2 SWAP1 POP JUMP JUMPDEST DUP3 DUP2 DUP4 CALLDATACOPY PUSH1 0x0 DUP4 DUP4 ADD MSTORE POP POP POP JUMP JUMPDEST PUSH1 0x0 PUSH2 0x1257 PUSH2 0x1252 DUP5 PUSH2 0x1204 JUMP JUMPDEST PUSH2 0x11E9 JUMP JUMPDEST SWAP1 POP DUP3 DUP2 MSTORE PUSH1 0x20 DUP2 ADD DUP5 DUP5 DUP5 ADD GT ISZERO PUSH2 0x1273 JUMPI PUSH2 0x1272 PUSH2 0x1184 JUMP JUMPDEST JUMPDEST PUSH2 0x127E DUP5 DUP3 DUP6 PUSH2 0x1235 JUMP JUMPDEST POP SWAP4 SWAP3 POP POP POP JUMP JUMPDEST PUSH1 0x0 DUP3 PUSH1 0x1F DUP4 ADD SLT PUSH2 0x129B JUMPI PUSH2 0x129A PUSH2 0x117F JUMP JUMPDEST JUMPDEST DUP2 CALLDATALOAD PUSH2 0x12AB DUP5 DUP3 PUSH1 0x20 DUP7 ADD PUSH2 0x1244 JUMP JUMPDEST SWAP2 POP POP SWAP3 SWAP2 POP POP JUMP JUMPDEST PUSH1 0x0 DUP1 PUSH1 0x0 PUSH1 0x60 DUP5 DUP7 SUB SLT ISZERO PUSH2 0x12CD JUMPI PUSH2 0x12CC PUSH2 0xEE8 JUMP JUMPDEST JUMPDEST PUSH1 0x0 DUP5 ADD CALLDATALOAD PUSH8 0xFFFFFFFFFFFFFFFF DUP2 GT ISZERO PUSH2 0x12EB JUMPI PUSH2 0x12EA PUSH2 0xEED JUMP JUMPDEST JUMPDEST PUSH2 0x12F7 DUP7 DUP3 DUP8 ADD PUSH2 0x1286 JUMP JUMPDEST SWAP4 POP POP PUSH1 0x20 PUSH2 0x1308 DUP7 DUP3 DUP8 ADD PUSH2 0xF13 JUMP JUMPDEST SWAP3 POP POP PUSH1 0x40 PUSH2 0x1319 DUP7 DUP3 DUP8 ADD PUSH2 0x1059 JUMP JUMPDEST SWAP2 POP POP SWAP3 POP SWAP3 POP SWAP3 JUMP JUMPDEST PUSH1 0x0 PUSH2 0x100 DUP3 ADD SWAP1 POP DUP2 DUP2 SUB PUSH1 0x0 DUP4 ADD MSTORE PUSH2 0x133E DUP2 DUP12 PUSH2 0xFB5 JUMP JUMPDEST SWAP1 POP DUP2 DUP2 SUB PUSH1 0x20 DUP4 ADD MSTORE PUSH2 0x1352 DUP2 DUP11 PUSH2 0xFB5 JUMP JUMPDEST SWAP1 POP DUP2 DUP2 SUB PUSH1 0x40 DUP4 ADD MSTORE PUSH2 0x1366 DUP2 DUP10 PUSH2 0xFB5 JUMP JUMPDEST SWAP1 POP PUSH2 0x1375 PUSH1 0x60 DUP4 ADD DUP9 PUSH2 0x10D1 JUMP JUMPDEST PUSH2 0x1382 PUSH1 0x80 DUP4 ADD DUP8 PUSH2 0x10D1 JUMP JUMPDEST PUSH2 0x138F PUSH1 0xA0 DUP4 ADD DUP7 PUSH2 0x10D1 JUMP JUMPDEST PUSH2 0x139C PUSH1 0xC0 DUP4 ADD DUP6 PUSH2 0x10D1 JUMP JUMPDEST PUSH2 0x13A9 PUSH1 0xE0 DUP4 ADD DUP5 PUSH2 0x10FB JUMP JUMPDEST SWAP10 SWAP9 POP POP POP POP POP POP POP POP POP JUMP JUMPDEST PUSH32 0x4F6E6C79206D616E616765722063616E2063616C6C20746869732066756E6374 PUSH1 0x0 DUP3 ADD MSTORE PUSH32 0x696F6E0000000000000000000000000000000000000000000000000000000000 PUSH1 0x20 DUP3 ADD MSTORE POP JUMP JUMPDEST PUSH1 0x0 PUSH2 0x1412 PUSH1 0x23 DUP4 PUSH2 0xF60 JUMP JUMPDEST SWAP2 POP PUSH2 0x141D DUP3 PUSH2 0x13B6 JUMP JUMPDEST PUSH1 0x40 DUP3 ADD SWAP1 POP SWAP2 SWAP1 POP JUMP JUMPDEST PUSH1 0x0 PUSH1 0x20 DUP3 ADD SWAP1 POP DUP2 DUP2 SUB PUSH1 0x0 DUP4 ADD MSTORE PUSH2 0x1441 DUP2 PUSH2 0x1405 JUMP JUMPDEST SWAP1 POP SWAP2 SWAP1 POP JUMP JUMPDEST PUSH32 0x4E487B7100000000000000000000000000000000000000000000000000000000 PUSH1 0x0 MSTORE PUSH1 0x32 PUSH1 0x4 MSTORE PUSH1 0x24 PUSH1 0x0 REVERT JUMPDEST PUSH32 0x4E487B7100000000000000000000000000000000000000000000000000000000 PUSH1 0x0 MSTORE PUSH1 0x12 PUSH1 0x4 MSTORE PUSH1 0x24 PUSH1 0x0 REVERT JUMPDEST PUSH32 0x4E487B7100000000000000000000000000000000000000000000000000000000 PUSH1 0x0 MSTORE PUSH1 0x11 PUSH1 0x4 MSTORE PUSH1 0x24 PUSH1 0x0 REVERT JUMPDEST PUSH1 0x0 PUSH2 0x14E0 DUP3 PUSH2 0xEF2 JUMP JUMPDEST SWAP2 POP PUSH2 0x14EB DUP4 PUSH2 0xEF2 JUMP JUMPDEST SWAP3 POP DUP3 PUSH2 0x14FB JUMPI PUSH2 0x14FA PUSH2 0x1477 JUMP JUMPDEST JUMPDEST DUP3 DUP3 DIV SWAP1 POP SWAP3 SWAP2 POP POP JUMP JUMPDEST PUSH32 0x4E6F7420656E6F75676820617070726F76616C73000000000000000000000000 PUSH1 0x0 DUP3 ADD MSTORE POP JUMP JUMPDEST PUSH1 0x0 PUSH2 0x153C PUSH1 0x14 DUP4 PUSH2 0xF60 JUMP JUMPDEST SWAP2 POP PUSH2 0x1547 DUP3 PUSH2 0x1506 JUMP JUMPDEST PUSH1 0x20 DUP3 ADD SWAP1 POP SWAP2 SWAP1 POP JUMP JUMPDEST PUSH1 0x0 PUSH1 0x20 DUP3 ADD SWAP1 POP DUP2 DUP2 SUB PUSH1 0x0 DUP4 ADD MSTORE PUSH2 0x156B DUP2 PUSH2 0x152F JUMP JUMPDEST SWAP1 POP SWAP2 SWAP1 POP JUMP JUMPDEST PUSH32 0x5265717565737420616C72656164792066696E616C697A656400000000000000 PUSH1 0x0 DUP3 ADD MSTORE POP JUMP JUMPDEST PUSH1 0x0 PUSH2 0x15A8 PUSH1 0x19 DUP4 PUSH2 0xF60 JUMP JUMPDEST SWAP2 POP PUSH2 0x15B3 DUP3 PUSH2 0x1572 JUMP JUMPDEST PUSH1 0x20 DUP3 ADD SWAP1 POP SWAP2 SWAP1 POP JUMP JUMPDEST PUSH1 0x0 PUSH1 0x20 DUP3 ADD SWAP1 POP DUP2 DUP2 SUB PUSH1 0x0 DUP4 ADD MSTORE PUSH2 0x15D7 DUP2 PUSH2 0x159B JUMP JUMPDEST SWAP1 POP SWAP2 SWAP1 POP JUMP JUMPDEST PUSH32 0x4E487B7100000000000000000000000000000000000000000000000000000000 PUSH1 0x0 MSTORE PUSH1 0x22 PUSH1 0x4 MSTORE PUSH1 0x24 PUSH1 0x0 REVERT JUMPDEST PUSH1 0x0 PUSH1 0x2 DUP3 DIV SWAP1 POP PUSH1 0x1 DUP3 AND DUP1 PUSH2 0x1625 JUMPI PUSH1 0x7F DUP3 AND SWAP2 POP JUMPDEST PUSH1 0x20 DUP3 LT DUP2 EQ ISZERO PUSH2 0x1639 JUMPI PUSH2 0x1638 PUSH2 0x15DE JUMP JUMPDEST JUMPDEST POP SWAP2 SWAP1 POP JUMP JUMPDEST PUSH32 0x436F6E747269627574696F6E206973206C657373207468616E206D696E696D75 PUSH1 0x0 DUP3 ADD MSTORE PUSH32 0x6D00000000000000000000000000000000000000000000000000000000000000 PUSH1 0x20 DUP3 ADD MSTORE POP JUMP JUMPDEST PUSH1 0x0 PUSH2 0x169B PUSH1 0x21 DUP4 PUSH2 0xF60 JUMP JUMPDEST SWAP2 POP PUSH2 0x16A6 DUP3 PUSH2 0x163F JUMP JUMPDEST PUSH1 0x40 DUP3 ADD SWAP1 POP SWAP2 SWAP1 POP JUMP JUMPDEST PUSH1 0x0 PUSH1 0x20 DUP3 ADD SWAP1 POP DUP2 DUP2 SUB PUSH1 0x0 DUP4 ADD MSTORE PUSH2 0x16CA DUP2 PUSH2 0x168E JUMP JUMPDEST SWAP1 POP SWAP2 SWAP1 POP JUMP JUMPDEST PUSH1 0x0 PUSH2 0x16DC DUP3 PUSH2 0xEF2 JUMP JUMPDEST SWAP2 POP PUSH32 0xFFFFFFFFFFFFFFFFFFFFFFFFFFFFFFFFFFFFFFFFFFFFFFFFFFFFFFFFFFFFFFFF DUP3 EQ ISZERO PUSH2 0x170F JUMPI PUSH2 0x170E PUSH2 0x14A6 JUMP JUMPDEST JUMPDEST PUSH1 0x1 DUP3 ADD SWAP1 POP SWAP2 SWAP1 POP JUMP JUMPDEST PUSH32 0x4F6E6C7920617070726F766572732063616E20617070726F7665000000000000 PUSH1 0x0 DUP3 ADD MSTORE POP JUMP JUMPDEST PUSH1 0x0 PUSH2 0x1750 PUSH1 0x1A DUP4 PUSH2 0xF60 JUMP JUMPDEST SWAP2 POP PUSH2 0x175B DUP3 PUSH2 0x171A JUMP JUMPDEST PUSH1 0x20 DUP3 ADD SWAP1 POP SWAP2 SWAP1 POP JUMP JUMPDEST PUSH1 0x0 PUSH1 0x20 DUP3 ADD SWAP1 POP DUP2 DUP2 SUB PUSH1 0x0 DUP4 ADD MSTORE PUSH2 0x177F DUP2 PUSH2 0x1743 JUMP JUMPDEST SWAP1 POP SWAP2 SWAP1 POP JUMP JUMPDEST PUSH32 0x5265717565737420616C726561647920617070726F7665640000000000000000 PUSH1 0x0 DUP3 ADD MSTORE POP JUMP JUMPDEST PUSH1 0x0 PUSH2 0x17BC PUSH1 0x18 DUP4 PUSH2 0xF60 JUMP JUMPDEST SWAP2 POP PUSH2 0x17C7 DUP3 PUSH2 0x1786 JUMP JUMPDEST PUSH1 0x20 DUP3 ADD SWAP1 POP SWAP2 SWAP1 POP JUMP JUMPDEST PUSH1 0x0 PUSH1 0x20 DUP3 ADD SWAP1 POP DUP2 DUP2 SUB PUSH1 0x0 DUP4 ADD MSTORE PUSH2 0x17EB DUP2 PUSH2 0x17AF JUMP JUMPDEST SWAP1 POP SWAP2 SWAP1 POP JUMP INVALID LOG2 PUSH5 0x6970667358 0x22 SLT KECCAK256 BYTE DUP8 EXTCODESIZE PUSH27 0x951ED758B920C46D0D3E0203FC6B5E9F1825D65874C52A5C7AB4E5 XOR PUSH5 0x736F6C6343 STOP ADDMOD MULMOD STOP CALLER "},"gasEstimates":{"creation":{"codeDepositCost":"1236800","executionCost":"infinite","totalCost":"infinite"},"external":{"approveRequest(uint256)":"infinite","approvers(address)":"2913","approversCount()":"2474","contribute()":"53244","createRequest(string,uint256,address)":"infinite","description()":"infinite","finalizeRequest(uint256)":"infinite","getDetails()":"infinite","getRequestsCount()":"2468","img()":"infinite","manager()":"2581","minimumContribution()":"2451","name()":"infinite","requests(uint256)":"infinite"}},"methodIdentifiers":{"approveRequest(uint256)":"d7d1bbdb","approvers(address)":"0a144391","approversCount()":"82fde093","contribute()":"d7bb99ba","createRequest(string,uint256,address)":"8a9cfd55","description()":"7284e416","finalizeRequest(uint256)":"03441006","getDetails()":"fbbf93a0","getRequestsCount()":"3410452a","img()":"426bfd00","manager()":"481c6a75","minimumContribution()":"937e09b1","name()":"06fdde03","requests(uint256)":"81d12c58"}},"storageLayout":{"storage":[{"astId":69,"contract":"Campaign.sol:Campaign","label":"name","offset":0,"slot":"0","type":"t_string_storage"},{"astId":71,"contract":"Campaign.sol:Campaign","label":"description","offset":0,"slot":"1","type":"t_string_storage"},{"astId":73,"contract":"Campaign.sol:Campaign","label":"img","offset":0,"slot":"2","type":"t_string_storage"},{"astId":77,"contract":"Campaign.sol:Campaign","label":"requests","offset":0,"slot":"3","type":"t_array(t_struct(Request)67_storage)dyn_storage"},{"astId":79,"contract":"Campaign.sol:Campaign","label":"manager","offset":0,"slot":"4","type":"t_address"},{"astId":81,"contract":"Campaign.sol:Campaign","label":"minimumContribution","offset":0,"slot":"5","type":"t_uint256"},{"astId":85,"contract":"Campaign.sol:Campaign","label":"approvers","offset":0,"slot":"6","type":"t_mapping(t_address,t_bool)"},{"astId":87,"contract":"Campaign.sol:Campaign","label":"approversCount","offset":0,"slot":"7","type":"t_uint256"}],"types":{"t_address":{"encoding":"inplace","label":"address","numberOfBytes":"20"},"t_array(t_struct(Request)67_storage)dyn_storage":{"base":"t_struct(Request)67_storage","encoding":"dynamic_array","label":"struct Campaign.Request[]","numberOfBytes":"32"},"t_bool":{"encoding":"inplace","label":"bool","numberOfBytes":"1"},"t_mapping(t_address,t_bool)":{"encoding":"mapping","key":"t_address","label":"mapping(address => bool)","numberOfBytes":"32","value":"t_bool"},"t_string_storage":{"encoding":"bytes","label":"string","numberOfBytes":"32"},"t_struct(Request)67_storage":{"encoding":"inplace","label":"struct Campaign.Request","members":[{"astId":54,"contract":"Campaign.sol:Campaign","label":"description","offset":0,"slot":"0","type":"t_string_storage"},{"astId":56,"contract":"Campaign.sol:Campaign","label":"value","offset":0,"slot":"1","type":"t_uint256"},{"astId":58,"contract":"Campaign.sol:Campaign","label":"recipient","offset":0,"slot":"2","type":"t_address"},{"astId":60,"contract":"Campaign.sol:Campaign","label":"complete","offset":20,"slot":"2","type":"t_bool"},{"astId":62,"contract":"Campaign.sol:Campaign","label":"approvalCount","offset":0,"slot":"3","type":"t_uint256"},{"astId":66,"contract":"Campaign.sol:Campaign","label":"approvals","offset":0,"slot":"4","type":"t_mapping(t_address,t_bool)"}],"numberOfBytes":"160"},"t_uint256":{"encoding":"inplace","label":"uint256","numberOfBytes":"32"}}},"userdoc":{"kind":"user","methods":{},"version":1}}